{
  "_format": "hh-sol-artifact-1",
  "contractName": "CreditOracle",
  "sourceName": "contracts/CreditOracle.sol",
  "abi": [
    {
      "inputs": [
        {
          "internalType": "address",
          "name": "_attester",
          "type": "address"
        }
      ],
      "stateMutability": "nonpayable",
      "type": "constructor"
    },
    {
      "inputs": [],
      "name": "ECDSAInvalidSignature",
      "type": "error"
    },
    {
      "inputs": [
        {
          "internalType": "uint256",
          "name": "length",
          "type": "uint256"
        }
      ],
      "name": "ECDSAInvalidSignatureLength",
      "type": "error"
    },
    {
      "inputs": [
        {
          "internalType": "bytes32",
          "name": "s",
          "type": "bytes32"
        }
      ],
      "name": "ECDSAInvalidSignatureS",
      "type": "error"
    },
    {
      "inputs": [
        {
          "internalType": "uint8",
          "name": "got",
          "type": "uint8"
        },
        {
          "internalType": "uint8",
          "name": "expected",
          "type": "uint8"
        }
      ],
      "name": "InvalidEncryptedInput",
      "type": "error"
    },
    {
      "inputs": [
        {
          "internalType": "address",
          "name": "owner",
          "type": "address"
        }
      ],
      "name": "OwnableInvalidOwner",
      "type": "error"
    },
    {
      "inputs": [
        {
          "internalType": "address",
          "name": "account",
          "type": "address"
        }
      ],
      "name": "OwnableUnauthorizedAccount",
      "type": "error"
    },
    {
      "inputs": [
        {
          "internalType": "int32",
          "name": "value",
          "type": "int32"
        }
      ],
      "name": "SecurityZoneOutOfBounds",
      "type": "error"
    },
    {
      "anonymous": false,
      "inputs": [
        {
          "indexed": true,
          "internalType": "address",
          "name": "oldAttester",
          "type": "address"
        },
        {
          "indexed": true,
          "internalType": "address",
          "name": "newAttester",
          "type": "address"
        }
      ],
      "name": "AttesterChanged",
      "type": "event"
    },
    {
      "anonymous": false,
      "inputs": [
        {
          "indexed": true,
          "internalType": "address",
          "name": "user",
          "type": "address"
        },
        {
          "indexed": false,
          "internalType": "bytes32",
          "name": "collateralHandle",
          "type": "bytes32"
        },
        {
          "indexed": false,
          "internalType": "bytes32",
          "name": "debtHandle",
          "type": "bytes32"
        }
      ],
      "name": "DebtProfileRequested",
      "type": "event"
    },
    {
      "anonymous": false,
      "inputs": [
        {
          "indexed": true,
          "internalType": "address",
          "name": "user",
          "type": "address"
        },
        {
          "indexed": false,
          "internalType": "uint64",
          "name": "collateral",
          "type": "uint64"
        },
        {
          "indexed": false,
          "internalType": "uint64",
          "name": "debt",
          "type": "uint64"
        }
      ],
      "name": "DebtProfileRevealed",
      "type": "event"
    },
    {
      "anonymous": false,
      "inputs": [
        {
          "indexed": true,
          "internalType": "address",
          "name": "previousOwner",
          "type": "address"
        },
        {
          "indexed": true,
          "internalType": "address",
          "name": "newOwner",
          "type": "address"
        }
      ],
      "name": "OwnershipTransferred",
      "type": "event"
    },
    {
      "anonymous": false,
      "inputs": [
        {
          "indexed": true,
          "internalType": "address",
          "name": "user",
          "type": "address"
        }
      ],
      "name": "ProfileUpdated",
      "type": "event"
    },
    {
      "inputs": [],
      "name": "attester",
      "outputs": [
        {
          "internalType": "address",
          "name": "",
          "type": "address"
        }
      ],
      "stateMutability": "view",
      "type": "function"
    },
    {
      "inputs": [
        {
          "internalType": "address",
          "name": "user",
          "type": "address"
        },
        {
          "internalType": "uint64",
          "name": "totalCollateralUsd",
          "type": "uint64"
        },
        {
          "internalType": "bytes",
          "name": "collateralSig",
          "type": "bytes"
        },
        {
          "internalType": "uint64",
          "name": "totalDebtUsd",
          "type": "uint64"
        },
        {
          "internalType": "bytes",
          "name": "debtSig",
          "type": "bytes"
        },
        {
          "internalType": "bool",
          "name": "isDebtHigher",
          "type": "bool"
        },
        {
          "internalType": "bytes",
          "name": "isDebtHigherSig",
          "type": "bytes"
        }
      ],
      "name": "finalizePublicDebtProfile",
      "outputs": [
        {
          "internalType": "uint64",
          "name": "",
          "type": "uint64"
        },
        {
          "internalType": "uint64",
          "name": "",
          "type": "uint64"
        },
        {
          "internalType": "bool",
          "name": "",
          "type": "bool"
        }
      ],
      "stateMutability": "nonpayable",
      "type": "function"
    },
    {
      "inputs": [
        {
          "internalType": "address",
          "name": "user",
          "type": "address"
        }
      ],
      "name": "getEncryptedNetValue",
      "outputs": [
        {
          "internalType": "euint64",
          "name": "netValue",
          "type": "bytes32"
        },
        {
          "internalType": "ebool",
          "name": "isPositive",
          "type": "bytes32"
        }
      ],
      "stateMutability": "nonpayable",
      "type": "function"
    },
    {
      "inputs": [],
      "name": "owner",
      "outputs": [
        {
          "internalType": "address",
          "name": "",
          "type": "address"
        }
      ],
      "stateMutability": "view",
      "type": "function"
    },
    {
      "inputs": [
        {
          "internalType": "address",
          "name": "",
          "type": "address"
        }
      ],
      "name": "profiles",
      "outputs": [
        {
          "internalType": "euint64",
          "name": "totalCollateralUsd",
          "type": "bytes32"
        },
        {
          "internalType": "euint64",
          "name": "totalDebtUsd",
          "type": "bytes32"
        },
        {
          "internalType": "uint256",
          "name": "lastUpdate",
          "type": "uint256"
        },
        {
          "internalType": "uint256",
          "name": "nonce",
          "type": "uint256"
        }
      ],
      "stateMutability": "view",
      "type": "function"
    },
    {
      "inputs": [],
      "name": "renounceOwnership",
      "outputs": [],
      "stateMutability": "nonpayable",
      "type": "function"
    },
    {
      "inputs": [
        {
          "internalType": "address",
          "name": "user",
          "type": "address"
        }
      ],
      "name": "requestPublicDebtProfile",
      "outputs": [],
      "stateMutability": "nonpayable",
      "type": "function"
    },
    {
      "inputs": [
        {
          "internalType": "address",
          "name": "_attester",
          "type": "address"
        }
      ],
      "name": "setAttester",
      "outputs": [],
      "stateMutability": "nonpayable",
      "type": "function"
    },
    {
      "inputs": [
        {
          "internalType": "address",
          "name": "newOwner",
          "type": "address"
        }
      ],
      "name": "transferOwnership",
      "outputs": [],
      "stateMutability": "nonpayable",
      "type": "function"
    },
    {
      "inputs": [
        {
          "internalType": "address",
          "name": "user",
          "type": "address"
        },
        {
          "components": [
            {
              "internalType": "uint256",
              "name": "ctHash",
              "type": "uint256"
            },
            {
              "internalType": "uint8",
              "name": "securityZone",
              "type": "uint8"
            },
            {
              "internalType": "uint8",
              "name": "utype",
              "type": "uint8"
            },
            {
              "internalType": "bytes",
              "name": "signature",
              "type": "bytes"
            }
          ],
          "internalType": "struct InEuint64",
          "name": "collateralHandle",
          "type": "tuple"
        },
        {
          "components": [
            {
              "internalType": "uint256",
              "name": "ctHash",
              "type": "uint256"
            },
            {
              "internalType": "uint8",
              "name": "securityZone",
              "type": "uint8"
            },
            {
              "internalType": "uint8",
              "name": "utype",
              "type": "uint8"
            },
            {
              "internalType": "bytes",
              "name": "signature",
              "type": "bytes"
            }
          ],
          "internalType": "struct InEuint64",
          "name": "debtHandle",
          "type": "tuple"
        },
        {
          "internalType": "uint256",
          "name": "timestamp",
          "type": "uint256"
        },
        {
          "internalType": "bytes",
          "name": "signature",
          "type": "bytes"
        }
      ],
      "name": "updateProfile",
      "outputs": [],
      "stateMutability": "nonpayable",
      "type": "function"
    }
  ],
  "bytecode": "0x60803460bd57601f6115e338819003918201601f19168301916001600160401b0383118484101760c15780849260209460405283398101031260bd57516001600160a01b03908181169081900360bd57331560a5575f5460018060a01b03199033828216175f55604051933391167f8be0079c531659141344cd1fd0a4f28419497f9722a3daafe3b4186f6b6457e05f80a3600154161760015561150d90816100d68239f35b604051631e4fbdf760e01b81525f6004820152602490fd5b5f80fd5b634e487b7160e01b5f52604160045260245ffdfe608060409080825260049081361015610016575f80fd5b5f3560e01c90816331f153a8146104f75750806347b0c3b3146104cf57806358887c75146104a1578063715018a61461044a5780638da5cb5b1461042357806393f8d19e1461037d5780639daf85ab146102dd578063bbe1562714610284578063eab9b74c1461011d5763f2fde38b1461008e575f80fd5b34610119576020366003190112610119576100a7610782565b906100b06110fb565b6001600160a01b039182169283156101035750505f54826bffffffffffffffffffffffff60a01b8216175f55167f8be0079c531659141344cd1fd0a4f28419497f9722a3daafe3b4186f6b6457e05f80a3005b905f6024925191631e4fbdf760e01b8352820152fd5b5f80fd5b5090346101195760e036600319011261011957610138610782565b916024359167ffffffffffffffff9384841680940361011957604435858111610119576101689036908501610798565b9390956064359281841680940361011957608435828111610119576101909036908501610798565b909360a43592831515988985036101195760c4359586116101195760609b899761021c610203966102098f95610225966101d361022d9a61023f9e369101610798565b9b909960018060a01b03169e8f5f5260026020525f20976101f960028a01541515610de2565b8854933691610864565b9161135b565b8b61020360018601948554933691610864565b5490549061116f565b923691610864565b911561027c5760ff60015b169061135b565b7fb002d58ed9a5365c51d17e98317f7ebfa8d68e9005a47a466ede78a1c2c739b2838051878152846020820152a281519384526020840152820152f35b60ff5f610238565b8234610119576020366003190112610119576080906001600160a01b036102a9610782565b165f526002602052805f20908154916001810154916003600283015492015492815194855260208501528301526060820152f35b5034610119576020366003190112610119576102f7610782565b5f546001600160a01b0393919291908416330361034e575050816001549116809282167f59b0a2696d1ebcafa21539b85c82de9ecd511f90e43ae873d82cfad77dd602725f80a36001600160a01b03191617600155005b906020606492519162461bcd60e51b835282015260096024820152682737ba1037bbb732b960b91b6044820152fd5b8234610119576020366003190112610119577f584aceebca4420ea0cb7901552b29ceb84a553a780bc4a6327aa9a4fc106e1316001600160a01b036103c0610782565b1691825f526002602052805f206103dc60028201541515610de2565b6103e68154611126565b60018101906103f58254611126565b610413610405835483549061116f565b61040e81610fb1565b611126565b54905482519182526020820152a2005b8234610119575f366003190112610119575f5490516001600160a01b039091168152602090f35b34610119575f366003190112610119576104626110fb565b5f80546001600160a01b0319811682556001600160a01b03167f8be0079c531659141344cd1fd0a4f28419497f9722a3daafe3b4186f6b6457e08280a3005b8234610119576020366003190112610119576104c36104be610782565b610931565b82519182526020820152f35b8234610119575f3660031901126101195760015490516001600160a01b039091168152602090f35b838334610119576003199060a03683011261011957610514610782565b90602490813567ffffffffffffffff96878211610119576080868385019336030112610119576044359588871161011957608090878501973603011261011957606435906084358981116101195761056f9036908601610798565b91610e0f1942014281116107705784111561073a575060018060a01b03928388169a8b5f52600260205260038b5f200154908b519160208301936bffffffffffffffffffffffff198c60601b168552883560348501528c356054850152607484015260948301526094825260c082019082821090821117610728579261063f95949261063092610636958e525190207f19457468657265756d205369676e6564204d6573736167653a0a3332000000005f52601c52603c5f20923691610864565b90611212565b9093919361124c565b80600154169116036106f25761066e61066161066661066160039436906108b8565b610e1b565b9636906108b8565b95875f5260026020525f2085815586600182015542600282015501918254915f1983146106e157600183018455876106bb886106b689818a6106b08184610f3f565b84610f3f565b610fb1565b7fbe4ec58a792f909e102ee3d745d0c3b34a4d437a54d903c4db098d31c556422f5f80a2005b601190634e487b7160e01b5f52525ffd5b506011606492602087519362461bcd60e51b855284015282015270496e76616c6964207369676e617475726560781b6044820152fd5b88604189634e487b7160e01b5f52525ffd5b62461bcd60e51b815260208682015260138782015272105d1d195cdd185d1a5bdb88195e1c1a5c9959606a1b6044820152606490fd5b87601188634e487b7160e01b5f52525ffd5b600435906001600160a01b038216820361011957565b9181601f840112156101195782359167ffffffffffffffff8311610119576020838186019501011161011957565b6080810190811067ffffffffffffffff8211176107e257604052565b634e487b7160e01b5f52604160045260245ffd5b67ffffffffffffffff81116107e257604052565b6060810190811067ffffffffffffffff8211176107e257604052565b6020810190811067ffffffffffffffff8211176107e257604052565b90601f8019910116810190811067ffffffffffffffff8211176107e257604052565b92919267ffffffffffffffff82116107e2576040519161088e601f8201601f191660200184610842565b829481845281830111610119578281602093845f960137010152565b359060ff8216820361011957565b919060808382031261011957604051906108d1826107c6565b8193803583526108e3602082016108aa565b60208401526108f4604082016108aa565b604084015260608101359067ffffffffffffffff8211610119570181601f820112156101195760609181602061092c93359101610864565b910152565b60018060a01b03165f52600290602090828252604092835f2092818401548015908115610db7575b50610ca757835491600185019081548415610c97575b8015610c89575b8751946109828661080a565b828652883686880137610994866114ba565b5261099e856114c7565b528651936109ab85610826565b5f8552875194631888debd60e01b90818752866109f86109e5600495600587850152601260248501526080604485015260848401906112f3565b60031993848483030160648501526112f3565b0393868873ea30c4b8b44078bbf8a6ef5b9f1ec1626c7848d996815f895af1978815610c7f575f98610c50575b50610a42889a610a388154895490610ff8565b9754905490610ff8565b908689978a15610b86575b15610b78575b8215610b68575b8c5197610a66896107c6565b600389526060368b8b0137610a7a896114ba565b52610a84886114c7565b5286511115610b55578695939192610ae7610ad89896945f9360608801528d805190610aaf82610826565b858252519a8b9889978896875260058188015260248701526080604487015260848601906112f3565b918483030160648501526112f3565b03925af1958615610b4c57505f95610b1a575b5050610b18906106b685610b0e3382610f3f565b6106b63384610f3f565b565b9080929550813d8311610b45575b610b328183610842565b81010312610119575192610b185f610afa565b503d610b28565b513d5f823e3d90fd5b603284634e487b7160e01b5f525260245ffd5b9150610b72611431565b91610a5a565b50610b81611431565b610a53565b97508c51610b9381610826565b5f81528d5190610ba2826107c6565b600382526060368c8401375f610bb7836114ba565b525f610bc2836114c7565b528151841015610c3d57818f918c925f6060610beb9601525193849283928b84528c8401611326565b03815f8c5af1908115610c33575f91610c06575b5097610a4d565b90508981813d8311610c2c575b610c1d8183610842565b8101031261011957515f610bff565b503d610c13565b8e513d5f823e3d90fd5b603288634e487b7160e01b5f525260245ffd5b9097508681813d8311610c78575b610c688183610842565b810103126101195751965f610a25565b503d610c5e565b8b513d5f823e3d90fd5b50610c92611431565b610976565b9350610ca1611431565b9361096f565b919250610cb2611431565b918451610cbe81610826565b5f8152855192610ccd846107c6565b60038452606036848601376001610ce3856114ba565b525f610cee856114c7565b5283511115610da3575f60608401528551631888debd60e01b815292829184918291610d1e919060048401611326565b03815f73ea30c4b8b44078bbf8a6ef5b9f1ec1626c7848d95af1948515610b4c57505f94610d73575b5050610d533382610f3f565b610d5d3384610f3f565b610d6681610fb1565b610d6f83610fb1565b9190565b9080929450813d8311610d9c575b610d8b8183610842565b810103126101195751915f80610d47565b503d610d81565b634e487b7160e01b5f52603260045260245ffd5b4262093a7f19810192508211610dce57105f610959565b634e487b7160e01b5f52601160045260245ffd5b15610de957565b60405162461bcd60e51b815260206004820152600a6024820152694e6f2070726f66696c6560b01b6044820152606490fd5b60409060ff828201511660058103610f215750606060ff91835190610e3f826107c6565b5f825282602093835f86809601525f8882015201528051610ec46060868585015116930151875192610e70846107c6565b8352848301938452868884016005815260608501928352895198899687966313fce3b160e11b88528c6004890152516044880152511660648601525116608484015251608060a484015260c48301906112cf565b33602483015203815f73ea30c4b8b44078bbf8a6ef5b9f1ec1626c7848d95af1928315610b4c57505f92610ef757505090565b90809250813d8311610f1a575b610f0e8183610842565b81010312610119575190565b503d610f04565b6044908351906367cf307160e01b8252600482015260056024820152fd5b73ea30c4b8b44078bbf8a6ef5b9f1ec1626c7848d991823b1561011957604051631974142760e21b815260048101929092526001600160a01b03166024820152905f908290818381604481015b03925af18015610fa657610f9d5750565b610b18906107f6565b6040513d5f823e3d90fd5b73ea30c4b8b44078bbf8a6ef5b9f1ec1626c7848d9803b1561011957604051631974142760e21b815260048101929092523060248301525f90829081838160448101610f8c565b9081156110eb575b80156110dd575b604051916110148361080a565b600283526040366020850137611029836114ba565b52611033826114c7565b52602061107d6040519261104684610826565b5f845261108f6040519485938493631888debd60e01b855260056004860152600760248601526080604486015260848501906112f3565b838103600319016064850152906112f3565b03815f73ea30c4b8b44078bbf8a6ef5b9f1ec1626c7848d95af1908115610fa6575f916110ba575090565b90506020813d6020116110d5575b81610f0e60209383610842565b3d91506110c8565b506110e6611431565b611007565b90506110f5611431565b90611000565b5f546001600160a01b0316330361110e57565b60405163118cdaa760e01b8152336004820152602490fd5b73ea30c4b8b44078bbf8a6ef5b9f1ec1626c7848d990813b15610119575f91602483926040519485938492631a778f2d60e11b845260048401525af18015610fa657610f9d5750565b908115611202575b80156111f4575b6040519161118b8361080a565b6002835260403660208501376111a0836114ba565b526111aa826114c7565b52602061107d604051926111bd84610826565b5f845261108f6040519485938493631888debd60e01b855260056004860152601560248601526080604486015260848501906112f3565b506111fd611431565b61117e565b905061120c611431565b90611177565b81519190604183036112425761123b9250602082015190606060408401519301515f1a906113af565b9192909190565b50505f9160029190565b60048110156112bb578061125e575050565b600181036112785760405163f645eedf60e01b8152600490fd5b600281036112995760405163fce698f760e01b815260048101839052602490fd5b6003146112a35750565b602490604051906335e2f38360e21b82526004820152fd5b634e487b7160e01b5f52602160045260245ffd5b805180835260209291819084018484015e5f828201840152601f01601f1916010190565b9081518082526020808093019301915f5b828110611312575050505090565b835185529381019392810192600101611304565b909161134a611358935f8452601a60208501526080604085015260808401906112f3565b9160608184039101526112f3565b90565b909173ea30c4b8b44078bbf8a6ef5b9f1ec1626c7848d9803b1561011957610f8c935f809460405196879586948593631868370160e01b8552600485015260248401526060604484015260648301906112cf565b91907f7fffffffffffffffffffffffffffffff5d576e7357a4501ddfe92f46681b20a08411611426579160209360809260ff5f9560405194855216868401526040830152606082015282805260015afa15610fa6575f516001600160a01b0381161561141c57905f905f90565b505f906001905f90565b5050505f9160039190565b60405161143d81610826565b5f81526040519061144d826107c6565b6003825260603660208401375f611463836114ba565b52600561146f836114c7565b52815160021015610da35761107d6020915f606085015261108f6040519485938493631888debd60e01b855260056004860152601a60248601526080604486015260848501906112f3565b805115610da35760200190565b805160011015610da3576040019056fea2646970667358221220117901b62ff299d5ce1b2fa4bb50b7e0cc29ee2f26d8d204b6e4374199342bf864736f6c63430008190033",
  "linkReferences": {},
  "deployedLinkReferences": {}
}