{
  "_format": "hh-sol-artifact-1",
  "contractName": "LoanEngine",
  "sourceName": "contracts/LoanEngine.sol",
  "abi": [
    {
      "inputs": [
        {
          "internalType": "address",
          "name": "_scoreManager",
          "type": "address"
        },
        {
          "internalType": "address",
          "name": "_poolManager",
          "type": "address"
        },
        {
          "internalType": "address",
          "name": "_verifier",
          "type": "address"
        },
        {
          "internalType": "address",
          "name": "_protocolFunds",
          "type": "address"
        }
      ],
      "stateMutability": "nonpayable",
      "type": "constructor"
    },
    {
      "inputs": [
        {
          "internalType": "uint8",
          "name": "got",
          "type": "uint8"
        },
        {
          "internalType": "uint8",
          "name": "expected",
          "type": "uint8"
        }
      ],
      "name": "InvalidEncryptedInput",
      "type": "error"
    },
    {
      "inputs": [
        {
          "internalType": "address",
          "name": "owner",
          "type": "address"
        }
      ],
      "name": "OwnableInvalidOwner",
      "type": "error"
    },
    {
      "inputs": [
        {
          "internalType": "address",
          "name": "account",
          "type": "address"
        }
      ],
      "name": "OwnableUnauthorizedAccount",
      "type": "error"
    },
    {
      "inputs": [],
      "name": "ReentrancyGuardReentrantCall",
      "type": "error"
    },
    {
      "inputs": [
        {
          "internalType": "int32",
          "name": "value",
          "type": "int32"
        }
      ],
      "name": "SecurityZoneOutOfBounds",
      "type": "error"
    },
    {
      "anonymous": false,
      "inputs": [
        {
          "indexed": true,
          "internalType": "uint256",
          "name": "loanId",
          "type": "uint256"
        },
        {
          "indexed": true,
          "internalType": "address",
          "name": "borrower",
          "type": "address"
        },
        {
          "indexed": false,
          "internalType": "uint256",
          "name": "principal",
          "type": "uint256"
        },
        {
          "indexed": false,
          "internalType": "uint256",
          "name": "interest",
          "type": "uint256"
        }
      ],
      "name": "LoanCreated",
      "type": "event"
    },
    {
      "anonymous": false,
      "inputs": [
        {
          "indexed": true,
          "internalType": "uint256",
          "name": "loanId",
          "type": "uint256"
        }
      ],
      "name": "LoanDefaulted",
      "type": "event"
    },
    {
      "anonymous": false,
      "inputs": [
        {
          "indexed": true,
          "internalType": "uint256",
          "name": "loanId",
          "type": "uint256"
        }
      ],
      "name": "LoanFullyRepaid",
      "type": "event"
    },
    {
      "anonymous": false,
      "inputs": [
        {
          "indexed": true,
          "internalType": "address",
          "name": "previousOwner",
          "type": "address"
        },
        {
          "indexed": true,
          "internalType": "address",
          "name": "newOwner",
          "type": "address"
        }
      ],
      "name": "OwnershipTransferred",
      "type": "event"
    },
    {
      "anonymous": false,
      "inputs": [
        {
          "indexed": true,
          "internalType": "uint256",
          "name": "loanId",
          "type": "uint256"
        },
        {
          "indexed": false,
          "internalType": "bytes32",
          "name": "handle",
          "type": "bytes32"
        }
      ],
      "name": "RepaymentAuditRequested",
      "type": "event"
    },
    {
      "anonymous": false,
      "inputs": [
        {
          "indexed": true,
          "internalType": "uint256",
          "name": "loanId",
          "type": "uint256"
        },
        {
          "indexed": false,
          "internalType": "uint256",
          "name": "amount",
          "type": "uint256"
        }
      ],
      "name": "RepaymentMade",
      "type": "event"
    },
    {
      "inputs": [],
      "name": "INTEREST_RATE_BPS",
      "outputs": [
        {
          "internalType": "uint256",
          "name": "",
          "type": "uint256"
        }
      ],
      "stateMutability": "view",
      "type": "function"
    },
    {
      "inputs": [],
      "name": "PROTOCOL_FEE_BPS",
      "outputs": [
        {
          "internalType": "uint256",
          "name": "",
          "type": "uint256"
        }
      ],
      "stateMutability": "view",
      "type": "function"
    },
    {
      "inputs": [],
      "name": "REPAY_EVENT_SIGNATURE",
      "outputs": [
        {
          "internalType": "bytes32",
          "name": "",
          "type": "bytes32"
        }
      ],
      "stateMutability": "view",
      "type": "function"
    },
    {
      "inputs": [],
      "name": "VERIFIER",
      "outputs": [
        {
          "internalType": "contract INativeQueryVerifier",
          "name": "",
          "type": "address"
        }
      ],
      "stateMutability": "view",
      "type": "function"
    },
    {
      "inputs": [
        {
          "internalType": "uint256",
          "name": "loanId",
          "type": "uint256"
        }
      ],
      "name": "auditRepayment",
      "outputs": [],
      "stateMutability": "nonpayable",
      "type": "function"
    },
    {
      "inputs": [
        {
          "components": [
            {
              "internalType": "uint256",
              "name": "ctHash",
              "type": "uint256"
            },
            {
              "internalType": "uint8",
              "name": "securityZone",
              "type": "uint8"
            },
            {
              "internalType": "uint8",
              "name": "utype",
              "type": "uint8"
            },
            {
              "internalType": "bytes",
              "name": "signature",
              "type": "bytes"
            }
          ],
          "internalType": "struct InEuint64",
          "name": "amount",
          "type": "tuple"
        }
      ],
      "name": "borrow",
      "outputs": [],
      "stateMutability": "nonpayable",
      "type": "function"
    },
    {
      "inputs": [
        {
          "internalType": "address",
          "name": "user",
          "type": "address"
        },
        {
          "components": [
            {
              "internalType": "uint256",
              "name": "ctHash",
              "type": "uint256"
            },
            {
              "internalType": "uint8",
              "name": "securityZone",
              "type": "uint8"
            },
            {
              "internalType": "uint8",
              "name": "utype",
              "type": "uint8"
            },
            {
              "internalType": "bytes",
              "name": "signature",
              "type": "bytes"
            }
          ],
          "internalType": "struct InEuint64",
          "name": "amount",
          "type": "tuple"
        },
        {
          "internalType": "address",
          "name": "poolToken",
          "type": "address"
        }
      ],
      "name": "createLoan",
      "outputs": [],
      "stateMutability": "nonpayable",
      "type": "function"
    },
    {
      "inputs": [
        {
          "internalType": "uint256",
          "name": "loanId",
          "type": "uint256"
        },
        {
          "internalType": "bool",
          "name": "isFullyRepaid",
          "type": "bool"
        },
        {
          "internalType": "bytes",
          "name": "signature",
          "type": "bytes"
        }
      ],
      "name": "finalizeRepaymentAudit",
      "outputs": [],
      "stateMutability": "nonpayable",
      "type": "function"
    },
    {
      "inputs": [
        {
          "internalType": "uint256",
          "name": "loanId",
          "type": "uint256"
        }
      ],
      "name": "getLoanBorrower",
      "outputs": [
        {
          "internalType": "address",
          "name": "",
          "type": "address"
        }
      ],
      "stateMutability": "view",
      "type": "function"
    },
    {
      "inputs": [
        {
          "internalType": "uint256",
          "name": "loanId",
          "type": "uint256"
        }
      ],
      "name": "getLoanStatus",
      "outputs": [
        {
          "internalType": "enum LoanEngine.LoanStatus",
          "name": "",
          "type": "uint8"
        }
      ],
      "stateMutability": "view",
      "type": "function"
    },
    {
      "inputs": [
        {
          "internalType": "address",
          "name": "user",
          "type": "address"
        }
      ],
      "name": "getUserActiveDebt",
      "outputs": [
        {
          "internalType": "euint64",
          "name": "",
          "type": "bytes32"
        }
      ],
      "stateMutability": "view",
      "type": "function"
    },
    {
      "inputs": [
        {
          "internalType": "uint256",
          "name": "loanId",
          "type": "uint256"
        }
      ],
      "name": "liquidate",
      "outputs": [],
      "stateMutability": "nonpayable",
      "type": "function"
    },
    {
      "inputs": [],
      "name": "loanCount",
      "outputs": [
        {
          "internalType": "uint256",
          "name": "",
          "type": "uint256"
        }
      ],
      "stateMutability": "view",
      "type": "function"
    },
    {
      "inputs": [
        {
          "internalType": "uint256",
          "name": "",
          "type": "uint256"
        }
      ],
      "name": "loans",
      "outputs": [
        {
          "internalType": "address",
          "name": "borrower",
          "type": "address"
        },
        {
          "internalType": "euint64",
          "name": "principal",
          "type": "bytes32"
        },
        {
          "internalType": "euint64",
          "name": "interestAmount",
          "type": "bytes32"
        },
        {
          "internalType": "euint64",
          "name": "repaid",
          "type": "bytes32"
        },
        {
          "internalType": "uint256",
          "name": "startTime",
          "type": "uint256"
        },
        {
          "internalType": "enum LoanEngine.LoanStatus",
          "name": "status",
          "type": "uint8"
        },
        {
          "internalType": "address",
          "name": "poolToken",
          "type": "address"
        }
      ],
      "stateMutability": "view",
      "type": "function"
    },
    {
      "inputs": [],
      "name": "owner",
      "outputs": [
        {
          "internalType": "address",
          "name": "",
          "type": "address"
        }
      ],
      "stateMutability": "view",
      "type": "function"
    },
    {
      "inputs": [],
      "name": "poolManager",
      "outputs": [
        {
          "internalType": "contract PoolManager",
          "name": "",
          "type": "address"
        }
      ],
      "stateMutability": "view",
      "type": "function"
    },
    {
      "inputs": [
        {
          "internalType": "bytes32",
          "name": "",
          "type": "bytes32"
        }
      ],
      "name": "processedQueries",
      "outputs": [
        {
          "internalType": "bool",
          "name": "",
          "type": "bool"
        }
      ],
      "stateMutability": "view",
      "type": "function"
    },
    {
      "inputs": [],
      "name": "protocolFunds",
      "outputs": [
        {
          "internalType": "contract ProtocolFunds",
          "name": "",
          "type": "address"
        }
      ],
      "stateMutability": "view",
      "type": "function"
    },
    {
      "inputs": [],
      "name": "renounceOwnership",
      "outputs": [],
      "stateMutability": "nonpayable",
      "type": "function"
    },
    {
      "inputs": [
        {
          "internalType": "uint256",
          "name": "loanId",
          "type": "uint256"
        },
        {
          "components": [
            {
              "internalType": "uint256",
              "name": "ctHash",
              "type": "uint256"
            },
            {
              "internalType": "uint8",
              "name": "securityZone",
              "type": "uint8"
            },
            {
              "internalType": "uint8",
              "name": "utype",
              "type": "uint8"
            },
            {
              "internalType": "bytes",
              "name": "signature",
              "type": "bytes"
            }
          ],
          "internalType": "struct InEuint64",
          "name": "encryptedAmount",
          "type": "tuple"
        }
      ],
      "name": "repay",
      "outputs": [],
      "stateMutability": "nonpayable",
      "type": "function"
    },
    {
      "inputs": [
        {
          "internalType": "uint64",
          "name": "chainKey",
          "type": "uint64"
        },
        {
          "internalType": "uint64",
          "name": "blockHeight",
          "type": "uint64"
        },
        {
          "internalType": "bytes",
          "name": "encodedTransaction",
          "type": "bytes"
        },
        {
          "internalType": "bytes32",
          "name": "merkleRoot",
          "type": "bytes32"
        },
        {
          "components": [
            {
              "internalType": "bytes32",
              "name": "hash",
              "type": "bytes32"
            },
            {
              "internalType": "bool",
              "name": "isLeft",
              "type": "bool"
            }
          ],
          "internalType": "struct INativeQueryVerifier.MerkleProofEntry[]",
          "name": "siblings",
          "type": "tuple[]"
        },
        {
          "internalType": "bytes32",
          "name": "lowerEndpointDigest",
          "type": "bytes32"
        },
        {
          "internalType": "bytes32[]",
          "name": "continuityRoots",
          "type": "bytes32[]"
        }
      ],
      "name": "repayFromProof",
      "outputs": [],
      "stateMutability": "nonpayable",
      "type": "function"
    },
    {
      "inputs": [],
      "name": "scoreManager",
      "outputs": [
        {
          "internalType": "contract ScoreManager",
          "name": "",
          "type": "address"
        }
      ],
      "stateMutability": "view",
      "type": "function"
    },
    {
      "inputs": [
        {
          "internalType": "address",
          "name": "newOwner",
          "type": "address"
        }
      ],
      "name": "transferOwnership",
      "outputs": [],
      "stateMutability": "nonpayable",
      "type": "function"
    }
  ],
  "bytecode": "0x60a03461013757601f6131f538819003918201601f19168301916001600160401b0383118484101761013b57808492608094604052833981010312610137576100478161014f565b906100546020820161014f565b9161006d60606100666040850161014f565b930161014f565b90331561011f575f80546001600160a01b03198082163390811784556001600160a01b03979195889590948694859391908416907f8be0079c531659141344cd1fd0a4f28419497f9722a3daafe3b4186f6b6457e09080a3600180551685600254161760025516836003541617600355169060045416176004551680155f146101175750610fd26080525b60405161309190816101648239608051818181610bbd0152611d840152f35b6080526100f8565b604051631e4fbdf760e01b81525f6004820152602490fd5b5f80fd5b634e487b7160e01b5f52604160045260245ffd5b51906001600160a01b03821682036101375756fe6080806040526004361015610012575f80fd5b5f905f3560e01c90816308c84e7014611d72575080630a02b8af14611b7f5780631ae8537f14611b465780631c4fd41c14611b0f57806321e4cc5f14611ae657806333cc99ab14611ab757806335f51c0d14611a155780633ef0a2f7146119e2578063415f124014611797578063715018a61461173e57806378ccb817146112805780638b7650b11461090c5780638da5cb5b146108e55780639bd344e5146108c8578063bb96fe731461089f578063be37822814610882578063ce63094d14610864578063d9a1855414610751578063da3f87561461028d578063dc4c90d314610264578063e1ec3c68146101e5578063ed7a42de146101aa5763f2fde38b1461011b575f80fd5b346101a75760203660031901126101a757610134611de0565b61013c612b28565b6001600160a01b0390811690811561018e575f54826bffffffffffffffffffffffff60a01b8216175f55167f8be0079c531659141344cd1fd0a4f28419497f9722a3daafe3b4186f6b6457e05f80a380f35b604051631e4fbdf760e01b815260048101849052602490fd5b80fd5b50346101a757806003193601126101a75760206040517f040cee90ee4799897c30ca04e5feb6fa43dbba9b6d084b4b257cdafd84ba013e8152f35b50346101a75760203660031901126101a757604060e091600435815260056020522060018060a01b03808254169160018101549060028101546003820154906006600484015493015493604051968752602087015260408601526060850152608084015261025960a0840160ff8316611df6565b60081c1660c0820152f35b50346101a757806003193601126101a7576003546040516001600160a01b039091168152602090f35b50346101a7576020600319818136011261074d576004356001600160401b0391828211610749576080908236030112610745576102d16102d6913690600401611f8a565b6125cb565b915f60018060a01b03938460025416836040518092630d47875d60e41b82523360048301528160249687925af190811561071157849161071c575b50905f9186600254168460405180958193632c333e2560e01b83523360048401525af1918215610711575f926106dc575b5061038290335f526006855261037360405f20549361036183866122c6565b8181156106cc575b156106bc57612e9a565b9061037c612fb4565b91612b53565b906103a5610397610391612fea565b84612ceb565b61039f613022565b90612d8e565b94604051956103b387611ea1565b60048752608036878901376212750042018042116106a9576103d48861203d565b526224ea0042018042116106a9576103eb88612019565b5262375f0042018042116106a9576104028861204a565b526249d40042018042116106a95790869493929161041f8961205a565b52610428612fb4565b916040519061043682611e85565b33825286820199868b5260408301938452606083019485526080830142815260a0840191825260c08401955f875260e08501955f875260089e8f545f526005809c5260405f209651166bffffffffffffffffffffffff60a01b8754161786556001809e51908701555160028601555160038501555160048401558783019051805192831161069657600160401b8311610696578a90825484845580851061066c575b5001905f52895f208b5f5b84811061065a57505050505060060191516003811015610647579061050e8392610531969594611f64565b518154610100600160a81b031916908a1b610100600160a81b03161790556122c6565b335f526006845260405f205584545f52808352610554338560405f20015461251b565b84545f5280835261056c33600260405f20015461251b565b84545f5280835261058433600360405f20015461251b565b335f52600683526105993360405f205461251b565b84545f528083526105af8460405f200154612584565b84545f528083526105c6600260405f200154612584565b84545f5282526105dc600360405f200154612584565b335f52600682526105f060405f2054612584565b8354915f60405191818352820152827f3373919ad665425d2cddb4072830e5935b6ee308440fa99b23383648da473bc060403393a35f198214610634575001905580f35b634e487b7160e01b5f9081526011600452fd5b86634e487b7160e01b5f5260216004525ffd5b8c845194019381840155018c906104e3565b835f528d85845f2092830192015b8281106106885750506104d8565b5f81558e94508f910161067a565b89634e487b7160e01b5f5260416004525ffd5b85634e487b7160e01b5f5260116004525ffd5b90506106c6612fb4565b90612e9a565b90506106d6612fb4565b90610369565b9091508381813d831161070a575b6106f48183611ef2565b81010312610706575190610382610342565b5f80fd5b503d6106ea565b6040513d5f823e3d90fd5b813d831161073e575b61072f8183611ef2565b8101031261070657825f610311565b503d610725565b8380fd5b8480fd5b8280fd5b50346101a75760203660031901126101a75760043580825260056020526040822060ff600682015416600381101561085057906107916107ae9215611e03565b60036107a660018301546002840154906122c6565b9101546123d5565b6107b781612584565b8273ea30c4b8b44078bbf8a6ef5b9f1ec1626c7848d9803b1561084c57818091602460405180948193631a778f2d60e11b83528860048401525af180156108415761082d575b505060207f4f129e00b24e9b44dfeacbeef63151082047ec9cab638ec41c435ca1f3a22c8e91604051908152a280f35b61083690611e3c565b61074d57825f6107fd565b6040513d84823e3d90fd5b5080fd5b634e487b7160e01b84526021600452602484fd5b50346101a757806003193601126101a7576020600854604051908152f35b50346101a757806003193601126101a75760206040516107d08152f35b50346101a757806003193601126101a7576004546040516001600160a01b039091168152602090f35b50346101a757806003193601126101a75760206040516103e88152f35b50346101a757806003193601126101a757546040516001600160a01b039091168152602090f35b50346101a75760e03660031901126101a7576001600160401b036004351660043503610706576001600160401b036024351660243503610706576044356001600160401b03811161084c57610965903690600401611db3565b9091608435916001600160401b03831161084c573660238401121561084c576001600160401b0383600401351161084c57366024846004013560061b8501011161084c576001600160401b0360c4351161084c5736602360c43501121561084c576001600160401b0360c435600401351161084c5736602460c4356004013560051b60c43501011161084c5760026001541461126e576002600155610a123684600401356024860161207e565b80518391815b6111e457505060405160208101916001600160401b0360c01b8060043560c01b16845260243560c01b166028830152603082015260308152610a5981611ebc565b51902092838352600760205260ff6040842054166111b357610a9660405191610a8183611e4f565b6064358352369060248160040135910161207e565b6020820152604051610aa781611e4f565b60a4358152610abb60c43560040135612002565b610ac86040519182611ef2565b60c43560048101358252602401602082015b602460c4356004013560051b60c435010182106111a357505060208201526040519182916302f4d16760e01b83526001600160401b036004351660048401526001600160401b0360243516602484015260a06044840152610b3f60a48401868a6120fd565b916003198484030160648501526020606081604086019380518752015194604083820152855180945201930190875b81811061117c575050506003198383030160848401526020606081604085019380518652015193604083820152845180945201920190865b8181106111635750602093928390039150829050867f00000000000000000000000000000000000000000000000000000000000000006001600160a01b03165af190811561115857839161111d575b50156110e8576040516306eae3bf60e11b81526020600482015293829185918291610c25916024840191906120fd565b038173__$eb2e2f684bffbc36e7cf45ce0012b95bdf$__5af4928315610f3e578193611013575b50600160ff84511603610fdb57806040518094635401482560e01b82526040600483015260c482019060ff81511660448401526001600160401b03602082015116606484015260408101519160806084850152825180915260e4840190602060e48260051b87010194019186905b828210610f4b5750505050606001518282036043190160a48401528291610ce0916122a2565b7f040cee90ee4799897c30ca04e5feb6fa43dbba9b6d084b4b257cdafd84ba013e6024830152038173__$eb2e2f684bffbc36e7cf45ce0012b95bdf$__5af4928315610f3e578193610eff575b50825115610ec457805b8351811015610ea55760026020610d4e838761206a565b5101515103610e6f57610d6e6020610d66838761206a565b510151612019565b51906040610d7c828761206a565b5101516020818051810103126107065760206001600160401b0381610e0193015116604051610daa81611ed7565b5f815260405191610dba83611e6a565b6003835260603685850137610dce8361203d565b526005610dda83612019565b525f610de58361204a565b52604051631888debd60e01b8152938492839260048401612e64565b03815f73ea30c4b8b44078bbf8a6ef5b9f1ec1626c7848d95af1908115610711575f91610e3c575b50610e36906001936126ec565b01610d37565b90506020813d602011610e67575b81610e5760209383611ef2565b8101031261070657516001610e29565b3d9150610e4a565b60405162461bcd60e51b815260206004820152600e60248201526d496e76616c696420746f7069637360901b6044820152606490fd5b50908152600760205260408120600160ff198254161790556001805580f35b60405162461bcd60e51b81526020600482015260136024820152724e6f2052657061796d656e74206576656e747360681b6044820152606490fd5b9092503d8084833e610f118183611ef2565b81016020828203126107455781516001600160401b03811161074957610f379201612163565b915f610d2d565b50604051903d90823e3d90fd5b9296509294509260e319898203018252855190606081019160018060a01b0381511682526020810151926060602084015283518091526020608084019401908a5b818110610fc557505050610fb36001936020936040859401519060408184039101526122a2565b97019201920192869593899593610cba565b8251865260209586019590920191600101610f8c565b60405162461bcd60e51b815260206004820152601060248201526f4661696c6564206f6e20736f7572636560801b6044820152606490fd5b9092503d8084833e6110258183611ef2565b6020828281010312610745578151916001600160401b0383116107495760808382018383010312610749576040519261105d84611e6a565b8082015160ff811681036110e4578452602081830101516001600160401b03811681036110e4576020850152604081830101516001600160401b0381116110e4576110af908484019083850101612163565b604085015260608183010151906001600160401b0382116110e4576110d893830192010161211d565b6060820152915f610c4c565b8680fd5b60405162461bcd60e51b815260206004820152600d60248201526c13985d1a5d994819985a5b1959609a1b6044820152606490fd5b90506020813d602011611150575b8161113860209383611ef2565b8101031261074d5751801515810361074d575f610bf5565b3d915061112b565b6040513d85823e3d90fd5b8251845285945060209384019390920191600101610ba6565b82518051865260209081015115158187015287965060409095019490920191600101610b6e565b8135815260209182019101610ada565b60405162461bcd60e51b8152602060048201526009602482015268141c9bd8d95cdcd95960ba1b6044820152606490fd5b9091808060011b046002148115171561123e57825f1981011161123e5760206112105f1985018461206a565b510151156112665760ff60015b168160011b01809160011b116112525791801561123e575f19019081610a18565b634e487b7160e01b85526011600452602485fd5b634e487b7160e01b5f52601160045260245ffd5b60ff8561121d565b604051633ee5aeb560e01b8152600490fd5b50346101a75760031960603682011261084c5761129b611de0565b90602435906001600160401b03821161074557608090823603011261074d57604435906001600160a01b0382168203610706576102d16112df913690600401611f8a565b600254604051630d47875d60e41b81526001600160a01b0385811660048301529091602091839160249183915f91165af1801561071157611713575b50600254604051632c333e2560e01b81526001600160a01b038581166004830152909291602091849160249183915f91165af1918215610711575f926116dd575b506113849060018060a01b0385165f52600660205261037360405f20549361036183866122c6565b90611393610397610391612fea565b926040516113a081611ea1565b600481526080366020830137621275004201804211611252576113c28261203d565b526224ea004201804211611252576113d982612019565b5262375f004201804211611252576113f08261204a565b526249d4004201804211611252576114078261205a565b52611410612fb4565b6040519561141d87611e85565b6001600160a01b03888116885260208089018881526040808b0194855260608b019586524260808c0190815260a08c019788525f60c08d0181905298851660e08d015260085489526005909352909620895181546001600160a01b031916931692909217825594516001820155905160028201559051600382015591516004830155518051906001600160401b0382116116c957600160401b82116116c957600583015482600585015580831061169f575b50602001600583015f5260205f205f5b83811061168b575050505060060160c08401516003811015611677576115329461150b60e09284611f64565b01518154610100600160a81b03191660089190911b610100600160a81b03161790556122c6565b60018060a01b0382165f52600660205260405f20556008545f52600560205261156281600160405f20015461251b565b6008545f52600560205261157d81600260405f20015461251b565b6008545f52600560205261159881600360405f20015461251b565b60018060a01b0381165f5260066020526115b68160405f205461251b565b6008545f5260056020526115d0600160405f200154612584565b6008545f5260056020526115ea600260405f200154612584565b6008545f526005602052611604600360405f200154612584565b6001600160a01b0381165f9081526006602052604090205461162590612584565b600854604080515f808252602082015291926001600160a01b03169183917f3373919ad665425d2cddb4072830e5935b6ee308440fa99b23383648da473bc091a35f1981146112525760010160085580f35b634e487b7160e01b5f52602160045260245ffd5b6001906020845194019381840155016114df565b600584015f5260205f20908382015b81830181106116be5750506114cf565b5f81556001016116ae565b634e487b7160e01b5f52604160045260245ffd5b9091506020813d60201161170b575b816116f960209383611ef2565b8101031261070657519061138461135c565b3d91506116ec565b602090813d8311611737575b6117298183611ef2565b81010312610706575f61131b565b503d61171f565b50346101a757806003193601126101a757611757612b28565b5f80546001600160a01b0319811682556001600160a01b03167f8be0079c531659141344cd1fd0a4f28419497f9722a3daafe3b4186f6b6457e08280a380f35b50346101a75760208060031936011261084c5760043590818352600581526040832090600682019182549060ff821691600392838110156119ce576117dc9015611e03565b6005820180548410156119ba5787528284882001544211156119875760029060ff19161784558560018060a01b0392836002541684845416813b1561074557839160a483926040519485938492628654a160e41b84526004840152603119602484015260606044840152600e60648401526d2232b330bab63a32b2102637b0b760911b60848401525af1908115611158578391611973575b505060018301958461188b88548487015490612478565b92611899828254168561251b565b54168580865416925460081c1690803b1561074957849283606492604051968795869463fad9570d60e01b86526004860152602485015260448401525af180156108415761195b575b50506119006006948383541688528585526040882054905490612478565b828254168752848452604087205561192282825416808852604088205461251b565b54168452526119346040832054612584565b7f0789b7097e8066538cfaa1132488b132e14ba5f0c938c8b7aaf8cf40356aab0b8280a280f35b61196490611e3c565b61196f57855f6118e2565b8580fd5b61197c90611e3c565b61084c57815f611874565b60405162461bcd60e51b815260048101859052600b60248201526a4e6f74206f76657264756560a81b6044820152606490fd5b634e487b7160e01b88526032600452602488fd5b634e487b7160e01b88526021600452602488fd5b50346101a75760203660031901126101a757602090600435815260058252604060018060a01b0391205416604051908152f35b50346101a75760031960403682011261084c57600435602435916001600160401b03831161074557608090833603011261074d57808352600560205260408320546001600160a01b03163303611a8257611a796102d1611a7f933690600401611f8a565b906126ec565b80f35b60405162461bcd60e51b815260206004820152600d60248201526c27b7363c903137b93937bbb2b960991b6044820152606490fd5b50346101a75760203660031901126101a75760ff60406020926004358152600784522054166040519015158152f35b50346101a757806003193601126101a7576002546040516001600160a01b039091168152602090f35b50346101a75760203660031901126101a75760ff6006604060209360043581526005855220015416611b446040518092611df6565bf35b50346101a75760203660031901126101a7576020906040906001600160a01b03611b6e611de0565b168152600683522054604051908152f35b50346107065760603660031901126107065760043560243580159081158103610706576044356001600160401b03811161070657611bc1903690600401611db3565b9092845f52600560205260405f2092600684019260ff845416600381101561167757611bed9015611e03565b611c1a6001860196611c12611c08895460028a0154906122c6565b60038901546123d5565b923691611f2e565b9115611d6b576001905b73ea30c4b8b44078bbf8a6ef5b9f1ec1626c7848d9803b15610706575f928360ff93611c7960405197889687958694631868370160e01b865260048601521660248401526060604484015260648301906122a2565b03925af1801561071157611d58575b50611d2057805460ff1916600117905580546001600160a01b0390811685526006602052604085205492549092611cbf9190612478565b82825416855260066020526040852055611ce382825416808652604086205461251b565b541682526006602052611cf96040832054612584565b7f6a65a58027e68282a85ac65a7afc6580ef3d139c6e6ec12ae8d82de13566e8cc8280a280f35b60405162461bcd60e51b815260206004820152601060248201526f139bdd08199d5b1b1e481c995c185a5960821b6044820152606490fd5b611d63919650611e3c565b5f945f611c88565b5f90611c24565b34610706575f366003190112610706577f00000000000000000000000000000000000000000000000000000000000000006001600160a01b03168152602090f35b9181601f84011215610706578235916001600160401b038311610706576020838186019501011161070657565b600435906001600160a01b038216820361070657565b9060038210156116775752565b15611e0a57565b60405162461bcd60e51b815260206004820152600a6024820152694e6f742061637469766560b01b6044820152606490fd5b6001600160401b0381116116c957604052565b604081019081106001600160401b038211176116c957604052565b608081019081106001600160401b038211176116c957604052565b61010081019081106001600160401b038211176116c957604052565b60a081019081106001600160401b038211176116c957604052565b606081019081106001600160401b038211176116c957604052565b602081019081106001600160401b038211176116c957604052565b90601f801991011681019081106001600160401b038211176116c957604052565b6001600160401b0381116116c957601f01601f191660200190565b929192611f3a82611f13565b91611f486040519384611ef2565b829481845281830111610706578281602093845f960137010152565b9060038110156116775760ff80198354169116179055565b359060ff8216820361070657565b91906080838203126107065760405190611fa382611e6a565b819380358352611fb560208201611f7c565b6020840152611fc660408201611f7c565b60408401526060810135906001600160401b038211610706570181601f8201121561070657606091816020611ffd93359101611f2e565b910152565b6001600160401b0381116116c95760051b60200190565b8051600110156120295760400190565b634e487b7160e01b5f52603260045260245ffd5b8051156120295760200190565b8051600210156120295760600190565b8051600310156120295760800190565b80518210156120295760209160051b010190565b92919261208a82612002565b60409261209a6040519283611ef2565b819581835260208093019160061b84019381851161070657915b8483106120c357505050505050565b8583830312610706578551906120d882611e4f565b833582528484013590811515820361070657828692838a9501528152019201916120b4565b908060209392818452848401375f828201840152601f01601f1916010190565b81601f820112156107065780519061213482611f13565b926121426040519485611ef2565b8284526020838301011161070657815f9260208093018386015e8301015290565b9080601f830112156107065781519160209161217e84612002565b9360409061218e82519687611ef2565b808652848601918560059260051b8601019484861161070657868101935b8685106121be57505050505050505090565b84516001600160401b039081811161070657830191606080601f19858b03011261070657855190808201828110858211176116c9578752848c01516001600160a01b0381168103610706578252868501518481116107065785018a603f8201121561070657808d809201518961223382612002565b9361224082519586611ef2565b8285528401918c1b830101918d8311610706578f908b01915b838310612291575091505083015284015192831161070657612282898c8096958196010161211d565b868201528152019401936121ac565b819083518152019101908f90612259565b805180835260209291819084018484015e5f828201840152601f01601f1916010190565b9081156123c5575b80156123b7575b604051916122e283611ebc565b6002835260403660208501376122f78361203d565b5261230182612019565b52602061234b6040519261231484611ed7565b5f845261235d6040519485938493631888debd60e01b85526005600486015260086024860152608060448601526084850190612e31565b83810360031901606485015290612e31565b03815f73ea30c4b8b44078bbf8a6ef5b9f1ec1626c7848d95af1908115610711575f91612388575090565b90506020813d6020116123af575b816123a360209383611ef2565b81010312610706575190565b3d9150612396565b506123c0612fb4565b6122d5565b90506123cf612fb4565b906122ce565b908115612468575b801561245a575b604051916123f183611ebc565b6002835260403660208501376124068361203d565b5261241082612019565b52602061234b6040519261242384611ed7565b5f845261235d6040519485938493631888debd60e01b85526005600486015260126024860152608060448601526084850190612e31565b50612463612fb4565b6123e4565b9050612472612fb4565b906123dd565b90811561250b575b80156124fd575b6040519161249483611ebc565b6002835260403660208501376124a98361203d565b526124b382612019565b52602061234b604051926124c684611ed7565b5f845261235d6040519485938493631888debd60e01b85526005600486015260076024860152608060448601526084850190612e31565b50612506612fb4565b612487565b9050612515612fb4565b90612480565b73ea30c4b8b44078bbf8a6ef5b9f1ec1626c7848d991823b1561070657604051631974142760e21b815260048101929092526001600160a01b03166024820152905f908290818381604481015b03925af18015610711576125795750565b61258290611e3c565b565b73ea30c4b8b44078bbf8a6ef5b9f1ec1626c7848d9803b1561070657604051631974142760e21b815260048101929092523060248301525f90829081838160448101612568565b60409060ff8282015116600581036126ce5750606060ff918351906125ef82611e6a565b5f825282602093835f86809601525f8882015201528051612674606086858501511693015187519261262084611e6a565b8352848301938452868884016005815260608501928352895198899687966313fce3b160e11b88528c6004890152516044880152511660648601525116608484015251608060a484015260c48301906122a2565b33602483015203815f73ea30c4b8b44078bbf8a6ef5b9f1ec1626c7848d95af19283156126c557505f926126a757505090565b90809250813d83116126be575b6123a38183611ef2565b503d6126b4565b513d5f823e3d90fd5b6044908351906367cf307160e01b8252600482015260056024820152fd5b9190915f815f52602090600582526040805f20956006870160ff81541697600398898110156116775761271f9015611e03565b60018101986127348a546002840154906122c6565b99612757828401956127488d885490612478565b6127528183612f11565b612b53565b936127bc6127668688546122c6565b80885585546001600160a01b0394916127819186169061251b565b61278b8854612584565b6127b46127a961279e8a54845490612f11565b928a54905490612478565b886127528183612f11565b61037c612fb4565b908751936127c985611ed7565b5f855288516127d781611e6a565b8181526060368d8301376107d06127ed8261203d565b5260056127f982612019565b525f6128048261204a565b5289519081612823631888debd60e01b928383526004998a8401612e64565b03918d8173ea30c4b8b44078bbf8a6ef5b9f1ec1626c7848d994815f875af1908115612b1e57918e918d935f91612ae8575b506128609088612ceb565b93895f85519361286f85611ed7565b8185526128c087519761288189611e6a565b8a8952606036898b01376127106128978a61203d565b5260056128a38a612019565b52836128ae8a61204a565b52519788968795869485528401612e64565b03925af1908115612ade575f91612aaf575b506128e0906128e792612d8e565b8094612478565b926128f5858754168261251b565b612902858354168561251b565b848654168354813b15610706578b5163b9e1aa0360e01b815260089190911c87166001600160a01b03168882019081526020810193909352915f91839182908490829060400103925af18015612aa557612a92575b508380915416915460081c16813b15612a8e57885163158cb46b60e21b81526001600160a01b039091168582019081526020810193909352918991839182908490829060400103925af18015612a8457908891612a70575b50506129bf81600254168561251b565b806002541692541690823b156110e457855163b7a8c1f360e01b81526001600160a01b039092169082019081526020810193909352918591839182908490829060400103925af18015612a6357612a4f575b50612a437fd3337f372235c0c137836a45251cd21fba324e7ef27c7acc5ac12451491793b9959697612a4892546123d5565b612584565b51908152a2565b612a598491611e3c565b61074d575f612a11565b50505051903d90823e3d90fd5b612a7990611e3c565b6110e457865f6129af565b87513d8a823e3d90fd5b8980fd5b612a9d919a50611e3c565b5f9883612957565b8a513d5f823e3d90fd5b90508c81813d8311612ad7575b612ac68183611ef2565b8101031261070657516128e76128d2565b503d612abc565b8b513d5f823e3d90fd5b92809294508391503d8311612b17575b612b028183611ef2565b8101031261070657518b918e91612860612855565b503d612af8565b8c513d5f823e3d90fd5b5f546001600160a01b03163303612b3b57565b60405163118cdaa760e01b8152336004820152602490fd5b91908215612c08575b8015612bfa575b8115612bea575b60405192612b7784611e6a565b600384526060366020860137612b8c8461203d565b52612b9683612019565b52612ba08261204a565b52602061234b60405192612bb384611ed7565b5f845261235d6040519485938493631888debd60e01b85526005600486015260046024860152608060448601526084850190612e31565b9050612bf4612fb4565b90612b6a565b50612c03612fb4565b612b63565b9150604051612c1681611ed7565b5f8152602061234b60405192612c2b84611e6a565b60038452606036848601375f612c408561203d565b525f612c4b85612019565b525f612c568561204a565b52612c8a6040519485938493631888debd60e01b85525f6004860152601a6024860152608060448601526084850190612e31565b03815f73ea30c4b8b44078bbf8a6ef5b9f1ec1626c7848d95af1908115610711575f91612cb9575b5091612b5c565b90506020813d602011612ce3575b81612cd460209383611ef2565b8101031261070657515f612cb2565b3d9150612cc7565b908115612d7e575b8015612d70575b60405191612d0783611ebc565b600283526040366020850137612d1c8361203d565b52612d2682612019565b52602061234b60405192612d3984611ed7565b5f845261235d6040519485938493631888debd60e01b855260056004860152600f6024860152608060448601526084850190612e31565b50612d79612fb4565b612cfa565b9050612d88612fb4565b90612cf3565b908115612e21575b8015612e13575b60405191612daa83611ebc565b600283526040366020850137612dbf8361203d565b52612dc982612019565b52602061234b60405192612ddc84611ed7565b5f845261235d6040519485938493631888debd60e01b855260056004860152600d6024860152608060448601526084850190612e31565b50612e1c612fb4565b612d9d565b9050612e2b612fb4565b90612d96565b9081518082526020808093019301915f5b828110612e50575050505090565b835185529381019392810192600101612e42565b9091612e89612e979360058452601a6020850152608060408501526080840190612e31565b916060818403910152612e31565b90565b9060405191612ea883611ebc565b600283526040366020850137612ebd8361203d565b52612ec782612019565b52602061234b60405192612eda84611ed7565b5f845261235d6040519485938493631888debd60e01b85526005600486015260136024860152608060448601526084850190612e31565b908115612fa4575b8015612f96575b60405191612f2d83611ebc565b600283526040366020850137612f428361203d565b52612f4c82612019565b52602061234b60405192612f5f84611ed7565b5f845261235d6040519485938493631888debd60e01b85526005600486015260156024860152608060448601526084850190612e31565b50612f9f612fb4565b612f20565b9050612fae612fb4565b90612f19565b61235d6020604051612fc581611ed7565b5f815260405190612fd582611e6a565b60038252606036848401375f610dce8361203d565b61235d6020604051612ffb81611ed7565b5f81526040519061300b82611e6a565b600382526060368484013761dac0610dce8361203d565b61235d602060405161303381611ed7565b5f81526040519061304382611e6a565b60038252606036848401376237b1d0610dce8361203d56fea2646970667358221220300ade4b268cbc0f58b3fedb84344901e289d117f93fa919db054bd6a5d82a3364736f6c63430008190033",
  "linkReferences": {
    "contracts/interfaces/EvmV1Decoder.sol": {
      "EvmV1Decoder": [
        {
          "length": 20,
          "start": 3469
        },
        {
          "length": 20,
          "start": 3694
        }
      ]
    }
  },
  "deployedLinkReferences": {
    "contracts/interfaces/EvmV1Decoder.sol": {
      "EvmV1Decoder": [
        {
          "length": 20,
          "start": 3113
        },
        {
          "length": 20,
          "start": 3338
        }
      ]
    }
  }
}