{
  "_format": "hh-sol-artifact-1",
  "contractName": "MerchantRouter",
  "sourceName": "contracts/MerchantRouter.sol",
  "abi": [
    {
      "inputs": [
        {
          "internalType": "address",
          "name": "_poolManager",
          "type": "address"
        },
        {
          "internalType": "address",
          "name": "_loanEngine",
          "type": "address"
        }
      ],
      "stateMutability": "nonpayable",
      "type": "constructor"
    },
    {
      "inputs": [
        {
          "internalType": "uint8",
          "name": "got",
          "type": "uint8"
        },
        {
          "internalType": "uint8",
          "name": "expected",
          "type": "uint8"
        }
      ],
      "name": "InvalidEncryptedInput",
      "type": "error"
    },
    {
      "inputs": [
        {
          "internalType": "address",
          "name": "owner",
          "type": "address"
        }
      ],
      "name": "OwnableInvalidOwner",
      "type": "error"
    },
    {
      "inputs": [
        {
          "internalType": "address",
          "name": "account",
          "type": "address"
        }
      ],
      "name": "OwnableUnauthorizedAccount",
      "type": "error"
    },
    {
      "inputs": [
        {
          "internalType": "int32",
          "name": "value",
          "type": "int32"
        }
      ],
      "name": "SecurityZoneOutOfBounds",
      "type": "error"
    },
    {
      "anonymous": false,
      "inputs": [
        {
          "indexed": true,
          "internalType": "address",
          "name": "customer",
          "type": "address"
        },
        {
          "indexed": true,
          "internalType": "address",
          "name": "merchant",
          "type": "address"
        },
        {
          "indexed": true,
          "internalType": "address",
          "name": "token",
          "type": "address"
        }
      ],
      "name": "MerchantPaid",
      "type": "event"
    },
    {
      "anonymous": false,
      "inputs": [
        {
          "indexed": true,
          "internalType": "address",
          "name": "merchant",
          "type": "address"
        },
        {
          "indexed": true,
          "internalType": "address",
          "name": "token",
          "type": "address"
        }
      ],
      "name": "MerchantWithdrawn",
      "type": "event"
    },
    {
      "anonymous": false,
      "inputs": [
        {
          "indexed": true,
          "internalType": "address",
          "name": "previousOwner",
          "type": "address"
        },
        {
          "indexed": true,
          "internalType": "address",
          "name": "newOwner",
          "type": "address"
        }
      ],
      "name": "OwnershipTransferred",
      "type": "event"
    },
    {
      "inputs": [
        {
          "internalType": "address",
          "name": "merchant",
          "type": "address"
        },
        {
          "internalType": "address",
          "name": "token",
          "type": "address"
        }
      ],
      "name": "getMerchantBalance",
      "outputs": [
        {
          "internalType": "euint64",
          "name": "",
          "type": "bytes32"
        }
      ],
      "stateMutability": "view",
      "type": "function"
    },
    {
      "inputs": [],
      "name": "loanEngine",
      "outputs": [
        {
          "internalType": "contract LoanEngine",
          "name": "",
          "type": "address"
        }
      ],
      "stateMutability": "view",
      "type": "function"
    },
    {
      "inputs": [
        {
          "internalType": "address",
          "name": "tokenOnSource",
          "type": "address"
        },
        {
          "components": [
            {
              "internalType": "uint256",
              "name": "ctHash",
              "type": "uint256"
            },
            {
              "internalType": "uint8",
              "name": "securityZone",
              "type": "uint8"
            },
            {
              "internalType": "uint8",
              "name": "utype",
              "type": "uint8"
            },
            {
              "internalType": "bytes",
              "name": "signature",
              "type": "bytes"
            }
          ],
          "internalType": "struct InEuint64",
          "name": "encryptedAmount",
          "type": "tuple"
        },
        {
          "internalType": "uint64",
          "name": "destChainId",
          "type": "uint64"
        }
      ],
      "name": "merchantWithdraw",
      "outputs": [],
      "stateMutability": "nonpayable",
      "type": "function"
    },
    {
      "inputs": [],
      "name": "owner",
      "outputs": [
        {
          "internalType": "address",
          "name": "",
          "type": "address"
        }
      ],
      "stateMutability": "view",
      "type": "function"
    },
    {
      "inputs": [
        {
          "internalType": "address",
          "name": "merchant",
          "type": "address"
        },
        {
          "internalType": "address",
          "name": "tokenOnSource",
          "type": "address"
        },
        {
          "components": [
            {
              "internalType": "uint256",
              "name": "ctHash",
              "type": "uint256"
            },
            {
              "internalType": "uint8",
              "name": "securityZone",
              "type": "uint8"
            },
            {
              "internalType": "uint8",
              "name": "utype",
              "type": "uint8"
            },
            {
              "internalType": "bytes",
              "name": "signature",
              "type": "bytes"
            }
          ],
          "internalType": "struct InEuint64",
          "name": "encryptedAmount",
          "type": "tuple"
        }
      ],
      "name": "payWithCredit",
      "outputs": [],
      "stateMutability": "nonpayable",
      "type": "function"
    },
    {
      "inputs": [],
      "name": "poolManager",
      "outputs": [
        {
          "internalType": "contract PoolManager",
          "name": "",
          "type": "address"
        }
      ],
      "stateMutability": "view",
      "type": "function"
    },
    {
      "inputs": [],
      "name": "renounceOwnership",
      "outputs": [],
      "stateMutability": "nonpayable",
      "type": "function"
    },
    {
      "inputs": [
        {
          "internalType": "address",
          "name": "newOwner",
          "type": "address"
        }
      ],
      "name": "transferOwnership",
      "outputs": [],
      "stateMutability": "nonpayable",
      "type": "function"
    }
  ],
  "bytecode": "0x6080346100d957601f61113538819003918201601f19168301916001600160401b038311848410176100dd5780849260409485528339810103126100d957610052602061004b836100f1565b92016100f1565b9033156100c1575f549160018060a01b03908160018060a01b03199333858716175f5560405195823391167f8be0079c531659141344cd1fd0a4f28419497f9722a3daafe3b4186f6b6457e05f80a3168360015416176001551690600254161760025561102f90816101068239f35b604051631e4fbdf760e01b81525f6004820152602490fd5b5f80fd5b634e487b7160e01b5f52604160045260245ffd5b51906001600160a01b03821682036100d95756fe6080806040526004361015610012575f80fd5b5f905f3560e01c9081631628cfa414610a675750806343646f7014610a3f5780635247e2be1461079f578063715018a6146107465780638da5cb5b1461071f578063dc4c90d3146106f6578063eb459e68146101055763f2fde38b14610076575f80fd5b346101025760203660031901126101025761008f610aaf565b610097610ea7565b6001600160a01b039081169081156100e9575f54826bffffffffffffffffffffffff60a01b8216175f55167f8be0079c531659141344cd1fd0a4f28419497f9722a3daafe3b4186f6b6457e05f80a380f35b604051631e4fbdf760e01b815260048101849052602490fd5b80fd5b50346101025760603660031901126101025761011f610aaf565b67ffffffffffffffff6024358181116106f257608060031982360301126106f2576044359082821682036104e15761016261015d3683600401610b87565b610cb3565b9233865260036020526040862060018060a01b0386165f5260205260405f20549380859186156106e2575b81156106d4575b604051926101a184610b1f565b6002845260403660208601376101b684610f05565b526101c083610f12565b52602061020a604051936101d385610b3b565b5f855261021c6040519586938493631888debd60e01b85526005600486015260126024860152608060448601526084850190610ed2565b83810360031901606485015290610ed2565b03815f73ea30c4b8b44078bbf8a6ef5b9f1ec1626c7848d95af191821561051e575f926106a0575b5085908083156105b6575b156105a8575b8615610598575b6040519261026984610b03565b60038452606036602086013761027e84610f05565b5261028883610f12565b52815160021015610584576060820152602061020a604051926102aa84610b3b565b8984526102e16040519485938493631888debd60e01b85526005600486015260046024860152608060448601526084850190610ed2565b03818a73ea30c4b8b44078bbf8a6ef5b9f1ec1626c7848d95af1908115610579578791610547575b50808515610537575b15610529575b6040519461032586610b1f565b60028652604036602088013761033a86610f05565b5261034485610f12565b52602061020a6040519561035787610b3b565b5f875261038e6040519788938493631888debd60e01b85526005600486015260076024860152608060448601526084850190610ed2565b03815f73ea30c4b8b44078bbf8a6ef5b9f1ec1626c7848d95af1801561051e5786945f916104e5575b5033855260036020526040852060018060a01b0387165f5260205260405f205533845260036020526040842060018060a01b0386165f526020526103ff3360405f2054610df7565b33845260036020526040842060018060a01b0386165f5260205261042660405f2054610e60565b6001546001600160a01b0316803b156104e15761047585809460405196879586948593631feed7ab60e21b855260018060a01b038d166004860152606060248601526064850190600401610c2b565b9116604483015203925af180156104d6576104be575b50506001600160a01b0316337ffe957bb64d91f1400fae423ee86d9131b16dae8ad2ad7e9732a012b467ac74808380a380f35b6104c790610adb565b6104d257815f61048b565b5080fd5b6040513d84823e3d90fd5b8480fd5b9450506020843d602011610516575b8161050160209383610b57565b81010312610512578593515f6103b7565b5f80fd5b3d91506104f4565b6040513d5f823e3d90fd5b50610532610f22565b610318565b9450610541610f22565b94610312565b90506020813d602011610571575b8161056260209383610b57565b8101031261051257515f610309565b3d9150610555565b6040513d89823e3d90fd5b634e487b7160e01b5f52603260045260245ffd5b90506105a2610f22565b9061025c565b506105b1610f22565b610255565b92506040516105c481610b3b565b5f8152604051906105d482610b03565b6003825260603660208401378a6105ea83610f05565b525f6105f583610f12565b528151600210156105845761020a6020915f606085015261063f6040519485938493631888debd60e01b85525f6004860152601a6024860152608060448601526084850190610ed2565b03815f73ea30c4b8b44078bbf8a6ef5b9f1ec1626c7848d95af190811561051e575f9161066e575b509261024f565b90506020813d602011610698575b8161068960209383610b57565b8101031261051257515f610667565b3d915061067c565b9091506020813d6020116106cc575b816106bc60209383610b57565b810103126105125751905f610244565b3d91506106af565b506106dd610f22565b610194565b91506106ec610f22565b9161018d565b8380fd5b50346101025780600319360112610102576001546040516001600160a01b039091168152602090f35b5034610102578060031936011261010257546040516001600160a01b039091168152602090f35b503461010257806003193601126101025761075f610ea7565b5f80546001600160a01b0319811682556001600160a01b03167f8be0079c531659141344cd1fd0a4f28419497f9722a3daafe3b4186f6b6457e08280a380f35b503461051257600319606036820112610512576107ba610aaf565b906107c3610ac5565b916044359067ffffffffffffffff821161051257608083836004019336030112610512576107f461015d3684610b87565b60025490926001600160a01b03918216803b156105125761083d5f918493836040518096819582946378ccb81760e01b8452336004850152606060248501526064840190610c2b565b9c169b8c604483015203925af1801561051e57610a2c575b508116928386526003916020809484825260408920885f52825260405f205415155f14610a0c5761091390878a5285835260408a20895f52835260405f2054908082156109fc575b156109ee575b604051916108b083610b1f565b60028352604036868501376108c483610f05565b526108ce82610f12565b52610922604051956108df87610b3b565b5f8752604051631888debd60e01b815260056004820152600860248201526080604482015296879485946084860190610ed2565b91848303016064850152610ed2565b03815f73ea30c4b8b44078bbf8a6ef5b9f1ec1626c7848d95af1801561051e575f906109bf575b61097c925085885283855260408820875f52855260405f20555b84875282845260408720865f52845260405f2054610df7565b82855281526040842090835f525261099760405f2054610e60565b337f4dd4b38bfe442efbe15fe68528895140a394fb87c75d71e7ef48b2bade803e0a8480a480f35b508382813d83116109e7575b6109d58183610b57565b810103126105125761097c9151610949565b503d6109cb565b506109f7610f22565b6108a3565b9150610a06610f22565b9161089d565b905061097c925085885283855260408820875f52855260405f2055610963565b610a37919650610adb565b5f945f610855565b34610512575f366003190112610512576002546040516001600160a01b039091168152602090f35b3461051257604036600319011261051257602090610a83610aaf565b610a8b610ac5565b9060018060a01b038091165f526003845260405f2091165f52825260405f20548152f35b600435906001600160a01b038216820361051257565b602435906001600160a01b038216820361051257565b67ffffffffffffffff8111610aef57604052565b634e487b7160e01b5f52604160045260245ffd5b6080810190811067ffffffffffffffff821117610aef57604052565b6060810190811067ffffffffffffffff821117610aef57604052565b6020810190811067ffffffffffffffff821117610aef57604052565b90601f8019910116810190811067ffffffffffffffff821117610aef57604052565b359060ff8216820361051257565b91906080838203126105125760405192610ba084610b03565b83813581526020610bb2818401610b79565b81830152610bc260408401610b79565b6040830152606083013567ffffffffffffffff9384821161051257019084601f83011215610512578135938411610aef5760405194610c0a601f8601601f1916830187610b57565b8486528185840101116105125783606094825f940183880137850101520152565b8035825260ff610c3d60208301610b79565b16602083015260ff610c5160408301610b79565b1660408301526060810135601e19823603018112156105125701906020823592019167ffffffffffffffff8111610512578036038313610512578060a09360806060850152816080850152848401375f828201840152601f01601f1916010190565b60409060ff828201511660058103610dd95750606060ff91835190610cd782610b03565b5f825282602093835f86809601525f88820152015260e48151836060878286015116940151885192610d0884610b03565b83528183019485528789840160058152606085019283528a51998a9788966313fce3b160e11b88528d6004890152516044880152511660648601525116608484015251608060a484015280519182918260c4860152018484015e5f838284010152336024830152601f801991011681010301815f73ea30c4b8b44078bbf8a6ef5b9f1ec1626c7848d95af1928315610dd057505f92610da657505090565b90809250813d8311610dc9575b610dbd8183610b57565b81010312610512575190565b503d610db3565b513d5f823e3d90fd5b6044908351906367cf307160e01b8252600482015260056024820152fd5b73ea30c4b8b44078bbf8a6ef5b9f1ec1626c7848d991823b1561051257604051631974142760e21b815260048101929092526001600160a01b03166024820152905f908290818381604481015b03925af1801561051e57610e555750565b610e5e90610adb565b565b73ea30c4b8b44078bbf8a6ef5b9f1ec1626c7848d9803b1561051257604051631974142760e21b815260048101929092523060248301525f90829081838160448101610e44565b5f546001600160a01b03163303610eba57565b60405163118cdaa760e01b8152336004820152602490fd5b9081518082526020808093019301915f5b828110610ef1575050505090565b835185529381019392810192600101610ee3565b8051156105845760200190565b8051600110156105845760400190565b604051610f2e81610b3b565b5f815260405190610f3e82610b03565b6003825260603660208401375f610f5483610f05565b526005610f6083610f12565b528151600210156105845761020a6020915f6060850152610fab6040519485938493631888debd60e01b855260056004860152601a6024860152608060448601526084850190610ed2565b03815f73ea30c4b8b44078bbf8a6ef5b9f1ec1626c7848d95af190811561051e575f91610fd6575090565b90506020813d602011610ff1575b81610dbd60209383610b57565b3d9150610fe456fea264697066735822122055d5aa63f4a909a3f2b01a380c0b3b661a6cc849a79fe69a9ec510e78324ba2964736f6c63430008190033",
  "linkReferences": {},
  "deployedLinkReferences": {}
}