{
  "_format": "hh-sol-artifact-1",
  "contractName": "PoolManager",
  "sourceName": "contracts/PoolManager.sol",
  "abi": [
    {
      "inputs": [
        {
          "internalType": "address",
          "name": "_verifier",
          "type": "address"
        }
      ],
      "stateMutability": "nonpayable",
      "type": "constructor"
    },
    {
      "inputs": [
        {
          "internalType": "uint8",
          "name": "got",
          "type": "uint8"
        },
        {
          "internalType": "uint8",
          "name": "expected",
          "type": "uint8"
        }
      ],
      "name": "InvalidEncryptedInput",
      "type": "error"
    },
    {
      "inputs": [
        {
          "internalType": "address",
          "name": "owner",
          "type": "address"
        }
      ],
      "name": "OwnableInvalidOwner",
      "type": "error"
    },
    {
      "inputs": [
        {
          "internalType": "address",
          "name": "account",
          "type": "address"
        }
      ],
      "name": "OwnableUnauthorizedAccount",
      "type": "error"
    },
    {
      "inputs": [],
      "name": "ReentrancyGuardReentrantCall",
      "type": "error"
    },
    {
      "inputs": [
        {
          "internalType": "int32",
          "name": "value",
          "type": "int32"
        }
      ],
      "name": "SecurityZoneOutOfBounds",
      "type": "error"
    },
    {
      "anonymous": false,
      "inputs": [
        {
          "indexed": true,
          "internalType": "address",
          "name": "user",
          "type": "address"
        },
        {
          "indexed": true,
          "internalType": "address",
          "name": "tokenOnSource",
          "type": "address"
        },
        {
          "indexed": false,
          "internalType": "uint256",
          "name": "amount",
          "type": "uint256"
        }
      ],
      "name": "LiquidityAdded",
      "type": "event"
    },
    {
      "anonymous": false,
      "inputs": [
        {
          "indexed": true,
          "internalType": "address",
          "name": "user",
          "type": "address"
        },
        {
          "indexed": true,
          "internalType": "address",
          "name": "token",
          "type": "address"
        },
        {
          "indexed": false,
          "internalType": "uint256",
          "name": "amount",
          "type": "uint256"
        }
      ],
      "name": "LiquiditySlashed",
      "type": "event"
    },
    {
      "anonymous": false,
      "inputs": [
        {
          "indexed": true,
          "internalType": "address",
          "name": "user",
          "type": "address"
        },
        {
          "indexed": true,
          "internalType": "address",
          "name": "tokenOnSource",
          "type": "address"
        },
        {
          "indexed": false,
          "internalType": "uint256",
          "name": "amount",
          "type": "uint256"
        }
      ],
      "name": "LiquidityWithdrawn",
      "type": "event"
    },
    {
      "anonymous": false,
      "inputs": [
        {
          "indexed": true,
          "internalType": "address",
          "name": "previousOwner",
          "type": "address"
        },
        {
          "indexed": true,
          "internalType": "address",
          "name": "newOwner",
          "type": "address"
        }
      ],
      "name": "OwnershipTransferred",
      "type": "event"
    },
    {
      "anonymous": false,
      "inputs": [
        {
          "indexed": true,
          "internalType": "uint64",
          "name": "chainId",
          "type": "uint64"
        },
        {
          "indexed": true,
          "internalType": "address",
          "name": "vault",
          "type": "address"
        },
        {
          "indexed": true,
          "internalType": "address",
          "name": "token",
          "type": "address"
        },
        {
          "indexed": false,
          "internalType": "bool",
          "name": "status",
          "type": "bool"
        }
      ],
      "name": "SourceChainConfigured",
      "type": "event"
    },
    {
      "anonymous": false,
      "inputs": [
        {
          "indexed": true,
          "internalType": "address",
          "name": "token",
          "type": "address"
        },
        {
          "indexed": false,
          "internalType": "bool",
          "name": "status",
          "type": "bool"
        }
      ],
      "name": "TokenWhitelisted",
      "type": "event"
    },
    {
      "anonymous": false,
      "inputs": [
        {
          "indexed": true,
          "internalType": "address",
          "name": "user",
          "type": "address"
        },
        {
          "indexed": true,
          "internalType": "address",
          "name": "tokenOnSource",
          "type": "address"
        },
        {
          "indexed": false,
          "internalType": "uint256",
          "name": "amount",
          "type": "uint256"
        },
        {
          "indexed": false,
          "internalType": "uint256",
          "name": "nonce",
          "type": "uint256"
        },
        {
          "indexed": false,
          "internalType": "uint64",
          "name": "destChainId",
          "type": "uint64"
        }
      ],
      "name": "WithdrawalAuthorized",
      "type": "event"
    },
    {
      "anonymous": false,
      "inputs": [
        {
          "indexed": true,
          "internalType": "address",
          "name": "user",
          "type": "address"
        },
        {
          "indexed": false,
          "internalType": "uint256",
          "name": "amount",
          "type": "uint256"
        }
      ],
      "name": "WithdrawalFinalized",
      "type": "event"
    },
    {
      "anonymous": false,
      "inputs": [
        {
          "indexed": true,
          "internalType": "address",
          "name": "user",
          "type": "address"
        },
        {
          "indexed": false,
          "internalType": "bytes32",
          "name": "handle",
          "type": "bytes32"
        },
        {
          "indexed": false,
          "internalType": "uint256",
          "name": "nonce",
          "type": "uint256"
        }
      ],
      "name": "WithdrawalRequested",
      "type": "event"
    },
    {
      "inputs": [],
      "name": "TRANSFER_EVENT_SIGNATURE",
      "outputs": [
        {
          "internalType": "bytes32",
          "name": "",
          "type": "bytes32"
        }
      ],
      "stateMutability": "view",
      "type": "function"
    },
    {
      "inputs": [],
      "name": "VERIFIER",
      "outputs": [
        {
          "internalType": "contract INativeQueryVerifier",
          "name": "",
          "type": "address"
        }
      ],
      "stateMutability": "view",
      "type": "function"
    },
    {
      "inputs": [
        {
          "internalType": "uint64",
          "name": "chainKey",
          "type": "uint64"
        },
        {
          "internalType": "uint64",
          "name": "blockHeight",
          "type": "uint64"
        },
        {
          "internalType": "bytes",
          "name": "encodedTransaction",
          "type": "bytes"
        },
        {
          "internalType": "bytes32",
          "name": "merkleRoot",
          "type": "bytes32"
        },
        {
          "components": [
            {
              "internalType": "bytes32",
              "name": "hash",
              "type": "bytes32"
            },
            {
              "internalType": "bool",
              "name": "isLeft",
              "type": "bool"
            }
          ],
          "internalType": "struct INativeQueryVerifier.MerkleProofEntry[]",
          "name": "siblings",
          "type": "tuple[]"
        },
        {
          "internalType": "bytes32",
          "name": "lowerEndpointDigest",
          "type": "bytes32"
        },
        {
          "internalType": "bytes32[]",
          "name": "continuityRoots",
          "type": "bytes32[]"
        }
      ],
      "name": "addLiquidityFromProof",
      "outputs": [],
      "stateMutability": "nonpayable",
      "type": "function"
    },
    {
      "inputs": [
        {
          "internalType": "address",
          "name": "token",
          "type": "address"
        },
        {
          "internalType": "euint64",
          "name": "amount",
          "type": "bytes32"
        }
      ],
      "name": "distributeInterest",
      "outputs": [],
      "stateMutability": "nonpayable",
      "type": "function"
    },
    {
      "inputs": [
        {
          "internalType": "uint256",
          "name": "nonce",
          "type": "uint256"
        },
        {
          "internalType": "uint64",
          "name": "clearAmount",
          "type": "uint64"
        },
        {
          "internalType": "bytes",
          "name": "signature",
          "type": "bytes"
        }
      ],
      "name": "finalizeWithdrawal",
      "outputs": [],
      "stateMutability": "nonpayable",
      "type": "function"
    },
    {
      "inputs": [
        {
          "internalType": "address",
          "name": "user",
          "type": "address"
        },
        {
          "internalType": "address",
          "name": "token",
          "type": "address"
        }
      ],
      "name": "getAssetBalance",
      "outputs": [
        {
          "internalType": "euint64",
          "name": "",
          "type": "bytes32"
        }
      ],
      "stateMutability": "nonpayable",
      "type": "function"
    },
    {
      "inputs": [
        {
          "internalType": "address",
          "name": "user",
          "type": "address"
        },
        {
          "internalType": "address",
          "name": "token",
          "type": "address"
        }
      ],
      "name": "getLpShares",
      "outputs": [
        {
          "internalType": "euint64",
          "name": "",
          "type": "bytes32"
        }
      ],
      "stateMutability": "view",
      "type": "function"
    },
    {
      "inputs": [
        {
          "internalType": "address",
          "name": "token",
          "type": "address"
        }
      ],
      "name": "getPoolLiquidity",
      "outputs": [
        {
          "internalType": "uint64",
          "name": "",
          "type": "uint64"
        }
      ],
      "stateMutability": "view",
      "type": "function"
    },
    {
      "inputs": [
        {
          "internalType": "address",
          "name": "user",
          "type": "address"
        }
      ],
      "name": "getUserTotalCollateral",
      "outputs": [
        {
          "internalType": "euint64",
          "name": "",
          "type": "bytes32"
        }
      ],
      "stateMutability": "nonpayable",
      "type": "function"
    },
    {
      "inputs": [
        {
          "internalType": "address",
          "name": "",
          "type": "address"
        }
      ],
      "name": "isTokenWhitelisted",
      "outputs": [
        {
          "internalType": "bool",
          "name": "",
          "type": "bool"
        }
      ],
      "stateMutability": "view",
      "type": "function"
    },
    {
      "inputs": [],
      "name": "loanEngine",
      "outputs": [
        {
          "internalType": "address",
          "name": "",
          "type": "address"
        }
      ],
      "stateMutability": "view",
      "type": "function"
    },
    {
      "inputs": [],
      "name": "owner",
      "outputs": [
        {
          "internalType": "address",
          "name": "",
          "type": "address"
        }
      ],
      "stateMutability": "view",
      "type": "function"
    },
    {
      "inputs": [
        {
          "internalType": "uint256",
          "name": "",
          "type": "uint256"
        }
      ],
      "name": "pendingWithdrawals",
      "outputs": [
        {
          "internalType": "euint64",
          "name": "amount",
          "type": "bytes32"
        },
        {
          "internalType": "address",
          "name": "tokenOnSource",
          "type": "address"
        },
        {
          "internalType": "uint64",
          "name": "destChainId",
          "type": "uint64"
        },
        {
          "internalType": "bool",
          "name": "active",
          "type": "bool"
        }
      ],
      "stateMutability": "view",
      "type": "function"
    },
    {
      "inputs": [
        {
          "internalType": "address",
          "name": "",
          "type": "address"
        }
      ],
      "name": "pools",
      "outputs": [
        {
          "internalType": "uint64",
          "name": "totalLiquidity",
          "type": "uint64"
        },
        {
          "internalType": "uint64",
          "name": "totalShares",
          "type": "uint64"
        },
        {
          "internalType": "address",
          "name": "tokenOnSource",
          "type": "address"
        },
        {
          "internalType": "bool",
          "name": "isInitialized",
          "type": "bool"
        }
      ],
      "stateMutability": "view",
      "type": "function"
    },
    {
      "inputs": [
        {
          "internalType": "bytes32",
          "name": "",
          "type": "bytes32"
        }
      ],
      "name": "processedQueries",
      "outputs": [
        {
          "internalType": "bool",
          "name": "",
          "type": "bool"
        }
      ],
      "stateMutability": "view",
      "type": "function"
    },
    {
      "inputs": [],
      "name": "renounceOwnership",
      "outputs": [],
      "stateMutability": "nonpayable",
      "type": "function"
    },
    {
      "inputs": [
        {
          "internalType": "address",
          "name": "tokenOnSource",
          "type": "address"
        },
        {
          "components": [
            {
              "internalType": "uint256",
              "name": "ctHash",
              "type": "uint256"
            },
            {
              "internalType": "uint8",
              "name": "securityZone",
              "type": "uint8"
            },
            {
              "internalType": "uint8",
              "name": "utype",
              "type": "uint8"
            },
            {
              "internalType": "bytes",
              "name": "signature",
              "type": "bytes"
            }
          ],
          "internalType": "struct InEuint64",
          "name": "encryptedAmount",
          "type": "tuple"
        },
        {
          "internalType": "uint64",
          "name": "destChainId",
          "type": "uint64"
        }
      ],
      "name": "requestWithdrawal",
      "outputs": [],
      "stateMutability": "nonpayable",
      "type": "function"
    },
    {
      "inputs": [
        {
          "internalType": "address",
          "name": "_loanEngine",
          "type": "address"
        }
      ],
      "name": "setLoanEngine",
      "outputs": [],
      "stateMutability": "nonpayable",
      "type": "function"
    },
    {
      "inputs": [
        {
          "internalType": "uint64",
          "name": "chainId",
          "type": "uint64"
        },
        {
          "internalType": "address",
          "name": "vault",
          "type": "address"
        },
        {
          "internalType": "address",
          "name": "token",
          "type": "address"
        },
        {
          "internalType": "bool",
          "name": "status",
          "type": "bool"
        }
      ],
      "name": "setSourceParams",
      "outputs": [],
      "stateMutability": "nonpayable",
      "type": "function"
    },
    {
      "inputs": [
        {
          "internalType": "address",
          "name": "token",
          "type": "address"
        },
        {
          "internalType": "bool",
          "name": "status",
          "type": "bool"
        }
      ],
      "name": "setWhitelistedToken",
      "outputs": [],
      "stateMutability": "nonpayable",
      "type": "function"
    },
    {
      "inputs": [
        {
          "internalType": "address",
          "name": "user",
          "type": "address"
        },
        {
          "internalType": "address",
          "name": "token",
          "type": "address"
        },
        {
          "internalType": "euint64",
          "name": "amount",
          "type": "bytes32"
        }
      ],
      "name": "slashLiquidity",
      "outputs": [],
      "stateMutability": "nonpayable",
      "type": "function"
    },
    {
      "inputs": [
        {
          "internalType": "uint64",
          "name": "",
          "type": "uint64"
        }
      ],
      "name": "sourceVaults",
      "outputs": [
        {
          "internalType": "address",
          "name": "",
          "type": "address"
        }
      ],
      "stateMutability": "view",
      "type": "function"
    },
    {
      "inputs": [
        {
          "components": [
            {
              "internalType": "uint256",
              "name": "ctHash",
              "type": "uint256"
            },
            {
              "internalType": "uint8",
              "name": "securityZone",
              "type": "uint8"
            },
            {
              "internalType": "uint8",
              "name": "utype",
              "type": "uint8"
            },
            {
              "internalType": "bytes",
              "name": "signature",
              "type": "bytes"
            }
          ],
          "internalType": "struct InEuint64",
          "name": "encryptedAmount",
          "type": "tuple"
        }
      ],
      "name": "supply",
      "outputs": [],
      "stateMutability": "nonpayable",
      "type": "function"
    },
    {
      "inputs": [
        {
          "internalType": "address",
          "name": "token",
          "type": "address"
        },
        {
          "components": [
            {
              "internalType": "uint256",
              "name": "ctHash",
              "type": "uint256"
            },
            {
              "internalType": "uint8",
              "name": "securityZone",
              "type": "uint8"
            },
            {
              "internalType": "uint8",
              "name": "utype",
              "type": "uint8"
            },
            {
              "internalType": "bytes",
              "name": "signature",
              "type": "bytes"
            }
          ],
          "internalType": "struct InEuint64",
          "name": "encryptedAmount",
          "type": "tuple"
        },
        {
          "internalType": "uint64",
          "name": "clearAmount",
          "type": "uint64"
        }
      ],
      "name": "supply",
      "outputs": [],
      "stateMutability": "nonpayable",
      "type": "function"
    },
    {
      "inputs": [
        {
          "internalType": "address",
          "name": "newOwner",
          "type": "address"
        }
      ],
      "name": "transferOwnership",
      "outputs": [],
      "stateMutability": "nonpayable",
      "type": "function"
    },
    {
      "inputs": [
        {
          "internalType": "uint64",
          "name": "",
          "type": "uint64"
        },
        {
          "internalType": "address",
          "name": "",
          "type": "address"
        }
      ],
      "name": "whitelistedSourceTokens",
      "outputs": [
        {
          "internalType": "bool",
          "name": "",
          "type": "bool"
        }
      ],
      "stateMutability": "view",
      "type": "function"
    },
    {
      "inputs": [
        {
          "internalType": "uint256",
          "name": "",
          "type": "uint256"
        }
      ],
      "name": "whitelistedTokens",
      "outputs": [
        {
          "internalType": "address",
          "name": "",
          "type": "address"
        }
      ],
      "stateMutability": "view",
      "type": "function"
    },
    {
      "inputs": [],
      "name": "withdrawalNonce",
      "outputs": [
        {
          "internalType": "uint256",
          "name": "",
          "type": "uint256"
        }
      ],
      "stateMutability": "view",
      "type": "function"
    }
  ],
  "bytecode": "0x60a0346100e257601f612e9a38819003918201601f19168301916001600160401b038311848410176100e6578084926020946040528339810103126100e257516001600160a01b03808216918290036100e25733156100ca575f8054336001600160a01b03198216811783559216907f8be0079c531659141344cd1fd0a4f28419497f9722a3daafe3b4186f6b6457e09080a360018055806100c25750610fd26080525b604051612d9f90816100fb8239608051818181610be60152611dae0152f35b6080526100a3565b604051631e4fbdf760e01b81525f6004820152602490fd5b5f80fd5b634e487b7160e01b5f52604160045260245ffdfe6080806040526004361015610012575f80fd5b5f905f3560e01c90816308c84e7014611d9c575080630d8f21be14611d005780632154bc4414611cbe5780633146f5d314611bf457806331ae38a7146119f857806333cc99ab146119c95780633f274d231461198857806343646f701461195f5780634d5692d71461191c5780635632d1ac146118e95780635735117a146118a9578063715018a61461185057806376ce28f11461178f5780637b259db4146117715780637e89334f1461173c5780637fbb5eac146114d95780638d58ac83146109605780638da5cb5b146109395780639592db19146106db578063a4063dbc1461066e578063b5af090f1461062f578063c45a284a146105e2578063cf4b6b7914610412578063e6150400146103b4578063eab15c4214610379578063eedad82714610320578063f2fde38b146102985763fad9570d14610152575f80fd5b346102955760603660031901126102955761016b611ddd565b610173611df3565b7fce1faa91212d49816af57dd1266050bfa9118589bd074312686a7411b09e70ef60018060a01b0380926101ac82600254163314612063565b169283855261026e6020916003835261023f61022a61023960408a20976101dc60ff60018b015460a01c16612194565b841697888b526004875260408b208a5f52875260405f20549283916102246001600160401b0361021c61021482855460401c16612d33565b60443561271f565b925416612d33565b906127c2565b6102348183612986565b612a29565b90612bc1565b8588526004845260408820875f52845260405f20558487526004835260408720865f52835260405f2054612621565b8285526004815260408520845f52815261028b60405f205461268a565b604051858152a380f35b80fd5b5034610295576020366003190112610295576102b2611ddd565b6102ba6126d1565b6001600160a01b03908116908115610307575f54826001600160601b0360a01b8216175f55167f8be0079c531659141344cd1fd0a4f28419497f9722a3daafe3b4186f6b6457e05f80a380f35b604051631e4fbdf760e01b815260048101849052602490fd5b503461029557604036600319011261029557604061033c611e3e565b916001600160401b0361034d611df3565b931681526006602052209060018060a01b03165f52602052602060ff60405f2054166040519015158152f35b503461029557806003193601126102955760206040517fddf252ad1be2c89b69c2b068fc378daa952ba7f163c4a11628f55a4df523b3ef8152f35b50346102955760203660031901126102955760406080916004358152600b6020522060ff6001825492015460405192835260018060a01b03811660208401526001600160401b038160a01c16604084015260e01c1615156060820152f35b5034610295576104536104587f9d278c56ba6dc86a12eefe6b43112bd6e06648eb4ec0b950ee2d783d40e2acb461044836611e97565b9391949036906121df565b612865565b9260018060a01b03811693845f5260209160038352600160405f2001805460ff8160a01c1615610590575b505050335f526004825260405f20855f52825260405f205415155f14610576576104c190335f526004835260405f20865f52835260405f2054612512565b335f526004825260405f20855f52825260405f20555b835f526003815260405f208054906001600160401b0391826104fb878284166124f7565b16906001600160401b031916179055845f526003825261052e60405f206105288684835460401c166124f7565b9061203b565b335f526004825260405f20855f52825261054c3360405f2054612621565b335f526004825260405f20855f52825261056960405f205461268a565b604051931683523392a380f35b335f526004825260405f20855f52825260405f20556104d7565b6001600160a81b0319168717600160a01b1790556009835260405f205460ff16156105bd575b8080610483565b6105c6906120a1565b5f8581526009835260408120805460ff191660011790556105b6565b5034610295576040366003190112610295576105fc611ddd565b6040610606611df3565b9260018060a01b03809316815260046020522091165f52602052602060405f2054604051908152f35b50346102955760203660031901126102955760209060ff906040906001600160a01b0361065a611ddd565b168152600984522054166040519015158152f35b5034610295576020366003190112610295576080906001600160a01b039060ff906040908361069b611ddd565b16815260036020522080549260016001600160401b039201549160405194818116865260401c1660208501528116604084015260a01c1615156060820152f35b5034610295576003196020368201811361093557600435916001600160401b039081841161093157608090843603011261092d57600854158061091f5761090b5760085f527ff3f7a9fe364faab93b216da50a3214154f22a0a2b415b23a84c8169e8b636ee3546001600160a01b03169261075f90610453905b36906004016121df565b60018060a01b03841693845f5260038452600160405f2001805460ff8160a01c16156108b9575b505050335f526004835260405f20845f52835260405f205415155f1461089f576107c490335f526004845260405f20855f52845260405f2054612512565b335f526004835260405f20845f52835260405f20555b825f526003825260405f2080548281169083821161088b576001600160401b031916179055825f526003825260405f209080825460401c1690811161088b576108229161203b565b335f526004815260405f20825f5281526108403360405f2054612621565b335f526004815260405f20825f52815261085d60405f205461268a565b7f9d278c56ba6dc86a12eefe6b43112bd6e06648eb4ec0b950ee2d783d40e2acb4604051915f83523392a380f35b634e487b7160e01b5f52601160045260245ffd5b335f526004835260405f20845f52835260405f20556107da565b6001600160a81b0319168617600160a01b1790556009845260405f205460ff16156108e6575b8080610786565b6108ef906120a1565b5f8481526009845260408120805460ff191660011790556108df565b634e487b7160e01b5f52603260045260245ffd5b5061075f6104538594610755565b8380fd5b8480fd5b8280fd5b5034610295578060031936011261029557546040516001600160a01b039091168152602090f35b50346102955760e03660031901126102955761097a611e3e565b610982611e54565b6044356001600160401b03811161092d576109a1903690600401611e6a565b608435926001600160401b0384116111815736602385011215611181576001600160401b0384600401351161118157366024856004013560061b86010111611181576001600160401b0360c435116111815736602360c435011215611181576001600160401b0360c43560040135116111815736602460c4356004013560051b60c43501011161118157610a336126fc565b610a453685600401356024870161226e565b80518791815b611463575050604051906001600160401b0360c01b808860c01b1660208401528360c01b166028830152603082015260308152610a8781611f49565b6020815191012093848752600560205260ff60408820541661141e57610ac860405191610ab383611f2e565b6064358352369060248160040135910161226e565b6020820152604051610ad981611f2e565b60a4358152610aed60c43560040135612257565b610afa6040519182611f7f565b60c43560048101358252602401602082015b602460c4356004013560051b60c4350101821061140e57505060208201526040516302f4d16760e01b81526001600160401b03888116600483015293909316602484015260a06044840152829190610b6860a4840186886122ed565b9160031984840301606485015260206060816040860193805187520151946040838201528551809452019301908a5b8181106113e7575050506003198383030160848401526020606081604085019380518652015193604083820152845180945201920190895b8181106113ce5750602093928390039150829050897f00000000000000000000000000000000000000000000000000000000000000006001600160a01b03165af19081156113c3578691611388575b5015611343576040516306eae3bf60e11b81526020600482015291859183918291610c4e916024840191906122ed565b038173__$eb2e2f684bffbc36e7cf45ce0012b95bdf$__5af4908115611185578491611270575b50600160ff8251160361122057836040518092635401482560e01b82526040600483015260c482019060ff81511660448401526001600160401b03602082015116606484015260408101519160806084850152825180915260e4840190602060e48260051b87010194019186905b8282106111905750505050606001518282036043190160a48401528291610d0991612492565b7fddf252ad1be2c89b69c2b068fc378daa952ba7f163c4a11628f55a4df523b3ef6024830152038173__$eb2e2f684bffbc36e7cf45ce0012b95bdf$__5af4908115611185578491611144575b508051156110ff576001600160401b03831684526007602052604084205484936001600160a01b039091169182156110ba57855b81518110156110b0576001600160a01b03610da582846124e3565b5151166001600160401b0384168852600660205260408820815f5260205260ff60405f205416610dd9575b50600101610d8a565b60036020610de784866124e3565b510151510361107a576001600160a01b03610e0f6020610e0785876124e3565b5101516124b6565b511690856001600160a01b03610e326020610e2a87896124e3565b5101516124c6565b511614610e3f5750610dd0565b945094955060409250610e51916124e3565b510151602081805181010312611076576020015191610ed16001600160401b0380851684885260036020526040882090600182019060ff825460a01c16155f146110295780610ea9919381861982541617815561203b565b805460ff60a01b1916600160a01b1781555b80546001600160a01b0319168617905516612d33565b818652600460205260408620835f5260205260405f205415155f1461100d57610f1090828752600460205260408720845f5260205260405f2054612512565b818652600460205260408620835f5260205260405f20555b808552600460205260408520825f52602052610f488160405f2054612621565b808552600460205260408520825f52602052610f6760405f205461268a565b7f9d278c56ba6dc86a12eefe6b43112bd6e06648eb4ec0b950ee2d783d40e2acb46020600194604051908152a35b15610fb7578152600560205260408120600160ff198254161790556001805580f35b60405162461bcd60e51b815260206004820152602860248201527f4e6f2076616c6964206465706f73697420746f204c69717569646974795661756044820152671b1d08199bdd5b9960c21b6064820152608490fd5b818652600460205260408620835f5260205260405f2055610f28565b9180610528611071925486611043818360401c1688611ff1565b918161105f816110568185168097612004565b16998a956124f7565b16908219161780855560401c166124f7565b610ebb565b5f80fd5b60405162461bcd60e51b815260206004820152600e60248201526d496e76616c696420746f7069637360901b6044820152606490fd5b5050505090610f95565b60405162461bcd60e51b815260206004820152601b60248201527f536f7572636520636861696e206e6f7420636f6e6669677572656400000000006044820152606490fd5b60405162461bcd60e51b815260206004820152601860248201527f4e6f205472616e73666572206576656e747320666f756e6400000000000000006044820152606490fd5b90503d8085833e6111558183611f7f565b81016020828203126109315781516001600160401b0381116111815761117b9201612353565b5f610d56565b8580fd5b6040513d86823e3d90fd5b9296509294509260e319878203018252855190606081019160018060a01b0381511682526020810151926060602084015283518091526020608084019401908d5b81811061120a575050506111f8600193602093604085940151906040818403910152612492565b97019201920192899593879593610ce3565b82518652602095860195909201916001016111d1565b60405162461bcd60e51b815260206004820152602260248201527f5472616e73616374696f6e206661696c6564206f6e20736f757263652063686160448201526134b760f11b6064820152608490fd5b90503d8085833e6112818183611f7f565b6020828281010312610931578151916001600160401b038311611181576080838201838301031261118157604051926112b984611f13565b8082015160ff8116810361133f578452602081830101516001600160401b038116810361133f576020850152604081830101516001600160401b03811161133f5761130b908484019083850101612353565b604085015260608183010151906001600160401b03821161133f5761133493830192010161230d565b60608201525f610c75565b8780fd5b60405162461bcd60e51b815260206004820152601a60248201527f4e617469766520766572696669636174696f6e206661696c65640000000000006044820152606490fd5b90506020813d6020116113bb575b816113a360209383611f7f565b8101031261118157518015158103611181575f610c1e565b3d9150611396565b6040513d88823e3d90fd5b8251845285945060209384019390920191600101610bcf565b82518051865260209081015115158187015287965060409095019490920191600101610b97565b8135815260209182019101610b0c565b60405162461bcd60e51b815260206004820152601d60248201527f5472616e73616374696f6e20616c72656164792070726f6365737365640000006044820152606490fd5b9091808060011b04600214811517156114bd57825f198101116114bd57602061148f5f198501846124e3565b510151156114d15760ff60015b168160011b01809160011b116114bd579180156114bd575f19019081610a4b565b634e487b7160e01b89526011600452602489fd5b60ff8961149c565b5034610295576114e836611e97565b6114f39291926126fc565b60018060a01b0380831680865260209160038352611546604088209561153b61153461045360019a61152d60ff8d8d015460a01c16612194565b36906121df565b91336120e3565b906102348183612986565b9461158c6115726001600160401b03926102248461021c61156c82855460401c16612d33565b8c61271f565b338a526004865260408a20855f52865260405f2054612bc1565b3389526004855260408920845f52855260405f20553388526004845260408820835f5284526115bf3360405f2054612621565b3388526004845260408820835f5284526115dc60405f205461268a565b600a54945f1986146114bd57878601600a556040516115fa81611f13565b8781528581019285845260408201921693848352896060830192818452898d52600b895260408d2090518155019351168354926001600160401b0360a01b905160a01b169160ff60e01b9051151560e01b169262ffffff60e81b1617171790556116638561268a565b8673ea30c4b8b44078bbf8a6ef5b9f1ec1626c7848d9803b1561173857818091602460405180948193631a778f2d60e11b83528c60048401525af1801561172d57611715575b505060405190878252848483015260408201527e0e48698e82158538114101d7b79ba88c651d7f3a55a6a866e14c51f64f8c7560603392a36040519283528201527f28d3ba177a7c99306ee6c7d14fa16121195fbdada05ba08c9cebde006fd9057660403392a2805580f35b61171e90611eec565b61172957865f6116a9565b8680fd5b6040513d84823e3d90fd5b5080fd5b503461029557604036600319011261029557602061176961175b611ddd565b611763611df3565b906120e3565b604051908152f35b50346102955780600319360112610295576020600a54604051908152f35b5034610295576040366003190112610295576117a9611ddd565b6024359081151590818303611076577fef81a9943b96c8df4ef243401c9bf5159146166211356898b52d382086168d92916118196020926117e86126d1565b8580611831575b611823575b60018060a01b03169485875260098452604087209060ff801983541691151516179055565b604051908152a280f35b61182c816120a1565b6117f4565b506001600160a01b038116875260098452604087205460ff16156117ef565b50346102955780600319360112610295576118696126d1565b5f80546001600160a01b0319811682556001600160a01b03167f8be0079c531659141344cd1fd0a4f28419497f9722a3daafe3b4186f6b6457e08280a380f35b5034610295576020366003190112610295576118c3611ddd565b6118cb6126d1565b60018060a01b03166001600160601b0360a01b600254161760025580f35b503461029557604036600319011261029557611903611ddd565b5061191960018060a01b03600254163314612063565b80f35b5034610295576020366003190112610295576020906001600160401b03906040906001600160a01b0361194d611ddd565b16815260038452205416604051908152f35b50346102955780600319360112610295576002546040516001600160a01b039091168152602090f35b5034610295576020366003190112610295576020906001600160401b036119ad611e3e565b16815260078252604060018060a01b0391205416604051908152f35b50346102955760203660031901126102955760ff60406020926004358152600584522054166040519015158152f35b503461107657606036600319011261107657611a12611e54565b6001600160401b039060443582811161107657611a33903690600401611e6a565b92611a3c6126fc565b6004355f52600b60205260405f20600181019260ff845460e01c1615611bc257611a699154953691611fbb565b8184169473ea30c4b8b44078bbf8a6ef5b9f1ec1626c7848d991823b1561107657611ac0925f9283604051809681958294631868370160e01b845260048401528c6024840152606060448401526064830190612492565b03925af18015611bb757611ba4575b5081549260ff60e01b198416835560018060a01b03809416865260036020526040862091611b26611b208783611b19875482611b11818360401c168096611ff1565b911690612004565b1690612022565b8461203b565b611b34835492828416612022565b16906001600160401b03191617905554166040518281527f83aa598dd3e269af677698c6847b3ba594a67d286a771d01099aafa911a91b6460203392a36040519081527f9e5c4f9f4e46b8629d3dda85f43a69194f50254404a72dc62b9e932d9c94eda860203392a26001805580f35b611baf919550611eec565b5f935f611acf565b6040513d5f823e3d90fd5b60405162461bcd60e51b815260206004820152600a6024820152694e6f742061637469766560b01b6044820152606490fd5b3461107657608036600319011261107657611c0d611e3e565b611c15611df3565b6001600160a01b0360443581811693908490036110765760643580151580820361107657611cb56020926001600160401b037fd99364c9510dda989a9ade175a932d6dd9c5e5ca46b63f4cd7fec96a0a7fcf1295611c716126d1565b1695865f526007855260405f20971696876001600160601b0360a01b8254161790556006845260405f20885f52845260405f209060ff801983541691151516179055565b604051908152a4005b346110765760203660031901126110765760043560085481101561107657611ce7602091611e09565b905460405160039290921b1c6001600160a01b03168152f35b346110765760208060031936011261107657611d1a611ddd565b611d22612cca565b915f5b600854811015611d8657611d3881611e09565b905460039190911b1c6001600160a01b03165f81815260098452604090205460ff16611d68575b50600101611d25565b60019194611d79611d7f92866120e3565b90612512565b9390611d5f565b602084611d933382612621565b6117698161268a565b34611076575f366003190112611076577f00000000000000000000000000000000000000000000000000000000000000006001600160a01b03168152602090f35b600435906001600160a01b038216820361107657565b602435906001600160a01b038216820361107657565b60085481101561090b5760085f527ff3f7a9fe364faab93b216da50a3214154f22a0a2b415b23a84c8169e8b636ee301905f90565b600435906001600160401b038216820361107657565b602435906001600160401b038216820361107657565b9181601f84011215611076578235916001600160401b038311611076576020838186019501011161107657565b9060031990606082840112611076576004356001600160a01b03811681036110765792602435906001600160401b03938483116110765782608092030112611076576004019160443590811681036110765790565b6001600160401b038111611eff57604052565b634e487b7160e01b5f52604160045260245ffd5b608081019081106001600160401b03821117611eff57604052565b604081019081106001600160401b03821117611eff57604052565b606081019081106001600160401b03821117611eff57604052565b602081019081106001600160401b03821117611eff57604052565b90601f801991011681019081106001600160401b03821117611eff57604052565b6001600160401b038111611eff57601f01601f191660200190565b929192611fc782611fa0565b91611fd56040519384611f7f565b829481845281830111611076578281602093845f960137010152565b8181029291811591840414171561088b57565b811561200e570490565b634e487b7160e01b5f52601260045260245ffd5b6001600160401b03918216908216039190821161088b57565b9067ffffffffffffffff60401b82549160401b169067ffffffffffffffff60401b1916179055565b1561206a57565b60405162461bcd60e51b815260206004820152600f60248201526e4f6e6c79204c6f616e456e67696e6560881b6044820152606490fd5b60085468010000000000000000811015611eff578060016120c59201600855611e09565b60018060a09493941b038084549260031b9316831b921b1916179055565b6001600160a01b039182165f81815260036020526040902060018101549293909260a01c60ff1615801561217f575b6121735761215d93165f52600460205260405f20905f5260205261022460405f20546121526001600160401b039161214c83865416612d33565b9061271f565b925460401c16612d33565b6121673382612621565b6121708161268a565b90565b50505050612170612cca565b506001600160401b03835460401c1615612112565b1561219b57565b60405162461bcd60e51b815260206004820152600e60248201526d141bdbdb081b9bdd08199bdd5b9960921b6044820152606490fd5b359060ff8216820361107657565b919060808382031261107657604051906121f882611f13565b81938035835261220a602082016121d1565b602084015261221b604082016121d1565b60408401526060810135906001600160401b038211611076570181601f820112156110765760609181602061225293359101611fbb565b910152565b6001600160401b038111611eff5760051b60200190565b92919261227a82612257565b60409261228a6040519283611f7f565b819581835260208093019160061b84019381851161107657915b8483106122b357505050505050565b8583830312611076578551906122c882611f2e565b833582528484013590811515820361107657828692838a9501528152019201916122a4565b908060209392818452848401375f828201840152601f01601f1916010190565b81601f820112156110765780519061232482611fa0565b926123326040519485611f7f565b8284526020838301011161107657815f9260208093018386015e8301015290565b9080601f830112156110765781519160209161236e84612257565b9360409061237e82519687611f7f565b808652848601918560059260051b8601019484861161107657868101935b8685106123ae57505050505050505090565b84516001600160401b039081811161107657830191606080601f19858b0301126110765785519080820182811085821117611eff578752848c01516001600160a01b0381168103611076578252868501518481116110765785018a603f8201121561107657808d809201518961242382612257565b9361243082519586611f7f565b8285528401918c1b830101918d8311611076578f908b01915b838310612481575091505083015284015192831161107657612472898c8096958196010161230d565b8682015281520194019361239c565b819083518152019101908f90612449565b805180835260209291819084018484015e5f828201840152601f01601f1916010190565b80516001101561090b5760400190565b80516002101561090b5760600190565b80511561090b5760200190565b805182101561090b5760209160051b010190565b9190916001600160401b038080941691160191821161088b57565b908115612611575b8015612603575b6040519161252e83611f49565b600283526040366020850137612543836124d6565b5261254d826124b6565b5260206125976040519261256084611f64565b5f84526125a96040519485938493631888debd60e01b85526005600486015260086024860152608060448601526084850190612c64565b83810360031901606485015290612c64565b03815f73ea30c4b8b44078bbf8a6ef5b9f1ec1626c7848d95af1908115611bb7575f916125d4575090565b90506020813d6020116125fb575b816125ef60209383611f7f565b81010312611076575190565b3d91506125e2565b5061260c612cca565b612521565b905061261b612cca565b9061251a565b73ea30c4b8b44078bbf8a6ef5b9f1ec1626c7848d991823b1561107657604051631974142760e21b815260048101929092526001600160a01b03166024820152905f908290818381604481015b03925af18015611bb75761267f5750565b61268890611eec565b565b73ea30c4b8b44078bbf8a6ef5b9f1ec1626c7848d9803b1561107657604051631974142760e21b815260048101929092523060248301525f9082908183816044810161266e565b5f546001600160a01b031633036126e457565b60405163118cdaa760e01b8152336004820152602490fd5b60026001541461270d576002600155565b604051633ee5aeb560e01b8152600490fd5b9081156127b2575b80156127a4575b6040519161273b83611f49565b600283526040366020850137612750836124d6565b5261275a826124b6565b5260206125976040519261276d84611f64565b5f84526125a96040519485938493631888debd60e01b855260056004860152600f6024860152608060448601526084850190612c64565b506127ad612cca565b61272e565b90506127bc612cca565b90612727565b908115612855575b8015612847575b604051916127de83611f49565b6002835260403660208501376127f3836124d6565b526127fd826124b6565b5260206125976040519261281084611f64565b5f84526125a96040519485938493631888debd60e01b855260056004860152600d6024860152608060448601526084850190612c64565b50612850612cca565b6127d1565b905061285f612cca565b906127ca565b60409060ff8282015116600581036129685750606060ff9183519061288982611f13565b5f825282602093835f86809601525f888201520152805161290e60608685850151169301518751926128ba84611f13565b8352848301938452868884016005815260608501928352895198899687966313fce3b160e11b88528c6004890152516044880152511660648601525116608484015251608060a484015260c4830190612492565b33602483015203815f73ea30c4b8b44078bbf8a6ef5b9f1ec1626c7848d95af192831561295f57505f9261294157505090565b90809250813d8311612958575b6125ef8183611f7f565b503d61294e565b513d5f823e3d90fd5b6044908351906367cf307160e01b8252600482015260056024820152fd5b908115612a19575b8015612a0b575b604051916129a283611f49565b6002835260403660208501376129b7836124d6565b526129c1826124b6565b526020612597604051926129d484611f64565b5f84526125a96040519485938493631888debd60e01b85526005600486015260126024860152608060448601526084850190612c64565b50612a14612cca565b612995565b9050612a23612cca565b9061298e565b91908215612ade575b8015612ad0575b8115612ac0575b60405192612a4d84611f13565b600384526060366020860137612a62846124d6565b52612a6c836124b6565b52612a76826124c6565b52602061259760405192612a8984611f64565b5f84526125a96040519485938493631888debd60e01b85526005600486015260046024860152608060448601526084850190612c64565b9050612aca612cca565b90612a40565b50612ad9612cca565b612a39565b9150604051612aec81611f64565b5f8152602061259760405192612b0184611f13565b60038452606036848601375f612b16856124d6565b525f612b21856124b6565b525f612b2c856124c6565b52612b606040519485938493631888debd60e01b85525f6004860152601a6024860152608060448601526084850190612c64565b03815f73ea30c4b8b44078bbf8a6ef5b9f1ec1626c7848d95af1908115611bb7575f91612b8f575b5091612a32565b90506020813d602011612bb9575b81612baa60209383611f7f565b8101031261107657515f612b88565b3d9150612b9d565b908115612c54575b8015612c46575b60405191612bdd83611f49565b600283526040366020850137612bf2836124d6565b52612bfc826124b6565b52602061259760405192612c0f84611f64565b5f84526125a96040519485938493631888debd60e01b85526005600486015260076024860152608060448601526084850190612c64565b50612c4f612cca565b612bd0565b9050612c5e612cca565b90612bc9565b9081518082526020808093019301915f5b828110612c83575050505090565b835185529381019392810192600101612c75565b9091612cbc6121709360058452601a6020850152608060408501526080840190612c64565b916060818403910152612c64565b6125a96020604051612cdb81611f64565b5f815260405190612ceb82611f13565b60038252606036848401375f612d00836124d6565b526005612d0c836124b6565b525f612d17836124c6565b52604051631888debd60e01b8152938492839260048401612c97565b60206125a991604051612d4581611f64565b5f815260405191612d5583611f13565b6003835260603685850137612d00836124d656fea2646970667358221220fb6bf8856d7d78a5eb6e0824adc0c06723553b81416fa0819e3909027010290e64736f6c63430008190033",
  "linkReferences": {
    "contracts/interfaces/EvmV1Decoder.sol": {
      "EvmV1Decoder": [
        {
          "length": 20,
          "start": 3405
        },
        {
          "length": 20,
          "start": 3630
        }
      ]
    }
  },
  "deployedLinkReferences": {
    "contracts/interfaces/EvmV1Decoder.sol": {
      "EvmV1Decoder": [
        {
          "length": 20,
          "start": 3154
        },
        {
          "length": 20,
          "start": 3379
        }
      ]
    }
  }
}