{
  "_format": "hh-sol-artifact-1",
  "contractName": "PrivateScoreManager",
  "sourceName": "contracts/PrivateScoreManager.sol",
  "abi": [
    {
      "inputs": [],
      "stateMutability": "nonpayable",
      "type": "constructor"
    },
    {
      "inputs": [
        {
          "internalType": "uint8",
          "name": "got",
          "type": "uint8"
        },
        {
          "internalType": "uint8",
          "name": "expected",
          "type": "uint8"
        }
      ],
      "name": "InvalidEncryptedInput",
      "type": "error"
    },
    {
      "inputs": [
        {
          "internalType": "int32",
          "name": "value",
          "type": "int32"
        }
      ],
      "name": "SecurityZoneOutOfBounds",
      "type": "error"
    },
    {
      "anonymous": false,
      "inputs": [
        {
          "indexed": true,
          "internalType": "address",
          "name": "caller",
          "type": "address"
        }
      ],
      "name": "CallerAuthorized",
      "type": "event"
    },
    {
      "anonymous": false,
      "inputs": [
        {
          "indexed": true,
          "internalType": "address",
          "name": "user",
          "type": "address"
        }
      ],
      "name": "LimitUpdated",
      "type": "event"
    },
    {
      "anonymous": false,
      "inputs": [
        {
          "indexed": true,
          "internalType": "address",
          "name": "user",
          "type": "address"
        }
      ],
      "name": "LiquidationRecorded",
      "type": "event"
    },
    {
      "anonymous": false,
      "inputs": [
        {
          "indexed": true,
          "internalType": "address",
          "name": "prev",
          "type": "address"
        },
        {
          "indexed": true,
          "internalType": "address",
          "name": "next_",
          "type": "address"
        }
      ],
      "name": "OwnershipTransferred",
      "type": "event"
    },
    {
      "anonymous": false,
      "inputs": [
        {
          "indexed": true,
          "internalType": "address",
          "name": "user",
          "type": "address"
        }
      ],
      "name": "RepaymentRecorded",
      "type": "event"
    },
    {
      "anonymous": false,
      "inputs": [
        {
          "indexed": true,
          "internalType": "address",
          "name": "user",
          "type": "address"
        }
      ],
      "name": "ScoreInitialized",
      "type": "event"
    },
    {
      "inputs": [],
      "name": "LIQUIDATION_PENALTY",
      "outputs": [
        {
          "internalType": "uint64",
          "name": "",
          "type": "uint64"
        }
      ],
      "stateMutability": "view",
      "type": "function"
    },
    {
      "inputs": [],
      "name": "MAX_SCORE",
      "outputs": [
        {
          "internalType": "uint64",
          "name": "",
          "type": "uint64"
        }
      ],
      "stateMutability": "view",
      "type": "function"
    },
    {
      "inputs": [],
      "name": "MIN_SCORE",
      "outputs": [
        {
          "internalType": "uint64",
          "name": "",
          "type": "uint64"
        }
      ],
      "stateMutability": "view",
      "type": "function"
    },
    {
      "inputs": [],
      "name": "REPAYMENT_BONUS",
      "outputs": [
        {
          "internalType": "uint64",
          "name": "",
          "type": "uint64"
        }
      ],
      "stateMutability": "view",
      "type": "function"
    },
    {
      "inputs": [
        {
          "internalType": "address",
          "name": "caller",
          "type": "address"
        }
      ],
      "name": "authorizeCaller",
      "outputs": [],
      "stateMutability": "nonpayable",
      "type": "function"
    },
    {
      "inputs": [
        {
          "internalType": "address",
          "name": "",
          "type": "address"
        }
      ],
      "name": "authorizedCallers",
      "outputs": [
        {
          "internalType": "bool",
          "name": "",
          "type": "bool"
        }
      ],
      "stateMutability": "view",
      "type": "function"
    },
    {
      "inputs": [
        {
          "internalType": "address",
          "name": "user",
          "type": "address"
        }
      ],
      "name": "getEncryptedLimit",
      "outputs": [
        {
          "internalType": "euint64",
          "name": "",
          "type": "bytes32"
        }
      ],
      "stateMutability": "view",
      "type": "function"
    },
    {
      "inputs": [
        {
          "internalType": "address",
          "name": "user",
          "type": "address"
        }
      ],
      "name": "getEncryptedScore",
      "outputs": [
        {
          "internalType": "euint64",
          "name": "",
          "type": "bytes32"
        }
      ],
      "stateMutability": "view",
      "type": "function"
    },
    {
      "inputs": [
        {
          "internalType": "address",
          "name": "user",
          "type": "address"
        }
      ],
      "name": "hasScore",
      "outputs": [
        {
          "internalType": "bool",
          "name": "",
          "type": "bool"
        }
      ],
      "stateMutability": "view",
      "type": "function"
    },
    {
      "inputs": [
        {
          "internalType": "address",
          "name": "user",
          "type": "address"
        }
      ],
      "name": "initializeScore",
      "outputs": [],
      "stateMutability": "nonpayable",
      "type": "function"
    },
    {
      "inputs": [
        {
          "internalType": "address",
          "name": "",
          "type": "address"
        }
      ],
      "name": "isInitialized",
      "outputs": [
        {
          "internalType": "bool",
          "name": "",
          "type": "bool"
        }
      ],
      "stateMutability": "view",
      "type": "function"
    },
    {
      "inputs": [],
      "name": "owner",
      "outputs": [
        {
          "internalType": "address",
          "name": "",
          "type": "address"
        }
      ],
      "stateMutability": "view",
      "type": "function"
    },
    {
      "inputs": [
        {
          "internalType": "address",
          "name": "user",
          "type": "address"
        }
      ],
      "name": "recordLiquidation",
      "outputs": [],
      "stateMutability": "nonpayable",
      "type": "function"
    },
    {
      "inputs": [
        {
          "internalType": "address",
          "name": "user",
          "type": "address"
        }
      ],
      "name": "recordRepayment",
      "outputs": [],
      "stateMutability": "nonpayable",
      "type": "function"
    },
    {
      "inputs": [
        {
          "internalType": "address",
          "name": "user",
          "type": "address"
        },
        {
          "components": [
            {
              "internalType": "uint256",
              "name": "ctHash",
              "type": "uint256"
            },
            {
              "internalType": "uint8",
              "name": "securityZone",
              "type": "uint8"
            },
            {
              "internalType": "uint8",
              "name": "utype",
              "type": "uint8"
            },
            {
              "internalType": "bytes",
              "name": "signature",
              "type": "bytes"
            }
          ],
          "internalType": "struct InEuint64",
          "name": "encLimit",
          "type": "tuple"
        }
      ],
      "name": "setCreditLimit",
      "outputs": [],
      "stateMutability": "nonpayable",
      "type": "function"
    },
    {
      "inputs": [
        {
          "internalType": "address",
          "name": "user",
          "type": "address"
        },
        {
          "components": [
            {
              "internalType": "uint256",
              "name": "ctHash",
              "type": "uint256"
            },
            {
              "internalType": "uint8",
              "name": "securityZone",
              "type": "uint8"
            },
            {
              "internalType": "uint8",
              "name": "utype",
              "type": "uint8"
            },
            {
              "internalType": "bytes",
              "name": "signature",
              "type": "bytes"
            }
          ],
          "internalType": "struct InEuint64",
          "name": "encScore",
          "type": "tuple"
        }
      ],
      "name": "setScore",
      "outputs": [],
      "stateMutability": "nonpayable",
      "type": "function"
    },
    {
      "inputs": [
        {
          "internalType": "address",
          "name": "newOwner",
          "type": "address"
        }
      ],
      "name": "transferOwnership",
      "outputs": [],
      "stateMutability": "nonpayable",
      "type": "function"
    }
  ],
  "bytecode": "0x60808060405234602757600480546001600160a01b03191633179055611373908161002c8239f35b5f80fdfe604060808152600480361015610013575f80fd5b5f3560e01c9081631142f7651461072c57816324a573ca146106f657816327ff6223146106da5781632c388d5d1461066d57816340b8927014610651578163536fff6c14610615578163578e42951461017a578163616ad410146103445781637f59b57b146103295781638da5cb5b146103025781639b8621d5146102e75781639c4bcea3146102c4578163b48d0a651461024a578163c3261113146101b6578163d60b347f1461017a578163f2fde38b14610112575063f97764c9146100d8575f80fd5b3461010e57602036600319011261010e576020906001600160a01b036100fc610a01565b165f5260018252805f20549051908152f35b5f80fd5b3461010e57602036600319011261010e5761012b610a01565b81546001600160a01b0380821692610144338514610a9a565b1680927f8be0079c531659141344cd1fd0a4f28419497f9722a3daafe3b4186f6b6457e05f80a36001600160a01b031916179055005b823461010e57602036600319011261010e576020906001600160a01b0361019f610a01565b165f526002825260ff815f20541690519015158152f35b90503461010e576101ef610224916101f46101d036610a17565b6101e860018060a09794971b03809554163314610a9a565b3690610c24565b611076565b90821693845f525f60205281815f205560026020525f20600160ff1982541617905561021f81610fc8565b611025565b7f5d95448edae7bcc3f04ceed898bf2926c2e56c8de7c6a57d3b90539b1ff037a65f80a2005b90503461010e576101ef61029e9161028561026436610a17565b61027c60018060a09794971b03809554163314610a9a565b6101e885610cc8565b8091831694855f5260016020525f205561021f81610fc8565b7f92e0a2a73ec754f60f2d0b1a73edd634bde7567c97759d9e4033e2c80a4af3505f80a2005b3461010e57602036600319011261010e576102e56102e0610a01565b610ad2565b005b823461010e575f36600319011261010e576020905160328152f35b823461010e575f36600319011261010e57905490516001600160a01b039091168152602090f35b823461010e575f36600319011261010e576020905160058152f35b823461010e5760209060031990828236011261010e57610362610a01565b91335f526003845260ff825f2054168015610602575b61038190610a5d565b61038a83610cc8565b6001600160a01b0383165f81815280865283902054835191966103ac83610bd8565b5f835284516103ba81610b78565b600381526060368983013760056103d082611320565b5260056103dc8261132d565b528051600210156105ef57805f606061040a9301528651918291631888debd60e01b968784528584016111e1565b0392888273ea30c4b8b44078bbf8a6ef5b9f1ec1626c7848d995815f885af19182156105e5579089949392915f926105b3575b509061044891610cf6565b936104516112f0565b9585968615610591575b916104dd5f9284600597969515610583575b8b519a6104798c610bbc565b60028c528c368b8e013761048c8c611320565b526104968b61132d565b528a516104a281610bd8565b8481526104ce8c519b8c998a9889978852870152601360248701526080604487015260848601906111ae565b918483030160648501526111ae565b03925af1918215610579575f92610542575b509161050961051c95925f946105036112f0565b91610e10565b928392878252525f205561021f81610fc8565b7f3fb193eb6d2ed45bdd076a42e8a17ccafd57dd364ca2b9adcc4bc6107b61cf365f80a2005b9480925085819492943d8311610572575b61055d8183610bf4565b8101031261010e5793519093916105096104ef565b503d610553565b83513d5f823e3d90fd5b5061058c6112be565b61046d565b965060059392916104dd5f926105a56112be565b99929495965092505061045b565b8092508591953d83116105de575b6105cb8183610bf4565b8101031261010e5751889361044861043d565b503d6105c1565b87513d5f823e3d90fd5b603282634e487b7160e01b5f525260245ffd5b5084546001600160a01b03163314610378565b823461010e57602036600319011261010e576020906001600160a01b0361063a610a01565b165f526003825260ff815f20541690519015158152f35b823461010e575f36600319011261010e576020905161012c8152f35b90503461010e57602036600319011261010e57610688610a01565b61069d60018060a01b03809354163314610a9a565b1690815f5260036020525f20600160ff198254161790557f6acfd92212f0ec670af78f8ba2273e4a85ac17023475650c25be0440602bff2d5f80a2005b823461010e575f36600319011261010e57602090516103528152f35b823461010e57602036600319011261010e576020906001600160a01b0361071b610a01565b165f525f8252805f20549051908152f35b823461010e57600319906020368301811361010e57610749610a01565b91335f526003825260ff815f20541680156109ee575b61076890610a5d565b61077183610cc8565b6001600160a01b0383165f81815280845282902054909561083291906107a6610798611217565b6107a061128b565b90610cf6565b8215978391896109de575b80156109d0575b8651926107c484610bbc565b6002845287368a8601376107d784611320565b526107e18361132d565b5285516107ed81610bd8565b5f81528651958691610822631888debd60e01b95868552600588860152601260248601526080604486015260848501906111ae565b90848483030160648501526111ae565b0393878673ea30c4b8b44078bbf8a6ef5b9f1ec1626c7848d996815f895af19586156105e5575f966109a1575b5061086861128b565b909961097d575b8794926108e460059593835f941561096f575b6108ac8b519e8f9061089382610bbc565b600282528d368d8401376108a682611320565b5261132d565b5289516108b881610bd8565b8481526104ce8b519e8f998a9889978852870152600760248701526080604487015260848601906111ae565b03925af1948515610965575f95610930575b50906105095f939261090a96610503611217565b7fbe423179e0f4b91acec8b77d752e0113e5ea7075bb6561cfcd1c2c211f38a23d5f80a2005b945091908185813d831161095e575b6109498183610bf4565b8101031261010e5793519390916105096108f6565b503d61093f565b82513d5f823e3d90fd5b506109786112be565b610882565b9850915f8794926108e46005956109926112be565b9c93509395505092945061086f565b9095508781813d83116109c9575b6109b98183610bf4565b8101031261010e5751948b61085f565b503d6109af565b506109d96112be565b6107b8565b91506109e86112be565b916107b1565b5084546001600160a01b0316331461075f565b600435906001600160a01b038216820361010e57565b9060031960408184011261010e576004356001600160a01b038116810361010e57926024359167ffffffffffffffff831161010e578260809203011261010e5760040190565b15610a6457565b60405162461bcd60e51b815260206004820152600e60248201526d139bdd08185d5d1a1bdc9a5e995960921b6044820152606490fd5b15610aa157565b60405162461bcd60e51b81526020600482015260096024820152682737ba1037bbb732b960b91b6044820152606490fd5b6001600160a01b0381165f8181526002602052604090205490919060ff16610b7457610b4e90610b00611217565b835f525f6020528060405f2055610b4582610b196112be565b92865f5260016020528360405f2055600260205260405f20600160ff1982541617905561021f81610fc8565b61021f81610fc8565b7f5d95448edae7bcc3f04ceed898bf2926c2e56c8de7c6a57d3b90539b1ff037a65f80a2565b5050565b6080810190811067ffffffffffffffff821117610b9457604052565b634e487b7160e01b5f52604160045260245ffd5b67ffffffffffffffff8111610b9457604052565b6060810190811067ffffffffffffffff821117610b9457604052565b6020810190811067ffffffffffffffff821117610b9457604052565b90601f8019910116810190811067ffffffffffffffff821117610b9457604052565b359060ff8216820361010e57565b919060808382031261010e5760405192610c3d84610b78565b83813581526020610c4f818401610c16565b81830152610c5f60408401610c16565b6040830152606083013567ffffffffffffffff9384821161010e57019084601f8301121561010e578135938411610b945760405194610ca7601f8601601f1916830187610bf4565b84865281858401011161010e5783606094825f940183880137850101520152565b6001600160a01b0381165f9081526002602052604090205460ff1615610ceb5750565b610cf490610ad2565b565b908115610e00575b8015610df2575b60405191610d1283610bbc565b600283526040366020850137610d2783611320565b52610d318261132d565b526020610d7b60405192610d4484610bd8565b5f8452610d8d6040519485938493631888debd60e01b855260056004860152600860248601526080604486015260848501906111ae565b838103600319016064850152906111ae565b03815f73ea30c4b8b44078bbf8a6ef5b9f1ec1626c7848d95af1908115610de7575f91610db8575090565b90506020813d602011610ddf575b81610dd360209383610bf4565b8101031261010e575190565b3d9150610dc6565b6040513d5f823e3d90fd5b50610dfb6112be565b610d05565b9050610e0a6112be565b90610cfe565b91908215610ede575b8015610ed0575b8115610ec0575b60405192610e3484610b78565b600384526060366020860137610e4984611320565b52610e538361132d565b52815160021015610eac5760608201526020610d7b60405192610e7584610bd8565b5f8452610d8d6040519485938493631888debd60e01b855260056004860152600460248601526080604486015260848501906111ae565b634e487b7160e01b5f52603260045260245ffd5b9050610eca6112be565b90610e27565b50610ed96112be565b610e20565b9150604051610eec81610bd8565b5f815260405190610efc82610b78565b6003825260603660208401375f610f1283611320565b525f610f1d8361132d565b52815160021015610eac57610d7b6020915f6060850152610f676040519485938493631888debd60e01b85525f6004860152601a60248601526080604486015260848501906111ae565b03815f73ea30c4b8b44078bbf8a6ef5b9f1ec1626c7848d95af1908115610de7575f91610f96575b5091610e19565b90506020813d602011610fc0575b81610fb160209383610bf4565b8101031261010e57515f610f8f565b3d9150610fa4565b73ea30c4b8b44078bbf8a6ef5b9f1ec1626c7848d9803b1561010e57604051631974142760e21b815260048101929092523060248301525f908290818381604481015b03925af18015610de75761101c5750565b610cf490610ba8565b73ea30c4b8b44078bbf8a6ef5b9f1ec1626c7848d991823b1561010e57604051631974142760e21b815260048101929092526001600160a01b03166024820152905f9082908183816044810161100b565b60409060ff8282015116600581036111905750606060ff9183519061109a82610b78565b5f825282602093835f86809601525f88820152015260e481518360608782860151169401518851926110cb84610b78565b83528183019485528789840160058152606085019283528a51998a9788966313fce3b160e11b88528d6004890152516044880152511660648601525116608484015251608060a484015280519182918260c4860152018484015e5f838284010152336024830152601f801991011681010301815f73ea30c4b8b44078bbf8a6ef5b9f1ec1626c7848d95af192831561118757505f9261116957505090565b90809250813d8311611180575b610dd38183610bf4565b503d611176565b513d5f823e3d90fd5b6044908351906367cf307160e01b8252600482015260056024820152fd5b9081518082526020808093019301915f5b8281106111cd575050505090565b8351855293810193928101926001016111bf565b90916112066112149360058452601a60208501526080604085015260808401906111ae565b9160608184039101526111ae565b90565b60405161122381610bd8565b5f81526040519061123382610b78565b60038252606036602084013761012c61124b83611320565b5260056112578361132d565b52815160021015610eac575f6060830152604051631888debd60e01b81529160209183918291610d8d9190600484016111e1565b60405161129781610bd8565b5f8152604051906112a782610b78565b600382526060366020840137603261124b83611320565b6040516112ca81610bd8565b5f8152604051906112da82610b78565b6003825260603660208401375f61124b83611320565b6040516112fc81610bd8565b5f81526040519061130c82610b78565b60038252606036602084013761035261124b835b805115610eac5760200190565b805160011015610eac576040019056fea2646970667358221220b59b7eb7bc17e902948ab8dd7bd615a950e3631c5f84c7c506ee765fcd28f4c064736f6c63430008190033",
  "linkReferences": {},
  "deployedLinkReferences": {}
}