{
  "_format": "hh-sol-artifact-1",
  "contractName": "PrivateLendingPool",
  "sourceName": "contracts/PrivateLendingPool.sol",
  "abi": [
    {
      "inputs": [],
      "stateMutability": "nonpayable",
      "type": "constructor"
    },
    {
      "inputs": [
        {
          "internalType": "uint8",
          "name": "got",
          "type": "uint8"
        },
        {
          "internalType": "uint8",
          "name": "expected",
          "type": "uint8"
        }
      ],
      "name": "InvalidEncryptedInput",
      "type": "error"
    },
    {
      "inputs": [
        {
          "internalType": "int32",
          "name": "value",
          "type": "int32"
        }
      ],
      "name": "SecurityZoneOutOfBounds",
      "type": "error"
    },
    {
      "anonymous": false,
      "inputs": [
        {
          "indexed": true,
          "internalType": "address",
          "name": "user",
          "type": "address"
        }
      ],
      "name": "Supplied",
      "type": "event"
    },
    {
      "anonymous": false,
      "inputs": [
        {
          "indexed": true,
          "internalType": "address",
          "name": "user",
          "type": "address"
        }
      ],
      "name": "Withdrawn",
      "type": "event"
    },
    {
      "inputs": [],
      "name": "borrowManager",
      "outputs": [
        {
          "internalType": "address",
          "name": "",
          "type": "address"
        }
      ],
      "stateMutability": "view",
      "type": "function"
    },
    {
      "inputs": [
        {
          "internalType": "address",
          "name": "user",
          "type": "address"
        }
      ],
      "name": "getSuppliedAmount",
      "outputs": [
        {
          "internalType": "euint64",
          "name": "",
          "type": "bytes32"
        }
      ],
      "stateMutability": "view",
      "type": "function"
    },
    {
      "inputs": [],
      "name": "getTotalLiquidity",
      "outputs": [
        {
          "internalType": "euint64",
          "name": "",
          "type": "bytes32"
        }
      ],
      "stateMutability": "view",
      "type": "function"
    },
    {
      "inputs": [
        {
          "internalType": "address",
          "name": "_borrow",
          "type": "address"
        }
      ],
      "name": "setBorrowManager",
      "outputs": [],
      "stateMutability": "nonpayable",
      "type": "function"
    },
    {
      "inputs": [
        {
          "components": [
            {
              "internalType": "uint256",
              "name": "ctHash",
              "type": "uint256"
            },
            {
              "internalType": "uint8",
              "name": "securityZone",
              "type": "uint8"
            },
            {
              "internalType": "uint8",
              "name": "utype",
              "type": "uint8"
            },
            {
              "internalType": "bytes",
              "name": "signature",
              "type": "bytes"
            }
          ],
          "internalType": "struct InEuint64",
          "name": "encryptedAmount",
          "type": "tuple"
        }
      ],
      "name": "supply",
      "outputs": [],
      "stateMutability": "nonpayable",
      "type": "function"
    },
    {
      "inputs": [
        {
          "components": [
            {
              "internalType": "uint256",
              "name": "ctHash",
              "type": "uint256"
            },
            {
              "internalType": "uint8",
              "name": "securityZone",
              "type": "uint8"
            },
            {
              "internalType": "uint8",
              "name": "utype",
              "type": "uint8"
            },
            {
              "internalType": "bytes",
              "name": "signature",
              "type": "bytes"
            }
          ],
          "internalType": "struct InEuint64",
          "name": "encryptedAmount",
          "type": "tuple"
        }
      ],
      "name": "withdraw",
      "outputs": [],
      "stateMutability": "nonpayable",
      "type": "function"
    }
  ],
  "bytecode": "0x60803461015e57602081810191906001600160401b0390818411838510176101405760409384525f835283519260808401848110848211176101405785526003845281840160603682378451156101a9575f90528351600110156101a9576005858501528351600210156101a9576100ba845f60606100a89701528651958693631888debd60e01b855260056004860152601a60248601526080604486015260848501906101bd565b838103600319016064850152906101bd565b0392818173ea30c4b8b44078bbf8a6ef5b9f1ec1626c7848d995815f885af191821561019f575f92610162575b505080600155823b1561015e575f926044849286519586938492631974142760e21b845260048401523060248401525af1801561015457610131575b8251610c0890816101f18239f35b81116101405781525f80610123565b634e487b7160e01b5f52604160045260245ffd5b83513d5f823e3d90fd5b5f80fd5b809192503d8211610198575b601f8101601f19168301908482118483101761014057839187528101031261015e57515f806100e7565b503d61016e565b85513d5f823e3d90fd5b634e487b7160e01b5f52603260045260245ffd5b9081518082526020808093019301915f5b8281106101dc575050505090565b8351855293810193928101926001016101ce56fe6080604090808252600480361015610015575f80fd5b5f3560e01c9182631c8fbb1d1461057d57826335c7e92514610563575081634f8e33f01461052957816369671bcd1461013557508063829057e31461010d57639592db1914610062575f80fd5b34610109576100ce906100bb6100886100833661007e366105be565b61069c565b610740565b335f525f602052825f2054818115155f14610100576100a691610a42565b80935b335f525f6020525f2055600154610a42565b6001556100c781610992565b33906109f1565b6100d9600154610992565b337f6663c4b4f37934bad95a7e7828d7613470512e596e6278df939ba459ae7e0f635f80a2005b905080936100a9565b5f80fd5b5034610109575f3660031901126101095760025490516001600160a01b039091168152602090f35b82346101095761014b6100833661007e366105be565b90335f526020915f8352815f2054156104f3575f933385528484528285205490819280801590816104e3575b841594856104d5575b87519361018c85610634565b6002855288368b87013761019f85610b18565b526101a984610b39565b528651916101b683610650565b8983528751958987806102026101ef631888debd60e01b998a845260058c85015260136024850152608060448501526084840190610ae5565b6003199889848303016064850152610ae5565b038173ea30c4b8b44078bbf8a6ef5b9f1ec1626c7848d99e8f5af19687156104cb575f9761049c575b5087929187156103a7575b610397575b610387575b87519561024c876105f0565b600387526060368b89013761026087610b18565b5261026a86610b39565b52845160021015610374578798926102cd8695935f9360606102be9c990152895161029481610650565b8481528a519b8c988997889687526005818801526024870152608060448701526084860190610ae5565b91848303016064850152610ae5565b03925af192831561036a575f93610337575b6103055f6100bb8688876102f38389610884565b948592338252525f2055600154610884565b610310600154610992565b337ff45a04d08a70caa7eb4b747571305559ad9fdf4a093afd41506b35c8a306fa945f80a2005b9192508382813d8311610363575b61034f818361066c565b8101031261010957905191906103056102df565b503d610345565b82513d5f823e3d90fd5b603284634e487b7160e01b5f525260245ffd5b9050610391610b49565b90610240565b90506103a1610b49565b9061023b565b965088516103b481610650565b5f815289516103c2816105f0565b600381526060368d8301375f6103d782610b18565b525f6103e282610b39565b52805160021015610489575f8d89828f948f81610429610439928f9460608791015251998a98899788968752860152601a6024860152608060448601526084850190610ae5565b908d848303016064850152610ae5565b03925af190811561047f575f91610452575b5096610236565b90508a81813d8311610478575b610469818361066c565b8101031261010957518c61044b565b503d61045f565b8a513d5f823e3d90fd5b603288634e487b7160e01b5f525260245ffd5b9096508981813d83116104c4575b6104b4818361066c565b810103126101095751958b61022b565b503d6104aa565b89513d5f823e3d90fd5b506104de610b49565b610180565b91506104ed610b49565b91610177565b815162461bcd60e51b8152808501849052601060248201526f139bc818985b185b98d948199bdd5b9960821b6044820152606490fd5b90503461010957602036600319011261010957356001600160a01b0381169190829003610109576020915f525f8252805f20549051908152f35b34610109575f366003190112610109576020906001548152f35b503461010957602036600319011261010957356001600160a01b03811690819003610109576bffffffffffffffffffffffff60a01b60025416176002555f80f35b60031990602081830112610109576004359167ffffffffffffffff831161010957826080920301126101095760040190565b6080810190811067ffffffffffffffff82111761060c57604052565b634e487b7160e01b5f52604160045260245ffd5b67ffffffffffffffff811161060c57604052565b6060810190811067ffffffffffffffff82111761060c57604052565b6020810190811067ffffffffffffffff82111761060c57604052565b90601f8019910116810190811067ffffffffffffffff82111761060c57604052565b359060ff8216820361010957565b919060808382031261010957604051926106b5846105f0565b838135815260206106c781840161068e565b818301526106d76040840161068e565b6040830152606083013567ffffffffffffffff9384821161010957019084601f8301121561010957813593841161060c576040519461071f601f8601601f191683018761066c565b8486528185840101116101095783606094825f940183880137850101520152565b60409060ff8282015116600581036108665750606060ff91835190610764826105f0565b5f825282602093835f86809601525f88820152015260e48151836060878286015116940151885192610795846105f0565b83528183019485528789840160058152606085019283528a51998a9788966313fce3b160e11b88528d6004890152516044880152511660648601525116608484015251608060a484015280519182918260c4860152018484015e5f838284010152336024830152601f801991011681010301815f73ea30c4b8b44078bbf8a6ef5b9f1ec1626c7848d95af192831561085d57505f9261083357505090565b90809250813d8311610856575b61084a818361066c565b81010312610109575190565b503d610840565b513d5f823e3d90fd5b6044908351906367cf307160e01b8252600482015260056024820152fd5b908115610982575b8015610974575b604051916108a083610634565b6002835260403660208501376108b583610b18565b526108bf82610b39565b526020610909604051926108d284610650565b5f845261091b6040519485938493631888debd60e01b85526005600486015260076024860152608060448601526084850190610ae5565b83810360031901606485015290610ae5565b03815f73ea30c4b8b44078bbf8a6ef5b9f1ec1626c7848d95af1908115610969575f91610946575090565b90506020813d602011610961575b8161084a6020938361066c565b3d9150610954565b6040513d5f823e3d90fd5b5061097d610b49565b610893565b905061098c610b49565b9061088c565b73ea30c4b8b44078bbf8a6ef5b9f1ec1626c7848d9803b1561010957604051631974142760e21b815260048101929092523060248301525f908290818381604481015b03925af18015610969576109e65750565b6109ef90610620565b565b73ea30c4b8b44078bbf8a6ef5b9f1ec1626c7848d991823b1561010957604051631974142760e21b815260048101929092526001600160a01b03166024820152905f908290818381604481016109d5565b908115610ad5575b8015610ac7575b60405191610a5e83610634565b600283526040366020850137610a7383610b18565b52610a7d82610b39565b52602061090960405192610a9084610650565b5f845261091b6040519485938493631888debd60e01b85526005600486015260086024860152608060448601526084850190610ae5565b50610ad0610b49565b610a51565b9050610adf610b49565b90610a4a565b9081518082526020808093019301915f5b828110610b04575050505090565b835185529381019392810192600101610af6565b805115610b255760200190565b634e487b7160e01b5f52603260045260245ffd5b805160011015610b255760400190565b604051610b5581610650565b5f815260405190610b65826105f0565b6003825260603660208401375f610b7b83610b18565b526005610b8783610b39565b52815160021015610b25576109096020915f606085015261091b6040519485938493631888debd60e01b855260056004860152601a6024860152608060448601526084850190610ae556fea2646970667358221220e7fe813b4b089a56d4272f199bc9b49f420b503c02ae2f2aee720169334270d064736f6c63430008190033",
  "linkReferences": {},
  "deployedLinkReferences": {}
}