{
  "_format": "hh-sol-artifact-1",
  "contractName": "PrivateLiquidationEngine",
  "sourceName": "contracts/PrivateLiquidationEngine.sol",
  "abi": [
    {
      "inputs": [
        {
          "internalType": "address",
          "name": "_collateralVault",
          "type": "address"
        },
        {
          "internalType": "address",
          "name": "_borrowManager",
          "type": "address"
        }
      ],
      "stateMutability": "nonpayable",
      "type": "constructor"
    },
    {
      "inputs": [
        {
          "internalType": "int32",
          "name": "value",
          "type": "int32"
        }
      ],
      "name": "SecurityZoneOutOfBounds",
      "type": "error"
    },
    {
      "anonymous": false,
      "inputs": [
        {
          "indexed": true,
          "internalType": "address",
          "name": "user",
          "type": "address"
        },
        {
          "indexed": true,
          "internalType": "address",
          "name": "liquidator",
          "type": "address"
        }
      ],
      "name": "Liquidated",
      "type": "event"
    },
    {
      "anonymous": false,
      "inputs": [
        {
          "indexed": true,
          "internalType": "address",
          "name": "user",
          "type": "address"
        }
      ],
      "name": "LiquidationStarted",
      "type": "event"
    },
    {
      "inputs": [
        {
          "internalType": "address",
          "name": "user",
          "type": "address"
        }
      ],
      "name": "auditHealth",
      "outputs": [],
      "stateMutability": "nonpayable",
      "type": "function"
    },
    {
      "inputs": [],
      "name": "borrowManager",
      "outputs": [
        {
          "internalType": "contract PrivateBorrowManager",
          "name": "",
          "type": "address"
        }
      ],
      "stateMutability": "view",
      "type": "function"
    },
    {
      "inputs": [],
      "name": "collateralVault",
      "outputs": [
        {
          "internalType": "contract PrivateCollateralVault",
          "name": "",
          "type": "address"
        }
      ],
      "stateMutability": "view",
      "type": "function"
    },
    {
      "inputs": [
        {
          "internalType": "address",
          "name": "user",
          "type": "address"
        }
      ],
      "name": "getPendingHealthCheck",
      "outputs": [
        {
          "internalType": "ebool",
          "name": "",
          "type": "bytes32"
        }
      ],
      "stateMutability": "view",
      "type": "function"
    },
    {
      "inputs": [
        {
          "internalType": "address",
          "name": "",
          "type": "address"
        }
      ],
      "name": "isLiquidatable",
      "outputs": [
        {
          "internalType": "bool",
          "name": "",
          "type": "bool"
        }
      ],
      "stateMutability": "view",
      "type": "function"
    },
    {
      "inputs": [
        {
          "internalType": "address",
          "name": "user",
          "type": "address"
        },
        {
          "internalType": "bool",
          "name": "isUnhealthy",
          "type": "bool"
        },
        {
          "internalType": "bytes",
          "name": "signature",
          "type": "bytes"
        }
      ],
      "name": "resolveAudit",
      "outputs": [],
      "stateMutability": "nonpayable",
      "type": "function"
    },
    {
      "inputs": [
        {
          "internalType": "address",
          "name": "_borrow",
          "type": "address"
        }
      ],
      "name": "setBorrowManager",
      "outputs": [],
      "stateMutability": "nonpayable",
      "type": "function"
    },
    {
      "inputs": [
        {
          "internalType": "address",
          "name": "_vault",
          "type": "address"
        }
      ],
      "name": "setCollateralVault",
      "outputs": [],
      "stateMutability": "nonpayable",
      "type": "function"
    }
  ],
  "bytecode": "0x608034608557601f610cf038819003918201601f19168301916001600160401b038311848410176089578084926040948552833981010312608557604b6020604583609d565b9201609d565b5f80546001600160a01b039384166001600160a01b03199182161790915560018054929093169116179055604051610c3f90816100b18239f35b5f80fd5b634e487b7160e01b5f52604160045260245ffd5b51906001600160a01b038216820360855756fe6080604081815260049182361015610015575f80fd5b5f925f3560e01c918263042e02cf14610894575081630bece79c1461086d5781631c8fbb1d1461082f5781633a25081a1461043a57816368a806c414610401578163829057e3146103d85781638bf913b9146100b45750638cf6bda91461007a575f80fd5b346100b05760203660031901126100b05760209181906001600160a01b036100a06108ce565b1681526002845220549051908152f35b5080fd5b919050346103d457600319916060368401126103d0576100d26108ce565b92602490813592831591821585036103cc576044359267ffffffffffffffff978885116103c857366023860112156103c857848401359889116103c85736868a870101116103c85760018060a01b031697888a5260209660028852888b2054801561039357908b9291601f1991848b8d51956101558287601f8401160188610960565b808752808d8389019d018d37860101521561038c576001925b73ea30c4b8b44078bbf8a6ef5b9f1ec1626c7848d998893b15610388578593601f8a928f948e60ff608497519a8b998a98631868370160e01b8a528901521690860152606060448601525180918160648701528686015e8685828601015201168101030181838a5af1801561037e57610366575b505061031a57915f8086959361028d601a9998968b8d5260038852898d20600160ff198254161790558c61027e8b5161021a8161090c565b8681528c519261022984610928565b600384526060368d86013761023d84610bc8565b528661024884610be9565b528661025384610bf9565b528c519d8e9a8b998a98631888debd60e01b8a52890152870152608060448701526084860190610af6565b91848303016064850152610af6565b03925af1928315610310575f936102dc575b506002906102ac84610a9c565b8486525283205533907facd74f5a0eb0d086de0eebe2d1e70d5742838c88cb2cf492fc201d39e056f7e08380a380f35b9080935081813d8311610309575b6102f48183610960565b81010312610305575191600261029f565b5f80fd5b503d6102ea565b82513d5f823e3d90fd5b855162461bcd60e51b81528083018690526021818601527f55736572206973206865616c7468792c2063616e6e6f74206c697175696461746044820152606560f81b6064820152608490fd5b61036f906108e4565b61037a57885f6101e2565b8880fd5b89513d84823e3d90fd5b8580fd5b839261016e565b895162461bcd60e51b81528087018a90526010818a01526f139bc81c195b991a5b99c8185d591a5d60821b6044820152606490fd5b8980fd5b8780fd5b8380fd5b8280fd5b5050346100b057816003193601126100b05760015490516001600160a01b039091168152602090f35b8334610437576020366003190112610437576001600160a01b036104236108ce565b82546001600160a01b031916911617815580f35b80fd5b91905034610305576020906003199282843601126103055761045a6108ce565b9360018060a01b0393849181835f541697602487518096819363654c629560e01b8352169a8b898301525afa9283156107f4575f936107fe575b50816024966001541686519788809263a612ce2b60e01b82528b898301525afa9081156107f4575f916107c3575b61052896508551936104d38561090c565b5f855286516104e181610928565b600381526060368683013760646104f782610bc8565b52600561050382610be9565b525f61050e82610bf9565b528751988991631888debd60e01b97888452898401610b29565b0397848173ea30c4b8b44078bbf8a6ef5b9f1ec1626c7848d99a815f8d5af190811561078a575f91610794575b50610563906105bf92610982565b928488516105708161090c565b5f815289519061057f82610928565b6003825260603684840137607d61059583610bc8565b5260056105a183610be9565b525f6105ac83610bf9565b528a5194859283928b84528c8401610b29565b03815f8d5af191821561078a575f92610753575b50916105e561027e9692869594610982565b831561073c575b9081610657921561072e575b89519461060486610944565b600286528a368888013761061786610bc8565b5261062185610be9565b52885161062d8161090c565b5f815289519788958695865260058b87015260146024870152608060448701526084860190610af6565b03815f895af1918215610724575f926106f4575b50600290865f525280835f205561068181610a9c565b833b156103055760245f928385519687948593631a778f2d60e11b85528401525af19081156106eb57506106d8575b507f7f62ed89ea2c6fb057e4ea77729c1d3f18056339791fce29ac89760197b45b298280a280f35b6106e39192506108e4565b5f905f6106b0565b513d5f823e3d90fd5b9080925081813d831161071d575b61070c8183610960565b81010312610305575190600261066b565b503d610702565b84513d5f823e3d90fd5b50610737610b5f565b6105f8565b92506106579061074a610b5f565b939091506105ec565b95915092918486813d8311610783575b61076d8183610960565b81010312610305579451909491926105e56105d3565b503d610763565b88513d5f823e3d90fd5b90508481813d83116107bc575b6107ab8183610960565b8101031261030557516105bf610555565b503d6107a1565b90508186813d83116107ed575b6107da8183610960565b81010312610305576105289551906104c2565b503d6107d0565b85513d5f823e3d90fd5b9592508186813d8311610828575b6108168183610960565b81010312610305579451919481610494565b503d61080c565b34610305576020366003190112610305576001600160a01b036108506108ce565b166bffffffffffffffffffffffff60a01b60015416176001555f80f35b8234610305575f366003190112610305575f5490516001600160a01b039091168152602090f35b8390346103055760203660031901126103055760209160ff906001600160a01b036108bd6108ce565b165f52600384525f20541615158152f35b600435906001600160a01b038216820361030557565b67ffffffffffffffff81116108f857604052565b634e487b7160e01b5f52604160045260245ffd5b6020810190811067ffffffffffffffff8211176108f857604052565b6080810190811067ffffffffffffffff8211176108f857604052565b6060810190811067ffffffffffffffff8211176108f857604052565b90601f8019910116810190811067ffffffffffffffff8211176108f857604052565b908115610a8c575b8015610a7e575b6040519161099e83610944565b6002835260403660208501376109b383610bc8565b526109bd82610be9565b526020610a07604051926109d08461090c565b5f8452610a196040519485938493631888debd60e01b855260056004860152600f6024860152608060448601526084850190610af6565b83810360031901606485015290610af6565b03815f73ea30c4b8b44078bbf8a6ef5b9f1ec1626c7848d95af1908115610a73575f91610a44575090565b90506020813d602011610a6b575b81610a5f60209383610960565b81010312610305575190565b3d9150610a52565b6040513d5f823e3d90fd5b50610a87610b5f565b610991565b9050610a96610b5f565b9061098a565b73ea30c4b8b44078bbf8a6ef5b9f1ec1626c7848d990813b15610305575f91604483926040519485938492631974142760e21b845260048401523060248401525af18015610a7357610aeb5750565b610af4906108e4565b565b9081518082526020808093019301915f5b828110610b15575050505090565b835185529381019392810192600101610b07565b9091610b4e610b5c9360058452601a6020850152608060408501526080840190610af6565b916060818403910152610af6565b90565b610a196020604051610b708161090c565b5f815260405190610b8082610928565b60038252606036848401375f610b9583610bc8565b526005610ba183610be9565b525f610bac83610bf9565b52604051631888debd60e01b8152938492839260048401610b29565b805115610bd55760200190565b634e487b7160e01b5f52603260045260245ffd5b805160011015610bd55760400190565b805160021015610bd5576060019056fea26469706673582212206c8723349f8a2b867eab19dc8a965f08ad829f79711063e12d84d8efc53cf79364736f6c63430008190033",
  "linkReferences": {},
  "deployedLinkReferences": {}
}