{
  "_format": "hh-sol-artifact-1",
  "contractName": "PrivateCollateralVault",
  "sourceName": "contracts/PrivateCollateralVault.sol",
  "abi": [
    {
      "inputs": [],
      "stateMutability": "nonpayable",
      "type": "constructor"
    },
    {
      "inputs": [
        {
          "internalType": "uint8",
          "name": "got",
          "type": "uint8"
        },
        {
          "internalType": "uint8",
          "name": "expected",
          "type": "uint8"
        }
      ],
      "name": "InvalidEncryptedInput",
      "type": "error"
    },
    {
      "inputs": [
        {
          "internalType": "int32",
          "name": "value",
          "type": "int32"
        }
      ],
      "name": "SecurityZoneOutOfBounds",
      "type": "error"
    },
    {
      "anonymous": false,
      "inputs": [
        {
          "indexed": true,
          "internalType": "address",
          "name": "user",
          "type": "address"
        }
      ],
      "name": "CollateralDeposited",
      "type": "event"
    },
    {
      "anonymous": false,
      "inputs": [
        {
          "indexed": true,
          "internalType": "address",
          "name": "user",
          "type": "address"
        }
      ],
      "name": "CollateralWithdrawn",
      "type": "event"
    },
    {
      "inputs": [
        {
          "internalType": "address",
          "name": "contractAddress",
          "type": "address"
        }
      ],
      "name": "authorizeContract",
      "outputs": [],
      "stateMutability": "nonpayable",
      "type": "function"
    },
    {
      "inputs": [
        {
          "components": [
            {
              "internalType": "uint256",
              "name": "ctHash",
              "type": "uint256"
            },
            {
              "internalType": "uint8",
              "name": "securityZone",
              "type": "uint8"
            },
            {
              "internalType": "uint8",
              "name": "utype",
              "type": "uint8"
            },
            {
              "internalType": "bytes",
              "name": "signature",
              "type": "bytes"
            }
          ],
          "internalType": "struct InEuint64",
          "name": "encryptedAmount",
          "type": "tuple"
        }
      ],
      "name": "deposit",
      "outputs": [],
      "stateMutability": "nonpayable",
      "type": "function"
    },
    {
      "inputs": [
        {
          "components": [
            {
              "internalType": "uint256",
              "name": "ctHash",
              "type": "uint256"
            },
            {
              "internalType": "uint8",
              "name": "securityZone",
              "type": "uint8"
            },
            {
              "internalType": "uint8",
              "name": "utype",
              "type": "uint8"
            },
            {
              "internalType": "bytes",
              "name": "signature",
              "type": "bytes"
            }
          ],
          "internalType": "struct InEuint64",
          "name": "encryptedAmount",
          "type": "tuple"
        }
      ],
      "name": "depositCollateral",
      "outputs": [],
      "stateMutability": "nonpayable",
      "type": "function"
    },
    {
      "inputs": [
        {
          "internalType": "address",
          "name": "user",
          "type": "address"
        }
      ],
      "name": "getCollateralAmount",
      "outputs": [
        {
          "internalType": "euint64",
          "name": "",
          "type": "bytes32"
        }
      ],
      "stateMutability": "view",
      "type": "function"
    },
    {
      "inputs": [
        {
          "internalType": "address",
          "name": "user",
          "type": "address"
        }
      ],
      "name": "getCollateralHandle",
      "outputs": [
        {
          "internalType": "euint64",
          "name": "",
          "type": "bytes32"
        }
      ],
      "stateMutability": "view",
      "type": "function"
    },
    {
      "inputs": [
        {
          "components": [
            {
              "internalType": "uint256",
              "name": "ctHash",
              "type": "uint256"
            },
            {
              "internalType": "uint8",
              "name": "securityZone",
              "type": "uint8"
            },
            {
              "internalType": "uint8",
              "name": "utype",
              "type": "uint8"
            },
            {
              "internalType": "bytes",
              "name": "signature",
              "type": "bytes"
            }
          ],
          "internalType": "struct InEuint64",
          "name": "encryptedAmount",
          "type": "tuple"
        }
      ],
      "name": "withdraw",
      "outputs": [],
      "stateMutability": "nonpayable",
      "type": "function"
    },
    {
      "inputs": [
        {
          "components": [
            {
              "internalType": "uint256",
              "name": "ctHash",
              "type": "uint256"
            },
            {
              "internalType": "uint8",
              "name": "securityZone",
              "type": "uint8"
            },
            {
              "internalType": "uint8",
              "name": "utype",
              "type": "uint8"
            },
            {
              "internalType": "bytes",
              "name": "signature",
              "type": "bytes"
            }
          ],
          "internalType": "struct InEuint64",
          "name": "encryptedAmount",
          "type": "tuple"
        }
      ],
      "name": "withdrawCollateral",
      "outputs": [],
      "stateMutability": "nonpayable",
      "type": "function"
    }
  ],
  "bytecode": "0x60808060405234601557610d27908161001a8239f35b5f80fdfe60806040526004361015610011575f80fd5b5f3560e01c8063654c62951461013457806367561d931461009d57806369671bcd146100875780638e1b5d9b14610087578063a1bf60841461006b578063a8bbcc071461006b5763dd0fcb5c14610066575f80fd5b610134565b346100835761008161007c3661016f565b61080e565b005b5f80fd5b34610083576100816100983661016f565b610326565b34610083576020366003190112610083576001600160a01b036004358181169081900361008357805f52600160205260405f20805460ff8116156100dd57005b60ff19166001179055600254680100000000000000008110156101205780600161010a92016002556101a1565b909283549160031b92831b921b19161790555f80f35b634e487b7160e01b5f52604160045260245ffd5b34610083576020366003190112610083576004356001600160a01b03811690819003610083575f525f602052602060405f2054604051908152f35b60031990602081830112610083576004359167ffffffffffffffff831161008357826080920301126100835760040190565b6002548110156101d65760025f527f405787fa12a823e0f2b7631cc41b3ba8828b3321ca811111fa75cd3aa3bb5ace01905f90565b634e487b7160e01b5f52603260045260245ffd5b6080810190811067ffffffffffffffff82111761012057604052565b67ffffffffffffffff811161012057604052565b6060810190811067ffffffffffffffff82111761012057604052565b6020810190811067ffffffffffffffff82111761012057604052565b90601f8019910116810190811067ffffffffffffffff82111761012057604052565b359060ff8216820361008357565b9190608083820312610083576040519261029b846101ea565b838135815260206102ad818401610274565b818301526102bd60408401610274565b6040830152606083013567ffffffffffffffff9384821161008357019084601f830112156100835781359384116101205760405194610305601f8601601f1916830187610252565b8486528185840101116100835783606094825f940183880137850101520152565b610334610339913690610282565b610990565b335f5260205f8152604091825f2054156107d55790601391335f525f8252835f2054809180801592836107c5575b801590816107b7575b88519361037c8561021a565b6002855289368987013761038f85610bfd565b5261039984610c0a565b528751946103a686610236565b5f86528851631888debd60e01b93848252816103f26103df60049860058a85015260249d8e850152608060448501526084840190610bca565b6003199a8b848303016064850152610bca565b0396898373ea30c4b8b44078bbf8a6ef5b9f1ec1626c7848d999815f8c5af19283156107ad575f9361077e575b50848492918415610691575b610681575b610671575b8b5192610441846101ea565b600384526060368c86013761045584610bfd565b5261045f83610c0a565b5281516002101561065f57606082015287858a6104bb8d6104ab81519161048583610236565b5f83525196879586958c8752600582880152860152608060448601526084850190610bca565b908c848303016064850152610bca565b03815f8a5af190811561065557918896959493918b935f9161061b575b5092610553610562936005999a93865f9897919261060b575b156105fd575b8351916105038361021a565b6002835284368e85013761051683610bfd565b5261052082610c0a565b52600783519361052f85610236565b888552519d8e9b8c9a8b998a52890152870152608060448701526084860190610bca565b91848303016064850152610bca565b03925af19182156105f3575f926105c2575b5061059b925f8392338252525f205561058c81610ad4565b6105963382610b3e565b610b8f565b337fe5d1c8c974618db76114a0279933f5451b9a9e715f98bdd9c5a543e81a9268aa5f80a2565b91508082813d83116105ec575b6105d98183610252565b810103126100835790519061059b610574565b503d6105cf565b83513d5f823e3d90fd5b50610606610c1a565b6104f7565b9150610615610c1a565b916104f1565b949350509583813d831161064e575b6106348183610252565b81010312610083579151879591928a9290916105536104d8565b503d61062a565b8a513d5f823e3d90fd5b89603287634e487b7160e01b5f52525ffd5b905061067b610c1a565b90610435565b905061068b610c1a565b90610430565b9350508b5161069f81610236565b5f81528c51906106ae826101ea565b600382526060368d8401375f6106c383610bfd565b525f6106ce83610c0a565b5281516002101561076c5788888f8f8f94958f915f97601a61055392610713968b6060870152519a8b998a998a52890152870152608060448701526084860190610bca565b03815f8d5af1908115610762579086915f91610731575b509361042b565b8092508c8092503d831161075b575b61074a8183610252565b81010312610083578590515f61072a565b503d610740565b8d513d5f823e3d90fd5b8c60328a634e487b7160e01b5f52525ffd5b9092508981813d83116107a6575b6107968183610252565b810103126100835751915f61041f565b503d61078c565b8c513d5f823e3d90fd5b506107c0610c1a565b610370565b91506107cf610c1a565b91610367565b50606491519062461bcd60e51b825260048201526013602482015272139bc818dbdb1b185d195c985b08199bdd5b99606a1b6044820152fd5b61033461081c913690610282565b335f5260205f8152604091825f205480159182155f1461097e5780919261096e575b15610960575b8351916108508361021a565b6002835284368585013761086383610bfd565b5261086d82610c0a565b52816108b484519261087e84610236565b5f84526108c686519485938493631888debd60e01b85526005600486015260086024860152608060448601526084850190610bca565b83810360031901606485015290610bca565b03815f73ea30c4b8b44078bbf8a6ef5b9f1ec1626c7848d95af19081156105f3575f9161092f575b5090610908925f83925b338252525f205561058c81610ad4565b337fd4214f554639bc69896dab335296473fd72a11520095258c80f22bd515acb9f75f80a2565b9180915082813d8311610959575b6109478183610252565b810103126100835790516109086108ee565b503d61093d565b50610969610c1a565b610844565b9150610978610c1a565b9161083e565b5f9392506109089491509283926108f8565b60409060ff828201511660058103610ab65750606060ff918351906109b4826101ea565b5f825282602093835f86809601525f88820152015260e481518360608782860151169401518851926109e5846101ea565b83528183019485528789840160058152606085019283528a51998a9788966313fce3b160e11b88528d6004890152516044880152511660648601525116608484015251608060a484015280519182918260c4860152018484015e5f838284010152336024830152601f801991011681010301815f73ea30c4b8b44078bbf8a6ef5b9f1ec1626c7848d95af1928315610aad57505f92610a8357505090565b90809250813d8311610aa6575b610a9a8183610252565b81010312610083575190565b503d610a90565b513d5f823e3d90fd5b6044908351906367cf307160e01b8252600482015260056024820152fd5b73ea30c4b8b44078bbf8a6ef5b9f1ec1626c7848d9803b1561008357604051631974142760e21b815260048101929092523060248301525f908290818381604481015b03925af18015610b3357610b285750565b610b3190610206565b565b6040513d5f823e3d90fd5b73ea30c4b8b44078bbf8a6ef5b9f1ec1626c7848d991823b1561008357604051631974142760e21b815260048101929092526001600160a01b03166024820152905f90829081838160448101610b17565b905f5b600254811015610bc55780610bbf610bab6001936101a1565b848060a01b0391549060031b1c1685610b3e565b01610b92565b509050565b9081518082526020808093019301915f5b828110610be9575050505090565b835185529381019392810192600101610bdb565b8051156101d65760200190565b8051600110156101d65760400190565b604051610c2681610236565b5f815260405190610c36826101ea565b6003825260603660208401375f610c4c83610bfd565b526005610c5883610c0a565b528151600210156101d6576108b46020915f6060850152610ca36040519485938493631888debd60e01b855260056004860152601a6024860152608060448601526084850190610bca565b03815f73ea30c4b8b44078bbf8a6ef5b9f1ec1626c7848d95af1908115610b33575f91610cce575090565b90506020813d602011610ce9575b81610a9a60209383610252565b3d9150610cdc56fea2646970667358221220aad1e8f0594397a62f3a00dd3d5a98631ddf4dea56a4dc73c39552f140b6bb5d64736f6c63430008190033",
  "linkReferences": {},
  "deployedLinkReferences": {}
}