{
  "_format": "hh-sol-artifact-1",
  "contractName": "PrivateBorrowManager",
  "sourceName": "contracts/PrivateBorrowManager.sol",
  "abi": [
    {
      "inputs": [
        {
          "internalType": "address",
          "name": "_collateralVault",
          "type": "address"
        }
      ],
      "stateMutability": "nonpayable",
      "type": "constructor"
    },
    {
      "inputs": [
        {
          "internalType": "uint8",
          "name": "got",
          "type": "uint8"
        },
        {
          "internalType": "uint8",
          "name": "expected",
          "type": "uint8"
        }
      ],
      "name": "InvalidEncryptedInput",
      "type": "error"
    },
    {
      "inputs": [
        {
          "internalType": "int32",
          "name": "value",
          "type": "int32"
        }
      ],
      "name": "SecurityZoneOutOfBounds",
      "type": "error"
    },
    {
      "anonymous": false,
      "inputs": [
        {
          "indexed": true,
          "internalType": "address",
          "name": "user",
          "type": "address"
        }
      ],
      "name": "Borrowed",
      "type": "event"
    },
    {
      "anonymous": false,
      "inputs": [
        {
          "indexed": true,
          "internalType": "address",
          "name": "user",
          "type": "address"
        },
        {
          "indexed": false,
          "internalType": "uint64",
          "name": "cleartextDebt",
          "type": "uint64"
        }
      ],
      "name": "DebtProfileRevealed",
      "type": "event"
    },
    {
      "anonymous": false,
      "inputs": [
        {
          "indexed": true,
          "internalType": "address",
          "name": "user",
          "type": "address"
        },
        {
          "indexed": false,
          "internalType": "bytes32",
          "name": "handle",
          "type": "bytes32"
        }
      ],
      "name": "DecryptionRequested",
      "type": "event"
    },
    {
      "anonymous": false,
      "inputs": [
        {
          "indexed": true,
          "internalType": "address",
          "name": "user",
          "type": "address"
        }
      ],
      "name": "Repaid",
      "type": "event"
    },
    {
      "inputs": [
        {
          "internalType": "address",
          "name": "contractAddress",
          "type": "address"
        }
      ],
      "name": "authorizeContract",
      "outputs": [],
      "stateMutability": "nonpayable",
      "type": "function"
    },
    {
      "inputs": [
        {
          "components": [
            {
              "internalType": "uint256",
              "name": "ctHash",
              "type": "uint256"
            },
            {
              "internalType": "uint8",
              "name": "securityZone",
              "type": "uint8"
            },
            {
              "internalType": "uint8",
              "name": "utype",
              "type": "uint8"
            },
            {
              "internalType": "bytes",
              "name": "signature",
              "type": "bytes"
            }
          ],
          "internalType": "struct InEuint64",
          "name": "encryptedAmount",
          "type": "tuple"
        }
      ],
      "name": "borrow",
      "outputs": [],
      "stateMutability": "nonpayable",
      "type": "function"
    },
    {
      "inputs": [],
      "name": "collateralVault",
      "outputs": [
        {
          "internalType": "contract PrivateCollateralVault",
          "name": "",
          "type": "address"
        }
      ],
      "stateMutability": "view",
      "type": "function"
    },
    {
      "inputs": [
        {
          "internalType": "address",
          "name": "user",
          "type": "address"
        },
        {
          "internalType": "uint64",
          "name": "cleartextDebt",
          "type": "uint64"
        },
        {
          "internalType": "bytes",
          "name": "signature",
          "type": "bytes"
        }
      ],
      "name": "finalizePublicDebt",
      "outputs": [],
      "stateMutability": "nonpayable",
      "type": "function"
    },
    {
      "inputs": [
        {
          "internalType": "address",
          "name": "user",
          "type": "address"
        }
      ],
      "name": "getDebtAmount",
      "outputs": [
        {
          "internalType": "euint64",
          "name": "",
          "type": "bytes32"
        }
      ],
      "stateMutability": "view",
      "type": "function"
    },
    {
      "inputs": [
        {
          "internalType": "address",
          "name": "user",
          "type": "address"
        }
      ],
      "name": "getDebtHandle",
      "outputs": [
        {
          "internalType": "euint64",
          "name": "",
          "type": "bytes32"
        }
      ],
      "stateMutability": "view",
      "type": "function"
    },
    {
      "inputs": [],
      "name": "lendingPool",
      "outputs": [
        {
          "internalType": "address",
          "name": "",
          "type": "address"
        }
      ],
      "stateMutability": "view",
      "type": "function"
    },
    {
      "inputs": [
        {
          "components": [
            {
              "internalType": "uint256",
              "name": "ctHash",
              "type": "uint256"
            },
            {
              "internalType": "uint8",
              "name": "securityZone",
              "type": "uint8"
            },
            {
              "internalType": "uint8",
              "name": "utype",
              "type": "uint8"
            },
            {
              "internalType": "bytes",
              "name": "signature",
              "type": "bytes"
            }
          ],
          "internalType": "struct InEuint64",
          "name": "encryptedAmount",
          "type": "tuple"
        }
      ],
      "name": "repay",
      "outputs": [],
      "stateMutability": "nonpayable",
      "type": "function"
    },
    {
      "inputs": [
        {
          "internalType": "address",
          "name": "user",
          "type": "address"
        }
      ],
      "name": "requestPublicDebt",
      "outputs": [],
      "stateMutability": "nonpayable",
      "type": "function"
    },
    {
      "inputs": [
        {
          "internalType": "address",
          "name": "_vault",
          "type": "address"
        }
      ],
      "name": "setCollateralVault",
      "outputs": [],
      "stateMutability": "nonpayable",
      "type": "function"
    },
    {
      "inputs": [
        {
          "internalType": "address",
          "name": "_lendingPool",
          "type": "address"
        }
      ],
      "name": "setLendingPool",
      "outputs": [],
      "stateMutability": "nonpayable",
      "type": "function"
    }
  ],
  "bytecode": "0x608034606f57601f61147638819003918201601f19168301916001600160401b03831184841017607357808492602094604052833981010312606f57516001600160a01b03811690819003606f575f80546001600160a01b0319169190911790556040516113ee90816100888239f35b5f80fd5b634e487b7160e01b5f52604160045260245ffdfe6080604081815260049081361015610015575f80fd5b5f925f3560e01c9081630bece79c14610b7c575080631054a3e0146108be578063113aa8b1146108805780632bc5b9421461072a5780635d3f3b9f1461066257806367561d93146105c557806368a806c41461058c578063a59a99731461055f578063a612ce2b1461055a578063a83fec2f1461055a5763da3f87561461009a575f80fd5b34610556576100b96100b4366100af36610b9e565b610d10565b610dd2565b3384526002916020918383528186205415155f146105485733865283835281862054905b8654835163654c629560e01b81523388820152908590829060249082906001600160a01b03165afa90811561053e57889161050d575b5081839284156104fd575b156104ef575b84519261013084610c62565b87845285368886013761014284611329565b5261014c83611336565b5283519661015988610c7e565b5f8852845197886101a3610190631888debd60e01b96878452600586850152600860248501526080604485015260848401906112c0565b60031993848483030160648501526112c0565b0392878a73ea30c4b8b44078bbf8a6ef5b9f1ec1626c7848d995815f885af1998a156104e5575f9a6104b6575b5086516101dc81610c7e565b5f81528751906101eb82610c46565b600382526060368b840137606461020183611329565b52600561020d83611336565b5281518b101561047257818a915f6060610236969501528a5194859283928b84528984016112f3565b03815f895af1908115610468575f91610485575b61025492506111f9565b865161025f81610c7e565b5f815287519061026e82610c46565b600382526060368b840137609661028483611329565b52600561029083611336565b5281518b101561047257818a915f60606102b89501528a5193849283928b84528984016112f3565b03815f895af190811561046857918a9593918c8b96945f92610430575b50926005969798926102eb610368935f966111f9565b908015610422575b8115610412575b8c519a6103068c610c62565b8b528c368b8d01376103178b611329565b526103218a611336565b528a5161032d81610c7e565b8481526103598c519a8b998a9889978852870152601260248701526080604487015260848601906112c0565b918483030160648501526112c0565b03925af1908115610408575f916103d3575b50906103ab9561038992610eff565b9283923387525284205561039c8161110e565b6103a6338261116d565b6111be565b337f7c2296a8bd586b4860d6bfdd0917f50dffd764d8bfdb183f865296fff404d7098280a280f35b9190508382813d8311610401575b6103eb8183610c9a565b810103126103fd5790516103ab61037a565b5f80fd5b503d6103e1565b83513d5f823e3d90fd5b905061041c611346565b906102fa565b5061042b611346565b6102f3565b97505050909385813d8311610461575b61044a8183610c9a565b810103126103fd57935189948994918c60056102d5565b503d610440565b88513d5f823e3d90fd5b603285634e487b7160e01b5f525260245ffd5b90508882813d83116104af575b61049c8183610c9a565b810103126103fd5761025491519061024a565b503d610492565b9099508781813d83116104de575b6104ce8183610c9a565b810103126103fd5751985f6101d0565b503d6104c4565b87513d5f823e3d90fd5b506104f8611346565b610124565b9250610507611346565b9261011e565b90508481813d8311610537575b6105248183610c9a565b8101031261053357515f610113565b8780fd5b503d61051a565b84513d8a823e3d90fd5b610550611346565b906100dd565b8280fd5b610be6565b83823461058857816003193601126105885760015490516001600160a01b039091168152602090f35b5080fd5b83346105c25760203660031901126105c2576001600160a01b036105ae610bd0565b82546001600160a01b031916911617815580f35b80fd5b50829034610588576020366003190112610588576001600160a01b0390816105eb610bd0565b169081845260036020528320805460ff811615610606578480f35b60ff1916600117905583546801000000000000000081101561064f5761063491929394600182019055610d89565b909283549160031b92831b921b191617905580828080808480f35b634e487b7160e01b845260418552602484fd5b509034610556576020366003190112610556576001600160a01b03610685610bd0565b1691828452600260205283818120549273ea30c4b8b44078bbf8a6ef5b9f1ec1626c7848d990813b156105565784602484928387519586948593631a778f2d60e11b85528401525af1801561072057610708575b50507f4ea948a3c7b5d6e6df86be3c2c0321d213985e6171ef65ff61336a782e683ded9160209151908152a280f35b61071190610c1e565b61071c57835f6106d9565b8380fd5b83513d84823e3d90fd5b5090346103fd5760603660031901126103fd57610745610bd0565b916024359167ffffffffffffffff908184168094036103fd57604435948286116103fd57366023870112156103fd57858201359283116103fd5736602484880101116103fd576107af9060018060a01b031695865f526002602052845f2054936024369201610cca565b73ea30c4b8b44078bbf8a6ef5b9f1ec1626c7848d9803b156103fd576107ff935f8094875196879586948593631868370160e01b85528401528a602484015260606044840152606483019061129c565b03925af180156108765761083c575b507fd8b4648489694f1a6951d5359521b3fabd564d9e5290e5e288d65adae48856e79160209151908152a280f35b60209194509161086c7fd8b4648489694f1a6951d5359521b3fabd564d9e5290e5e288d65adae48856e793610c1e565b5f9491509161080e565b82513d5f823e3d90fd5b346103fd5760203660031901126103fd576001600160a01b036108a1610bd0565b166bffffffffffffffffffffffff60a01b60015416176001555f80f35b5090346103fd576108d56100b4366100af36610b9e565b335f5260209060028252835f205415610b4b57335f5260028252835f2054928382908315610b3b575b85159586610b2d575b87519261091384610c62565b6002845288368886013761092684611329565b5261093083611336565b5286519061093d82610c7e565b5f825287519485610987610974631888debd60e01b96878452600589850152601360248501526080604485015260848401906112c0565b60031995868483030160648501526112c0565b0395878173ea30c4b8b44078bbf8a6ef5b9f1ec1626c7848d998815f8b5af18015610b235783915f91610af0575b50916109c092610eff565b9096610acc575b859492610a3b60059593835f9415610abe575b8b519a6109e68c610c62565b60028c528c368b8e01376109f98c611329565b52610a038b611336565b528a51610a0f81610c7e565b8481526103598c519b8c998a9889978852870152600760248701526080604487015260848601906112c0565b03925af1918215610408575f92610a8d575b50610a669260028392335f52525f205561039c8161110e565b337f05d1afa4e43dbce3b369dc63aa54be0236311f52799da52a837aeb34453824eb5f80a2005b91508082813d8311610ab7575b610aa48183610c9a565b810103126103fd57905190610a66610a4d565b503d610a9a565b50610ac7611346565b6109da565b9550915f859492610a3b600595610ae1611346565b999350939550509294506109c7565b809250898092503d8311610b1c575b610b098183610c9a565b810103126103fd575182906109c06109b5565b503d610aff565b8a513d5f823e3d90fd5b50610b36611346565b610907565b9050610b45611346565b906108fe565b50606492519162461bcd60e51b8352820152600d60248201526c139bc81919589d08199bdd5b99609a1b6044820152fd5b346103fd575f3660031901126103fd575f546001600160a01b03168152602090f35b600319906020818301126103fd576004359167ffffffffffffffff83116103fd57826080920301126103fd5760040190565b600435906001600160a01b03821682036103fd57565b346103fd5760203660031901126103fd576001600160a01b03610c07610bd0565b165f526002602052602060405f2054604051908152f35b67ffffffffffffffff8111610c3257604052565b634e487b7160e01b5f52604160045260245ffd5b6080810190811067ffffffffffffffff821117610c3257604052565b6060810190811067ffffffffffffffff821117610c3257604052565b6020810190811067ffffffffffffffff821117610c3257604052565b90601f8019910116810190811067ffffffffffffffff821117610c3257604052565b359060ff821682036103fd57565b92919267ffffffffffffffff8211610c325760405191610cf4601f8201601f191660200184610c9a565b8294818452818301116103fd578281602093845f960137010152565b91906080838203126103fd5760405190610d2982610c46565b819380358352610d3b60208201610cbc565b6020840152610d4c60408201610cbc565b604084015260608101359067ffffffffffffffff82116103fd570181601f820112156103fd57606091816020610d8493359101610cca565b910152565b600454811015610dbe5760045f527f8a35acfbc15ff81a39ae7d344fd709f28e8600b4aa8c65c6b64bfe7fe36bd19b01905f90565b634e487b7160e01b5f52603260045260245ffd5b60409060ff828201511660058103610ee15750606060ff91835190610df682610c46565b5f825282602093835f86809601525f8882015201528051610e7b6060868585015116930151875192610e2784610c46565b8352848301938452868884016005815260608501928352895198899687966313fce3b160e11b88528c6004890152516044880152511660648601525116608484015251608060a484015260c483019061129c565b33602483015203815f73ea30c4b8b44078bbf8a6ef5b9f1ec1626c7848d95af1928315610ed857505f92610eae57505090565b90809250813d8311610ed1575b610ec58183610c9a565b810103126103fd575190565b503d610ebb565b513d5f823e3d90fd5b6044908351906367cf307160e01b8252600482015260056024820152fd5b91908215611024575b8015611016575b8115611006575b60405192610f2384610c46565b600384526060366020860137610f3884611329565b52610f4283611336565b52815160021015610dbe5760608201526020610f9b60405192610f6484610c7e565b5f8452610fad6040519485938493631888debd60e01b855260056004860152600460248601526080604486015260848501906112c0565b838103600319016064850152906112c0565b03815f73ea30c4b8b44078bbf8a6ef5b9f1ec1626c7848d95af1908115610ffb575f91610fd8575090565b90506020813d602011610ff3575b81610ec560209383610c9a565b3d9150610fe6565b6040513d5f823e3d90fd5b9050611010611346565b90610f16565b5061101f611346565b610f0f565b915060405161103281610c7e565b5f81526040519061104282610c46565b6003825260603660208401375f61105883611329565b525f61106383611336565b52815160021015610dbe57610f9b6020915f60608501526110ad6040519485938493631888debd60e01b85525f6004860152601a60248601526080604486015260848501906112c0565b03815f73ea30c4b8b44078bbf8a6ef5b9f1ec1626c7848d95af1908115610ffb575f916110dc575b5091610f08565b90506020813d602011611106575b816110f760209383610c9a565b810103126103fd57515f6110d5565b3d91506110ea565b73ea30c4b8b44078bbf8a6ef5b9f1ec1626c7848d9803b156103fd57604051631974142760e21b815260048101929092523060248301525f908290818381604481015b03925af18015610ffb576111625750565b61116b90610c1e565b565b73ea30c4b8b44078bbf8a6ef5b9f1ec1626c7848d991823b156103fd57604051631974142760e21b815260048101929092526001600160a01b03166024820152905f90829081838160448101611151565b905f5b6004548110156111f457806111ee6111da600193610d89565b848060a01b0391549060031b1c168561116d565b016111c1565b509050565b90811561128c575b801561127e575b6040519161121583610c62565b60028352604036602085013761122a83611329565b5261123482611336565b526020610f9b6040519261124784610c7e565b5f8452610fad6040519485938493631888debd60e01b855260056004860152600f60248601526080604486015260848501906112c0565b50611287611346565b611208565b9050611296611346565b90611201565b805180835260209291819084018484015e5f828201840152601f01601f1916010190565b9081518082526020808093019301915f5b8281106112df575050505090565b8351855293810193928101926001016112d1565b90916113186113269360058452601a60208501526080604085015260808401906112c0565b9160608184039101526112c0565b90565b805115610dbe5760200190565b805160011015610dbe5760400190565b60405161135281610c7e565b5f81526040519061136282610c46565b6003825260603660208401375f61137883611329565b52600561138483611336565b52815160021015610dbe575f6060830152604051631888debd60e01b81529160209183918291610fad9190600484016112f356fea2646970667358221220f1865ffce88b9aa5efe50a96167c7d5227f5116aa7feaf24f577addaff8d5acf64736f6c63430008190033",
  "linkReferences": {},
  "deployedLinkReferences": {}
}