{
  "_format": "hh-sol-artifact-1",
  "contractName": "ProtocolFunds",
  "sourceName": "contracts/ProtocolFunds.sol",
  "abi": [
    {
      "inputs": [],
      "stateMutability": "nonpayable",
      "type": "constructor"
    },
    {
      "inputs": [
        {
          "internalType": "uint8",
          "name": "got",
          "type": "uint8"
        },
        {
          "internalType": "uint8",
          "name": "expected",
          "type": "uint8"
        }
      ],
      "name": "InvalidEncryptedInput",
      "type": "error"
    },
    {
      "inputs": [
        {
          "internalType": "address",
          "name": "owner",
          "type": "address"
        }
      ],
      "name": "OwnableInvalidOwner",
      "type": "error"
    },
    {
      "inputs": [
        {
          "internalType": "address",
          "name": "account",
          "type": "address"
        }
      ],
      "name": "OwnableUnauthorizedAccount",
      "type": "error"
    },
    {
      "inputs": [
        {
          "internalType": "int32",
          "name": "value",
          "type": "int32"
        }
      ],
      "name": "SecurityZoneOutOfBounds",
      "type": "error"
    },
    {
      "anonymous": false,
      "inputs": [
        {
          "indexed": true,
          "internalType": "address",
          "name": "token",
          "type": "address"
        }
      ],
      "name": "FundsDeposited",
      "type": "event"
    },
    {
      "anonymous": false,
      "inputs": [
        {
          "indexed": true,
          "internalType": "address",
          "name": "token",
          "type": "address"
        },
        {
          "indexed": true,
          "internalType": "address",
          "name": "to",
          "type": "address"
        }
      ],
      "name": "FundsWithdrawn",
      "type": "event"
    },
    {
      "anonymous": false,
      "inputs": [
        {
          "indexed": true,
          "internalType": "address",
          "name": "previousOwner",
          "type": "address"
        },
        {
          "indexed": true,
          "internalType": "address",
          "name": "newOwner",
          "type": "address"
        }
      ],
      "name": "OwnershipTransferred",
      "type": "event"
    },
    {
      "inputs": [
        {
          "internalType": "address",
          "name": "token",
          "type": "address"
        },
        {
          "internalType": "euint64",
          "name": "amount",
          "type": "bytes32"
        }
      ],
      "name": "deposit",
      "outputs": [],
      "stateMutability": "nonpayable",
      "type": "function"
    },
    {
      "inputs": [
        {
          "internalType": "address",
          "name": "token",
          "type": "address"
        }
      ],
      "name": "getTokenBalance",
      "outputs": [
        {
          "internalType": "euint64",
          "name": "",
          "type": "bytes32"
        }
      ],
      "stateMutability": "view",
      "type": "function"
    },
    {
      "inputs": [],
      "name": "owner",
      "outputs": [
        {
          "internalType": "address",
          "name": "",
          "type": "address"
        }
      ],
      "stateMutability": "view",
      "type": "function"
    },
    {
      "inputs": [],
      "name": "renounceOwnership",
      "outputs": [],
      "stateMutability": "nonpayable",
      "type": "function"
    },
    {
      "inputs": [
        {
          "internalType": "address",
          "name": "newOwner",
          "type": "address"
        }
      ],
      "name": "transferOwnership",
      "outputs": [],
      "stateMutability": "nonpayable",
      "type": "function"
    },
    {
      "inputs": [
        {
          "internalType": "address",
          "name": "token",
          "type": "address"
        },
        {
          "internalType": "euint64",
          "name": "amount",
          "type": "bytes32"
        },
        {
          "internalType": "address",
          "name": "to",
          "type": "address"
        }
      ],
      "name": "withdraw",
      "outputs": [],
      "stateMutability": "nonpayable",
      "type": "function"
    },
    {
      "inputs": [
        {
          "internalType": "address",
          "name": "token",
          "type": "address"
        },
        {
          "components": [
            {
              "internalType": "uint256",
              "name": "ctHash",
              "type": "uint256"
            },
            {
              "internalType": "uint8",
              "name": "securityZone",
              "type": "uint8"
            },
            {
              "internalType": "uint8",
              "name": "utype",
              "type": "uint8"
            },
            {
              "internalType": "bytes",
              "name": "signature",
              "type": "bytes"
            }
          ],
          "internalType": "struct InEuint64",
          "name": "encAmount",
          "type": "tuple"
        },
        {
          "internalType": "address",
          "name": "to",
          "type": "address"
        }
      ],
      "name": "withdrawFees",
      "outputs": [],
      "stateMutability": "nonpayable",
      "type": "function"
    }
  ],
  "bytecode": "0x6080806040523460765733156061575f8054336001600160a01b03198216811783556040519290916001600160a01b0316907f8be0079c531659141344cd1fd0a4f28419497f9722a3daafe3b4186f6b6457e09080a3610d0b908161007b8239f35b631e4fbdf760e01b81525f6004820152602490fd5b5f80fdfe604060808152600480361015610013575f80fd5b5f3560e01c806332d5ea451461072d5780633757d1ce146103625780633aecd0e31461032b578063715018a6146102d45780638da5cb5b146102ad578063b9e1aa03146100f75763f2fde38b14610068575f80fd5b346100f35760203660031901126100f357610081610833565b9061008a6108f7565b6001600160a01b039182169283156100dd5750505f54826bffffffffffffffffffffffff60a01b8216175f55167f8be0079c531659141344cd1fd0a4f28419497f9722a3daafe3b4186f6b6457e05f80a3005b905f6024925191631e4fbdf760e01b8352820152fd5b5f80fd5b5090346100f3576003199080823601126100f357610113610833565b6024359060018060a01b031693845f5260209360018552835f20805415155f1461029c5790859291549380851561027e575b916101ca916005949315610270575b875196610160886108ab565b600288528836888a013761017388610b53565b5261017d87610b74565b5286516101898161088f565b5f81526101bb88519788968796631888debd60e01b885287015260086024870152608060448701526084860190610990565b91848303016064850152610990565b03815f73ea30c4b8b44078bbf8a6ef5b9f1ec1626c7848d95af1908115610266575f91610237575b5061021192600191855f52828252835f20555b845f52525f2054610922565b7f159f8dfa9b69f5058b34dbc301206502f66fe3fb36973690ce03dbdb1f7d5c7a5f80a2005b90508281813d831161025f575b61024e81836108c7565b810103126100f357516102116101f2565b503d610244565b82513d5f823e3d90fd5b50610279610bc5565b610154565b9450600592916101ca91610290610bc5565b96919394509150610145565b610211959250600193915055610205565b82346100f3575f3660031901126100f3575f5490516001600160a01b039091168152602090f35b346100f3575f3660031901126100f3576102ec6108f7565b5f80546001600160a01b0319811682556001600160a01b03167f8be0079c531659141344cd1fd0a4f28419497f9722a3daafe3b4186f6b6457e08280a3005b82346100f35760203660031901126100f3576020906001600160a01b03610350610833565b165f5260018252805f20549051908152f35b50346100f3576003196060368201126100f35761037d610833565b90602480359467ffffffffffffffff928387116100f35760809087360301126100f3576103a8610849565b926103b16108f7565b8151926103bd8461085f565b8787013584526103ce8189016108e9565b916020948581019384526103e460448b016108e9565b998582019a8b526064810135908382116100f35701366023820112156100f3578981013592831161071b578551601f199b9093610428601f82018e168a01866108c7565b808552368682850101116100f35788815f928860ff96018389013786010152606083019384525116600581036106ff575088869798999a8794879460ff8060e4966060808a516104778161085f565b5f81525f8d8201525f8c8201520152519951169151918751996104998b61085f565b8a52888a0190815281888b01916005835260608c0194855289519b8c9a8b996313fce3b160e11b8b528a0152516044890152511660648701525116608485015251608060a485015280519a8b918260c4870152018585015e5f848b850101523390830152601f73ea30c4b8b44078bbf8a6ef5b9f1ec1626c7848d999011681010301815f885af1908115610266575f916106d2575b506105376108f7565b6105b48360018060a01b0380981698895f5260018252845f20549661058a85898a1597886106bd575b61057190831592836106ad576109f9565b888c9392821561069d575b61068d575b61067d57610b84565b5f8751936105978561088f565b8185528851631888debd60e01b81529687958694859384016109c3565b03925af1908115610673575f9161063d575b506105f5946001949392826105e693929161062d575b1561061d57610adc565b928392885f52525f2055610922565b16907f827966c9d7aba0930209b1790b4ca642442374ffc3c9ff99185ba1863b0756575f80a3005b9050610627610bc5565b90610adc565b9050610637610bc5565b906105dc565b90508381819493953d831161066c575b61065781836108c7565b810103126100f35751919290916105f56105c6565b503d61064d565b83513d5f823e3d90fd5b9150610687610bc5565b91610b84565b9150610697610bc5565b91610581565b91506106a7610c4e565b9161057c565b90506106b7610bc5565b906109f9565b90506105716106ca610bc5565b919050610560565b90508281813d83116106f8575b6106e981836108c7565b810103126100f357515f61052e565b503d6106df565b896005856044938951936367cf307160e01b8552840152820152fd5b8360418b634e487b7160e01b5f52525ffd5b50346100f35760603660031901126100f357610747610833565b9060243590610754610849565b9161075d6108f7565b60018060a01b0380941694855f5260209160018352815f205493836107ae83878815958661081e575b61079790831592836106ad576109f9565b868a9392821561069d5761068d5761067d57610b84565b8451926107ba8461088f565b5f84526107d886519485938493631888debd60e01b855284016109c3565b03815f73ea30c4b8b44078bbf8a6ef5b9f1ec1626c7848d95af1908115610673575f9161063d57506105f5946001949392826105e693929161062d571561061d57610adc565b905061079761082b610bc5565b919050610786565b600435906001600160a01b03821682036100f357565b604435906001600160a01b03821682036100f357565b6080810190811067ffffffffffffffff82111761087b57604052565b634e487b7160e01b5f52604160045260245ffd5b6020810190811067ffffffffffffffff82111761087b57604052565b6060810190811067ffffffffffffffff82111761087b57604052565b90601f8019910116810190811067ffffffffffffffff82111761087b57604052565b359060ff821682036100f357565b5f546001600160a01b0316330361090a57565b60405163118cdaa760e01b8152336004820152602490fd5b73ea30c4b8b44078bbf8a6ef5b9f1ec1626c7848d990813b156100f3575f91604483926040519485938492631974142760e21b845260048401523060248401525af18015610985576109715750565b67ffffffffffffffff811161087b57604052565b6040513d5f823e3d90fd5b9081518082526020808093019301915f5b8281106109af575050505090565b8351855293810193928101926001016109a1565b90916109e86109f6936005845260046020850152608060408501526080840190610990565b916060818403910152610990565b90565b9060405191610a07836108ab565b600283526040366020850137610a1c83610b53565b52610a2682610b74565b526020610a7060405192610a398461088f565b5f8452610a826040519485938493631888debd60e01b85526005600486015260126024860152608060448601526084850190610990565b83810360031901606485015290610990565b03815f73ea30c4b8b44078bbf8a6ef5b9f1ec1626c7848d95af1908115610985575f91610aad575090565b90506020813d602011610ad4575b81610ac8602093836108c7565b810103126100f3575190565b3d9150610abb565b9060405191610aea836108ab565b600283526040366020850137610aff83610b53565b52610b0982610b74565b526020610a7060405192610b1c8461088f565b5f8452610a826040519485938493631888debd60e01b85526005600486015260076024860152608060448601526084850190610990565b805115610b605760200190565b634e487b7160e01b5f52603260045260245ffd5b805160011015610b605760400190565b919060405192610b938461085f565b600384526060366020860137610ba884610b53565b52610bb283610b74565b52815160021015610b6057606082015290565b604051610bd18161088f565b5f815260405190610be18261085f565b6003825260603660208401375f610bf783610b53565b526005610c0383610b74565b52815160021015610b6057610a706020915f6060850152610a826040519485938493631888debd60e01b855260056004860152601a6024860152608060448601526084850190610990565b604051610c5a8161088f565b5f815260405190610c6a8261085f565b6003825260603660208401375f610c8083610b53565b525f610c8b83610b74565b52815160021015610b6057610a706020915f6060850152610a826040519485938493631888debd60e01b85525f6004860152601a602486015260806044860152608485019061099056fea264697066735822122092ca3699d922f67455e099867c766220d9fc25a0913215a427ba6ce092b87b9064736f6c63430008190033",
  "linkReferences": {},
  "deployedLinkReferences": {}
}