{
  "_format": "hh-sol-artifact-1",
  "contractName": "ScoreManager",
  "sourceName": "contracts/ScoreManager.sol",
  "abi": [
    {
      "inputs": [
        {
          "internalType": "address",
          "name": "_poolManager",
          "type": "address"
        },
        {
          "internalType": "address",
          "name": "_creditOracle",
          "type": "address"
        }
      ],
      "stateMutability": "nonpayable",
      "type": "constructor"
    },
    {
      "inputs": [
        {
          "internalType": "address",
          "name": "owner",
          "type": "address"
        }
      ],
      "name": "OwnableInvalidOwner",
      "type": "error"
    },
    {
      "inputs": [
        {
          "internalType": "address",
          "name": "account",
          "type": "address"
        }
      ],
      "name": "OwnableUnauthorizedAccount",
      "type": "error"
    },
    {
      "inputs": [
        {
          "internalType": "int32",
          "name": "value",
          "type": "int32"
        }
      ],
      "name": "SecurityZoneOutOfBounds",
      "type": "error"
    },
    {
      "anonymous": false,
      "inputs": [
        {
          "indexed": true,
          "internalType": "address",
          "name": "newOracle",
          "type": "address"
        }
      ],
      "name": "OracleUpdated",
      "type": "event"
    },
    {
      "anonymous": false,
      "inputs": [
        {
          "indexed": true,
          "internalType": "address",
          "name": "previousOwner",
          "type": "address"
        },
        {
          "indexed": true,
          "internalType": "address",
          "name": "newOwner",
          "type": "address"
        }
      ],
      "name": "OwnershipTransferred",
      "type": "event"
    },
    {
      "anonymous": false,
      "inputs": [
        {
          "indexed": true,
          "internalType": "address",
          "name": "user",
          "type": "address"
        },
        {
          "indexed": false,
          "internalType": "uint32",
          "name": "newScore",
          "type": "uint32"
        },
        {
          "indexed": false,
          "internalType": "string",
          "name": "reason",
          "type": "string"
        }
      ],
      "name": "ScoreUpdated",
      "type": "event"
    },
    {
      "inputs": [],
      "name": "MAX_SCORE",
      "outputs": [
        {
          "internalType": "uint32",
          "name": "",
          "type": "uint32"
        }
      ],
      "stateMutability": "view",
      "type": "function"
    },
    {
      "inputs": [],
      "name": "MIN_SCORE",
      "outputs": [
        {
          "internalType": "uint32",
          "name": "",
          "type": "uint32"
        }
      ],
      "stateMutability": "view",
      "type": "function"
    },
    {
      "inputs": [],
      "name": "creditOracle",
      "outputs": [
        {
          "internalType": "contract CreditOracle",
          "name": "",
          "type": "address"
        }
      ],
      "stateMutability": "view",
      "type": "function"
    },
    {
      "inputs": [
        {
          "internalType": "address",
          "name": "user",
          "type": "address"
        }
      ],
      "name": "getCreditLimit",
      "outputs": [
        {
          "internalType": "euint64",
          "name": "",
          "type": "bytes32"
        }
      ],
      "stateMutability": "nonpayable",
      "type": "function"
    },
    {
      "inputs": [
        {
          "internalType": "address",
          "name": "user",
          "type": "address"
        }
      ],
      "name": "getScore",
      "outputs": [
        {
          "internalType": "euint32",
          "name": "",
          "type": "bytes32"
        }
      ],
      "stateMutability": "nonpayable",
      "type": "function"
    },
    {
      "inputs": [],
      "name": "owner",
      "outputs": [
        {
          "internalType": "address",
          "name": "",
          "type": "address"
        }
      ],
      "stateMutability": "view",
      "type": "function"
    },
    {
      "inputs": [],
      "name": "poolManager",
      "outputs": [
        {
          "internalType": "contract PoolManager",
          "name": "",
          "type": "address"
        }
      ],
      "stateMutability": "view",
      "type": "function"
    },
    {
      "inputs": [
        {
          "internalType": "address",
          "name": "user",
          "type": "address"
        },
        {
          "internalType": "euint64",
          "name": "amount",
          "type": "bytes32"
        }
      ],
      "name": "recordRepayment",
      "outputs": [],
      "stateMutability": "nonpayable",
      "type": "function"
    },
    {
      "inputs": [],
      "name": "renounceOwnership",
      "outputs": [],
      "stateMutability": "nonpayable",
      "type": "function"
    },
    {
      "inputs": [
        {
          "internalType": "address",
          "name": "_creditOracle",
          "type": "address"
        }
      ],
      "name": "setCreditOracle",
      "outputs": [],
      "stateMutability": "nonpayable",
      "type": "function"
    },
    {
      "inputs": [
        {
          "internalType": "address",
          "name": "newOwner",
          "type": "address"
        }
      ],
      "name": "transferOwnership",
      "outputs": [],
      "stateMutability": "nonpayable",
      "type": "function"
    },
    {
      "inputs": [
        {
          "internalType": "address",
          "name": "user",
          "type": "address"
        },
        {
          "internalType": "int32",
          "name": "delta",
          "type": "int32"
        },
        {
          "internalType": "string",
          "name": "reason",
          "type": "string"
        }
      ],
      "name": "updateScore",
      "outputs": [],
      "stateMutability": "nonpayable",
      "type": "function"
    }
  ],
  "bytecode": "0x6080346100d957601f61190e38819003918201601f19168301916001600160401b038311848410176100dd5780849260409485528339810103126100d957610052602061004b836100f1565b92016100f1565b9033156100c1575f549160018060a01b03908160018060a01b03199333858716175f5560405195823391167f8be0079c531659141344cd1fd0a4f28419497f9722a3daafe3b4186f6b6457e05f80a3168360015416176001551690600254161760025561180890816101068239f35b604051631e4fbdf760e01b81525f6004820152602490fd5b5f80fd5b634e487b7160e01b5f52604160045260245ffd5b51906001600160a01b03821682036100d95756fe6080806040526004361015610012575f80fd5b5f3560e01c90816308654a1014610c7f5750806327ff622314610c635780632c333e251461055f57806340b89270146105435780635976ab98146104dd578063715018a6146104865780638da5cb5b1461045f578063b7a8c1f3146101a9578063d47875d01461017e578063dc4c90d314610156578063e36922a51461012e5763f2fde38b146100a0575f80fd5b3461012a57602036600319011261012a576100b9610fc9565b6100c16110d0565b6001600160a01b03908116908115610112575f54826bffffffffffffffffffffffff60a01b8216175f55167f8be0079c531659141344cd1fd0a4f28419497f9722a3daafe3b4186f6b6457e05f80a3005b604051631e4fbdf760e01b81525f6004820152602490fd5b5f80fd5b3461012a575f36600319011261012a576002546040516001600160a01b039091168152602090f35b3461012a575f36600319011261012a576001546040516001600160a01b039091168152602090f35b3461012a57602036600319011261012a5760206101a161019c610fc9565b611099565b604051908152f35b3461012a57604036600319011261012a576101c2610fc9565b602435906101ce6110d0565b6001600160a01b0381165f8181526004602090815260409091208054929491921561045957906101fe915461133c565b835f526004825260405f20555b825f52600481526102208260405f20546112eb565b825f526004815261023660405f205433906112eb565b825f526004815261024a60405f205461128c565b6040516102568161103f565b600f8152818101906e52657061796d656e7420426f6e757360881b825261027b6110d0565b61028484611099565b60405161029081611023565b5f8152604051906102a08261105b565b600382526060368784013760056102b683611774565b5260046102c283611781565b52815160021015610445575f6060830152604051631888debd60e01b8152918691839182916102f59190600484016114d5565b03815f73ea30c4b8b44078bbf8a6ef5b9f1ec1626c7848d95af190811561043a575f91610401575b50916103b3606094926103a47fc7ddd9a34d7ae09f19664740bae0b870be9557c280fbf6acc9041595d325b8d09861039261038c61036d8960409c9a90879088156103f1575b156103e1576114fa565b61037e610378611647565b826110fb565b610386611647565b906111f7565b9361128c565b8a5f526003875282895f2055826112eb565b6103ae33826112eb565b61128c565b84519485935f85528401525180918160408501528484015e5f828201840152601f01601f19168101030190a2005b90506103eb6115e1565b906114fa565b90506103fb6115e1565b90610363565b9391948093915084813d8311610433575b61041c8183611077565b8101031261012a57925191939092916103b361031d565b503d610412565b6040513d5f823e3d90fd5b634e487b7160e01b5f52603260045260245ffd5b5561020b565b3461012a575f36600319011261012a575f546040516001600160a01b039091168152602090f35b3461012a575f36600319011261012a5761049e6110d0565b5f80546001600160a01b0319811682556001600160a01b03167f8be0079c531659141344cd1fd0a4f28419497f9722a3daafe3b4186f6b6457e08280a3005b3461012a57602036600319011261012a576104f6610fc9565b6104fe6110d0565b600280546001600160a01b0319166001600160a01b039290921691821790557f3df77beb5db05fcdd70a30fc8adf3f83f9501b68579455adbd100b81809403945f80a2005b3461012a575f36600319011261012a57602060405161012c8152f35b3461012a57602036600319011261012a57610578610fc9565b6001546040516306c790df60e11b81526001600160a01b038381166004830181905292602090839060249082905f9086165af191821561043a575f92610c2f575b505f9260246040926002541691835195869384926358887c7560e01b845260048401525af190811561043a575f925f92610bf4575b506105f9838261133c565b908381948215610be4575b8115610bd6575b6040519561061887611007565b60028752604036602089013761062d87611774565b5261063786611781565b5260206106816040519661064a88611023565b5f88526106936040519889938493631888debd60e01b8552600560048601526015602486015260806044860152608485019061146f565b8381036003190160648501529061146f565b03815f73ea30c4b8b44078bbf8a6ef5b9f1ec1626c7848d95af194851561043a575f95610ba2575b50808215610b92575b15610b84575b604051916106d783611007565b6002835260403660208501376106ec83611774565b526106f682611781565b5260206106816040519261070984611023565b5f84526107406040519485938493631888debd60e01b8552600560048601526007602486015260806044860152608485019061146f565b03815f73ea30c4b8b44078bbf8a6ef5b9f1ec1626c7848d95af190811561043a575f91610b50575b5061077f936107799161077961167b565b916113df565b9061078981611099565b604051906107968261103f565b60018252602036818401376107aa82611774565b526020610681604051926107bd8461103f565b6001845282368186013760056107d285611774565b526108076040519485938493631888debd60e01b8552600560048601526002602486015260806044860152608485019061146f565b03815f73ea30c4b8b44078bbf8a6ef5b9f1ec1626c7848d95af190811561043a575f91610b1e575b50808315610b0e575b15610b00575b6040519261084b84611007565b60028452604036602086013761086084611774565b5261086a83611781565b5260206106816040519361087d85611023565b5f85526108b46040519586938493631888debd60e01b855260056004860152600f602486015260806044860152608485019061146f565b03815f73ea30c4b8b44078bbf8a6ef5b9f1ec1626c7848d95af191821561043a575f92610acc575b506040516108e981611023565b5f8152604051906108f98261105b565b6003825260603660208401376103e861091183611774565b52600561091d83611781565b52815160021015610445575f6060830152604051631888debd60e01b815291602091839182916109519190600484016114a2565b03815f73ea30c4b8b44078bbf8a6ef5b9f1ec1626c7848d95af190811561043a575f91610a9a575b50808315610a8a575b15610a7c575b6040519261099584611007565b6002845260403660208601376109aa84611774565b526109b483611781565b526020610681604051936109c785611023565b5f85526109fe6040519586938493631888debd60e01b855260056004860152600d602486015260806044860152608485019061146f565b03815f73ea30c4b8b44078bbf8a6ef5b9f1ec1626c7848d95af191821561043a575f92610a46575b602083610a3384826112eb565b610a3d33826112eb565b6101a18161128c565b91506020823d602011610a74575b81610a6160209383611077565b8101031261012a57905190610a33610a26565b3d9150610a54565b50610a8561167b565b610988565b9250610a9461167b565b92610982565b90506020813d602011610ac4575b81610ab560209383611077565b8101031261012a575183610979565b3d9150610aa8565b9091506020813d602011610af8575b81610ae860209383611077565b8101031261012a575190826108dc565b3d9150610adb565b50610b0961167b565b61083e565b9250610b1861167b565b92610838565b90506020813d602011610b48575b81610b3960209383611077565b8101031261012a57518361082f565b3d9150610b2c565b90506020813d602011610b7c575b81610b6b60209383611077565b8101031261012a575161077f610768565b3d9150610b5e565b50610b8d61167b565b6106ca565b9150610b9c61167b565b916106c4565b9094506020813d602011610bce575b81610bbe60209383611077565b8101031261012a575193866106bb565b3d9150610bb1565b50610bdf61167b565b61060b565b9450610bee61167b565b94610604565b925090506040823d604011610c27575b81610c1160409383611077565b8101031261012a576020825192015190846105ee565b3d9150610c04565b9091506020813d602011610c5b575b81610c4b60209383611077565b8101031261012a5751905f6105b9565b3d9150610c3e565b3461012a575f36600319011261012a5760206040516103528152f35b3461012a576003199060603683011261012a57610c9a610fc9565b916024918235908160030b9384830361012a576044359267ffffffffffffffff9586851161012a573660238601121561012a578460040135968711610fb657602095601f1997610cf1888a601f8401160187611077565b808652878601963686838301011161012a57815f92878b93018a3787010152610d186110d0565b610d2189611099565b935f8312610de65750505060609360409593610daf7fc7ddd9a34d7ae09f19664740bae0b870be9557c280fbf6acc9041595d325b8d09894610d8c610d8661036d610d7363ffffffff601f9916611570565b848515610dd8575b81156103e1576114fa565b9161128c565b6001600160a01b038b165f818152600389528a90208290559a6103a490826112eb565b86519687955f87528601525180918160408701528686015e5f85828601015201168101030190a2005b50610de16115e1565b610d7b565b91925090637fffffff198314610fa35763ffffffff80935f03169261012c8401818111610f9057610e26610e208a9493610e2c9316611570565b876110fb565b94611570565b9285938615610f74575b6007929181610ebe9215610f66575b60405196610e5288611007565b60028852604036888a0137610e6688611774565b52610e7087611781565b52604051610e7d81611023565b5f8152610eaf6040519788968796631888debd60e01b885260048089015287015260806044870152608486019061146f565b9184830301606485015261146f565b03815f73ea30c4b8b44078bbf8a6ef5b9f1ec1626c7848d95af190811561043a575f91610f2c575b509360409593610daf7fc7ddd9a34d7ae09f19664740bae0b870be9557c280fbf6acc9041595d325b8d09894610d8c610d86601f9660609a610f26611613565b916111f7565b958094979395915086813d8311610f5f575b610f488183611077565b8101031261012a5794519195929493916040610ee6565b503d610f3e565b50610f6f6115e1565b610e45565b935090610ebe600792610f856115e1565b959150919250610e36565b82634e487b7160e01b5f5260116004525ffd5b634e487b7160e01b5f9081526011600452fd5b82634e487b7160e01b5f5260416004525ffd5b600435906001600160a01b038216820361012a57565b67ffffffffffffffff8111610ff357604052565b634e487b7160e01b5f52604160045260245ffd5b6060810190811067ffffffffffffffff821117610ff357604052565b6020810190811067ffffffffffffffff821117610ff357604052565b6040810190811067ffffffffffffffff821117610ff357604052565b6080810190811067ffffffffffffffff821117610ff357604052565b90601f8019910116810190811067ffffffffffffffff821117610ff357604052565b6001600160a01b03165f81815260036020526040902054156110c4575f52600360205260405f205490565b506110cd611613565b90565b5f546001600160a01b031633036110e357565b60405163118cdaa760e01b8152336004820152602490fd5b9081156111e7575b80156111d9575b6040519161111783611007565b60028352604036602085013761112c83611774565b5261113682611781565b5260206106816040519261114984611023565b5f845261117f6040519485938493631888debd60e01b85526004808601526015602486015260806044860152608485019061146f565b03815f73ea30c4b8b44078bbf8a6ef5b9f1ec1626c7848d95af190811561043a575f916111aa575090565b90506020813d6020116111d1575b816111c560209383611077565b8101031261012a575190565b3d91506111b8565b506111e26115e1565b61110a565b90506111f16115e1565b90611103565b906112169291801561127e575b811561126e575b821561125e57611791565b60206106816040519261122884611023565b5f845261117f6040519485938493631888debd60e01b85526004808601526004602486015260806044860152608485019061146f565b91506112686115e1565b91611791565b90506112786115e1565b9061120b565b506112876116ed565b611204565b73ea30c4b8b44078bbf8a6ef5b9f1ec1626c7848d9803b1561012a57604051631974142760e21b815260048101929092523060248301525f908290818381604481015b03925af1801561043a576112e05750565b6112e990610fdf565b565b73ea30c4b8b44078bbf8a6ef5b9f1ec1626c7848d991823b1561012a57604051631974142760e21b815260048101929092526001600160a01b03166024820152905f908290818381604481016112cf565b9081156113cf575b80156113c1575b6040519161135883611007565b60028352604036602085013761136d83611774565b5261137782611781565b5260206106816040519261138a84611023565b5f845261117f6040519485938493631888debd60e01b8552600560048601526008602486015260806044860152608485019061146f565b506113ca61167b565b61134b565b90506113d961167b565b90611344565b906113fe92918015611461575b8115611451575b821561144757611791565b60206106816040519261141084611023565b5f845261117f6040519485938493631888debd60e01b8552600560048601526004602486015260806044860152608485019061146f565b915061126861167b565b905061145b61167b565b906113f3565b5061146a6116ed565b6113ec565b9081518082526020808093019301915f5b82811061148e575050505090565b835185529381019392810192600101611480565b90916114c76110cd9360058452601a602085015260806040850152608084019061146f565b91606081840391015261146f565b90916114c76110cd9360048452601a602085015260806040850152608084019061146f565b906040519161150883611007565b60028352604036602085013761151d83611774565b5261152782611781565b5260206106816040519261153a84611023565b5f845261117f6040519485938493631888debd60e01b85526004808601526008602486015260806044860152608485019061146f565b60405161157c81611023565b5f81526040519161158c8361105b565b6003835260603660208501376115a183611774565b5260046115ad83611781565b52815160021015610445575f6060830152604051631888debd60e01b8152916020918391829161117f9190600484016114d5565b6040516115ed81611023565b5f8152604051906115fd8261105b565b6003825260603660208401375f6115a183611774565b60405161161f81611023565b5f81526040519061162f8261105b565b60038252606036602084013761012c6115a183611774565b60405161165381611023565b5f8152604051906116638261105b565b6003825260603660208401376103526115a183611774565b60405161168781611023565b5f8152604051906116978261105b565b6003825260603660208401375f6116ad83611774565b5260056116b983611781565b52815160021015610445575f6060830152604051631888debd60e01b8152916020918391829161117f9190600484016114a2565b6040516116f981611023565b5f8152604051906117098261105b565b6003825260603660208401375f61171f83611774565b525f61172a83611781565b52815160021015610445576106816020915f606085015261117f6040519485938493631888debd60e01b85525f6004860152601a602486015260806044860152608485019061146f565b8051156104455760200190565b8051600110156104455760400190565b9190604051926117a08461105b565b6003845260603660208601376117b584611774565b526117bf83611781565b528151600210156104455760608201529056fea26469706673582212207c5f1ff8c69fe3a30e577c014a285885312774da1b4f4f90cae56b66c17eb44164736f6c63430008190033",
  "linkReferences": {},
  "deployedLinkReferences": {}
}