{
  "_format": "hh-sol-artifact-1",
  "contractName": "PolarisMerchantEscrow",
  "sourceName": "contracts/PolarisMerchantEscrow.sol",
  "abi": [
    {
      "inputs": [
        {
          "internalType": "address",
          "name": "_stablecoin",
          "type": "address"
        }
      ],
      "stateMutability": "nonpayable",
      "type": "constructor"
    },
    {
      "anonymous": false,
      "inputs": [
        {
          "indexed": true,
          "internalType": "address",
          "name": "owner",
          "type": "address"
        },
        {
          "indexed": false,
          "internalType": "uint256",
          "name": "amount",
          "type": "uint256"
        },
        {
          "indexed": false,
          "internalType": "uint256",
          "name": "timestamp",
          "type": "uint256"
        }
      ],
      "name": "FundsWithdrawn",
      "type": "event"
    },
    {
      "anonymous": false,
      "inputs": [
        {
          "indexed": true,
          "internalType": "address",
          "name": "payer",
          "type": "address"
        },
        {
          "indexed": false,
          "internalType": "uint256",
          "name": "amount",
          "type": "uint256"
        },
        {
          "indexed": false,
          "internalType": "string",
          "name": "orderId",
          "type": "string"
        },
        {
          "indexed": false,
          "internalType": "string",
          "name": "details",
          "type": "string"
        },
        {
          "indexed": false,
          "internalType": "uint256",
          "name": "timestamp",
          "type": "uint256"
        }
      ],
      "name": "PaymentSettled",
      "type": "event"
    },
    {
      "inputs": [],
      "name": "owner",
      "outputs": [
        {
          "internalType": "address",
          "name": "",
          "type": "address"
        }
      ],
      "stateMutability": "view",
      "type": "function"
    },
    {
      "inputs": [
        {
          "internalType": "uint256",
          "name": "amount",
          "type": "uint256"
        },
        {
          "internalType": "string",
          "name": "orderId",
          "type": "string"
        },
        {
          "internalType": "string",
          "name": "details",
          "type": "string"
        }
      ],
      "name": "settlePayment",
      "outputs": [],
      "stateMutability": "nonpayable",
      "type": "function"
    },
    {
      "inputs": [],
      "name": "stablecoin",
      "outputs": [
        {
          "internalType": "address",
          "name": "",
          "type": "address"
        }
      ],
      "stateMutability": "view",
      "type": "function"
    },
    {
      "inputs": [],
      "name": "withdraw",
      "outputs": [],
      "stateMutability": "nonpayable",
      "type": "function"
    },
    {
      "inputs": [
        {
          "internalType": "address",
          "name": "router",
          "type": "address"
        },
        {
          "internalType": "uint256",
          "name": "amount",
          "type": "uint256"
        },
        {
          "internalType": "uint64",
          "name": "destChainId",
          "type": "uint64"
        }
      ],
      "name": "withdrawFromRouter",
      "outputs": [],
      "stateMutability": "nonpayable",
      "type": "function"
    }
  ],
  "bytecode": "0x608060405234801561001057600080fd5b5060405162001088380380620010888339818101604052810190610034919061011e565b336000806101000a81548173ffffffffffffffffffffffffffffffffffffffff021916908373ffffffffffffffffffffffffffffffffffffffff16021790555080600160006101000a81548173ffffffffffffffffffffffffffffffffffffffff021916908373ffffffffffffffffffffffffffffffffffffffff1602179055505061014b565b600080fd5b600073ffffffffffffffffffffffffffffffffffffffff82169050919050565b60006100eb826100c0565b9050919050565b6100fb816100e0565b811461010657600080fd5b50565b600081519050610118816100f2565b92915050565b600060208284031215610134576101336100bb565b5b600061014284828501610109565b91505092915050565b610f2d806200015b6000396000f3fe608060405234801561001057600080fd5b506004361061004c5760003560e01c806317d90816146100515780633ccfd60b1461006d5780638da5cb5b14610077578063e9cbd82214610095575b600080fd5b61006b60048036038101906100669190610919565b6100b3565b005b6100756102db565b005b61007f61073f565b60405161008c91906109e5565b60405180910390f35b61009d610763565b6040516100aa91906109e5565b60405180910390f35b600083116100f6576040517f08c379a00000000000000000000000000000000000000000000000000000000081526004016100ed90610a5d565b60405180910390fd5b600080600160009054906101000a900473ffffffffffffffffffffffffffffffffffffffff1673ffffffffffffffffffffffffffffffffffffffff1633308760405160240161014793929190610a8c565b6040516020818303038152906040527f23b872dd000000000000000000000000000000000000000000000000000000007bffffffffffffffffffffffffffffffffffffffffffffffffffffffff19166020820180517bffffffffffffffffffffffffffffffffffffffffffffffffffffffff83818316178352505050506040516101d19190610b34565b6000604051808303816000865af19150503d806000811461020e576040519150601f19603f3d011682016040523d82523d6000602084013e610213565b606091505b5091509150818015610241575060008151148061024057508080602001905181019061023f9190610b83565b5b5b610280576040517f08c379a000000000000000000000000000000000000000000000000000000000815260040161027790610bfc565b60405180910390fd5b3373ffffffffffffffffffffffffffffffffffffffff167fecfc5982f01b4d27a0e2948c18cdac5d4f1d09801c5920c6abd0bfc68c204341868686426040516102cc9493929190610c60565b60405180910390a25050505050565b60008054906101000a900473ffffffffffffffffffffffffffffffffffffffff1673ffffffffffffffffffffffffffffffffffffffff163373ffffffffffffffffffffffffffffffffffffffff1614610369576040517f08c379a000000000000000000000000000000000000000000000000000000000815260040161036090610cff565b60405180910390fd5b600080600160009054906101000a900473ffffffffffffffffffffffffffffffffffffffff1673ffffffffffffffffffffffffffffffffffffffff16306040516024016103b691906109e5565b6040516020818303038152906040527f70a08231000000000000000000000000000000000000000000000000000000007bffffffffffffffffffffffffffffffffffffffffffffffffffffffff19166020820180517bffffffffffffffffffffffffffffffffffffffffffffffffffffffff83818316178352505050506040516104409190610b34565b600060405180830381855afa9150503d806000811461047b576040519150601f19603f3d011682016040523d82523d6000602084013e610480565b606091505b5091509150816104c5576040517f08c379a00000000000000000000000000000000000000000000000000000000081526004016104bc90610d6b565b60405180910390fd5b6000818060200190518101906104db9190610da0565b905060008111610520576040517f08c379a000000000000000000000000000000000000000000000000000000000815260040161051790610e19565b60405180910390fd5b600080600160009054906101000a900473ffffffffffffffffffffffffffffffffffffffff1673ffffffffffffffffffffffffffffffffffffffff1660008054906101000a900473ffffffffffffffffffffffffffffffffffffffff168460405160240161058f929190610e39565b6040516020818303038152906040527fa9059cbb000000000000000000000000000000000000000000000000000000007bffffffffffffffffffffffffffffffffffffffffffffffffffffffff19166020820180517bffffffffffffffffffffffffffffffffffffffffffffffffffffffff83818316178352505050506040516106199190610b34565b6000604051808303816000865af19150503d8060008114610656576040519150601f19603f3d011682016040523d82523d6000602084013e61065b565b606091505b509150915081801561068957506000815114806106885750808060200190518101906106879190610b83565b5b5b6106c8576040517f08c379a00000000000000000000000000000000000000000000000000000000081526004016106bf90610eae565b60405180910390fd5b60008054906101000a900473ffffffffffffffffffffffffffffffffffffffff1673ffffffffffffffffffffffffffffffffffffffff167ffbc3a599b784fe88772fc5abcc07223f64ca0b13acc341f4fb1e46bef0510eb48442604051610730929190610ece565b60405180910390a25050505050565b60008054906101000a900473ffffffffffffffffffffffffffffffffffffffff1681565b600160009054906101000a900473ffffffffffffffffffffffffffffffffffffffff1681565b6000604051905090565b600080fd5b600080fd5b6000819050919050565b6107b08161079d565b81146107bb57600080fd5b50565b6000813590506107cd816107a7565b92915050565b600080fd5b600080fd5b6000601f19601f8301169050919050565b7f4e487b7100000000000000000000000000000000000000000000000000000000600052604160045260246000fd5b610826826107dd565b810181811067ffffffffffffffff82111715610845576108446107ee565b5b80604052505050565b6000610858610789565b9050610864828261081d565b919050565b600067ffffffffffffffff821115610884576108836107ee565b5b61088d826107dd565b9050602081019050919050565b82818337600083830152505050565b60006108bc6108b784610869565b61084e565b9050828152602081018484840111156108d8576108d76107d8565b5b6108e384828561089a565b509392505050565b600082601f830112610900576108ff6107d3565b5b81356109108482602086016108a9565b91505092915050565b60008060006060848603121561093257610931610793565b5b6000610940868287016107be565b935050602084013567ffffffffffffffff81111561096157610960610798565b5b61096d868287016108eb565b925050604084013567ffffffffffffffff81111561098e5761098d610798565b5b61099a868287016108eb565b9150509250925092565b600073ffffffffffffffffffffffffffffffffffffffff82169050919050565b60006109cf826109a4565b9050919050565b6109df816109c4565b82525050565b60006020820190506109fa60008301846109d6565b92915050565b600082825260208201905092915050565b7f416d6f756e74206d757374206265203e20300000000000000000000000000000600082015250565b6000610a47601283610a00565b9150610a5282610a11565b602082019050919050565b60006020820190508181036000830152610a7681610a3a565b9050919050565b610a868161079d565b82525050565b6000606082019050610aa160008301866109d6565b610aae60208301856109d6565b610abb6040830184610a7d565b949350505050565b600081519050919050565b600081905092915050565b60005b83811015610af7578082015181840152602081019050610adc565b60008484015250505050565b6000610b0e82610ac3565b610b188185610ace565b9350610b28818560208601610ad9565b80840191505092915050565b6000610b408284610b03565b915081905092915050565b60008115159050919050565b610b6081610b4b565b8114610b6b57600080fd5b50565b600081519050610b7d81610b57565b92915050565b600060208284031215610b9957610b98610793565b5b6000610ba784828501610b6e565b91505092915050565b7f5472616e73666572206661696c65640000000000000000000000000000000000600082015250565b6000610be6600f83610a00565b9150610bf182610bb0565b602082019050919050565b60006020820190508181036000830152610c1581610bd9565b9050919050565b600081519050919050565b6000610c3282610c1c565b610c3c8185610a00565b9350610c4c818560208601610ad9565b610c55816107dd565b840191505092915050565b6000608082019050610c756000830187610a7d565b8181036020830152610c878186610c27565b90508181036040830152610c9b8185610c27565b9050610caa6060830184610a7d565b95945050505050565b7f4f6e6c79206f776e657200000000000000000000000000000000000000000000600082015250565b6000610ce9600a83610a00565b9150610cf482610cb3565b602082019050919050565b60006020820190508181036000830152610d1881610cdc565b9050919050565b7f42616c616e6365206665746368206661696c6564000000000000000000000000600082015250565b6000610d55601483610a00565b9150610d6082610d1f565b602082019050919050565b60006020820190508181036000830152610d8481610d48565b9050919050565b600081519050610d9a816107a7565b92915050565b600060208284031215610db657610db5610793565b5b6000610dc484828501610d8b565b91505092915050565b7f4e6f2066756e6473000000000000000000000000000000000000000000000000600082015250565b6000610e03600883610a00565b9150610e0e82610dcd565b602082019050919050565b60006020820190508181036000830152610e3281610df6565b9050919050565b6000604082019050610e4e60008301856109d6565b610e5b6020830184610a7d565b9392505050565b7f5769746864726177206661696c65640000000000000000000000000000000000600082015250565b6000610e98600f83610a00565b9150610ea382610e62565b602082019050919050565b60006020820190508181036000830152610ec781610e8b565b9050919050565b6000604082019050610ee36000830185610a7d565b610ef06020830184610a7d565b939250505056fea2646970667358221220df839746bac31eeefa8341b497c558e36c37394945cf6ac6650dcfccce5c63f864736f6c63430008140033",
  "linkReferences": {},
  "deployedLinkReferences": {}
}